:020000040800F2
:100000001045002059010008910F00082102000846
:100010008D0F0008C30200087117000800000000DF
:100020000000000000000000000000008511000832
:10003000C50E000800000000AB0100088711000891
:1000400073010008730100087301000873010008C0
:1000500073010008730100087301000873010008B0
:1000600073010008730100087301000873010008A0
:100070007301000873010008730100087301000890
:1000800073010008E90B00087301000881160008DD
:10009000F9160008730100087301000873010008D5
:1000A0007301000841130008730100087301000880
:1000B0007301000873010008730100087301000850
:1000C0007301000873010008730100087301000840
:1000D000730100087301000841140008A914000806
:1000E0007301000873010008730100087301000820
:1000F0007301000873010008730100087301000810
:1001000073010008730100087301000873010008FF
:1001100073010008730100087301000873010008EF
:1001200073010008730100087301000873010008DF
:10013000000000007301000873010008730100084B
:1001400073010008DFF80CD000F0A4F80048004765
:10015000B9020008104500200648804706480047BD
:10016000FEE7FEE7FEE7FEE7FEE7FEE7FEE7FEE767
:10017000FEE7FEE7E112000845010008EFF31080FA
:1001800072B6704780F310887047324A1368012BAB
:1001900004D04FF0010313602F4A10602F4A116002
:1001A0002F484FF0805101607047EFF3108272B614
:1001B0002848016891B14FF00001016026480168AC
:1001C00029B1EFF3098121E9F00F006801602349AB
:1001D00009680968B1E8F00F81F3098882F3108893
:1001E0004EF0040E70471D4908601B494FF0000097
:1001F000086018494FF0010008601A481A49D0F801
:10020000002041EA0201016015484FF08051016071
:1002100016480068006880F3088861B662B67047C7
:100220001EF0040F0CBFEFF30880EFF3098020E904
:10023000F00F40F804ED1EF0040F0CBF80F30888A7
:1002400080F3098800B502F06BFF5DF804EB4EF017
:10025000040E704770000020680000206C00002031
:1002600004ED00E020ED00E00000FFFF08ED00E0FD
:10027000D2B201E000F8012B491EFBD270470022E8
:10028000F6E710B513460A4604461946FFF7F0FF95
:10029000204610BD064C074D06E0E06840F0010323
:1002A00094E8070098471034AC42F6D3FFF74EFFAE
:1002B000444A0008644A000810B504F0C1F900205F
:1002C00010BD00BFFEE7B1F5007F5ED00FDC202936
:1002D0003DD006DC01291CD004292CD0082975D179
:1002E0002FE0402939D0B1F5807F6FD147E0B1F5DB
:1002F000004F60D006DCB1F5806F4CD0B1F5006FD7
:1003000064D14EE0B1F5803F2DD0B1F5003F5DD115
:100310002FE0826822F00102521C8260826822F47F
:10032000807202F580728260826822F4803202F567
:10033000803282604BE0C26822F008020832C2605C
:1003400045E0C26822F010021032C2603FE002694C
:1003500022F008020832026139E0026922F010023C
:100360001032026133E0426822F008020832426033
:100370002DE0426822F010021032426027E042680D
:1003800022F00402121D426021E0426822F00402C1
:10039000121D42601BE0426822F00402121D4260FE
:1003A00015E0826922F070028261426822F0040244
:1003B000121D42600BE0826922F070028261426885
:1003C00022F00402121D426001E0FFE700BF00BFFF
:1003D000704730B5024600200023146824F0020460
:1003E0001460146824F00104641C146000E05B1CB9
:1003F000546804F001041CB94FF6FF74A342F6D10F
:10040000546804F001040CB9002074E00C78012C4D
:1004100005D1146824F040044034146003E01468EB
:1004200024F0400414604C78012C05D1146824F0A9
:1004300020042034146003E0146824F020041460C5
:100440008C78012C05D1146824F010041034146049
:1004500003E0146824F010041460CC78012C05D15A
:10046000146824F008040834146003E0146824F0CD
:10047000080414600C79012C05D1146824F00404DC
:10048000241D146003E0146824F004041460D4698B
:1004900024F04044D461D4694D7944EA8574D46130
:1004A0008D79D46965F31964D461CD79D46965F324
:1004B0001344D4610D7AD46965F31654D4614C8920
:1004C000641ED56964F30905D561146824F001043C
:1004D0001460002300E05B1C546804F001041CB1AC
:1004E0004FF6FF74A342F6D1546804F001040CB136
:1004F000002000E0012030BD10B5D0F8002222F02D
:100500000102521CC0F80022D0F81C220C780123F2
:10051000A3409A43C0F81C228A7BD2B9D0F80C229F
:100520000C780123A3409A43C0F80C228A880B89D7
:1005300042EA03430C7800F5107242F834304A88DE
:10054000CB8842EA03430C7800F5107202EBC40238
:1005500053608A7B012A1AD1D0F80C220C7801232F
:10056000A3401A43C0F80C228A884B8842EA03430E
:100570000C7800F5107242F834300A89CB8842EAD0
:1005800003430C7800F5107202EBC40253604A7BFF
:1005900042B9D0F804220C780123A3409A43C0F852
:1005A000042207E0D0F804220C780123A3401A4368
:1005B000C0F804220A7B3AB9D0F814220C7801233F
:1005C000A3409A43C0F814220A7B012A07D1D0F82D
:1005D00014220C780123A3401A43C0F814224A893C
:1005E000012A07D1D0F81C220C780123A3401A431A
:1005F000C0F81C22D0F8002222F00102C0F800222C
:1006000010BD0021017041708170C1700171417194
:1006100081710321C1710221017201214181704761
:1006200042698A434261704742690A4342617047A6
:100630000246002053690B40002B6CD0B1F5807F3F
:1006400052D010DC082937D006DC012920D002293D
:100650002AD004295CD12BE0102931D0202933D0B5
:10066000402955D134E0B1F5004F4DD009DCB1F54A
:10067000007F3DD0B1F5806F3ED0B1F5006F47D11E
:100680003EE0B1F5803F27D0B1F5003F40D127E0F3
:10069000936803F001009368C3F300231843936841
:1006A000C3F30043184335E0D36803F0030031E09F
:1006B000D368C3F3C0002DE0D368C3F3001029E072
:1006C000136903F0030025E01369C3F3C00021E0C0
:1006D0001369C3F300101DE05368C3F3C00019E0B1
:1006E0005368C3F3001015E0936903F0010011E0B3
:1006F0009369C3F340000DE09369C3F3800009E000
:100700009369C3F3021005E05368C3F3800001E06E
:10071000002000BF00E000207047000010B5044634
:100720000B48844208D14FF0007000F0A5FC4FF058
:10073000007000F089FC0AE00648844207D14FF0BF
:10074000806000F099FC4FF0806000F07DFC10BDEF
:10075000006400400068004010B500F5D87303EB5A
:1007600001131B6803F004039360936853B900F509
:10077000D87303EB01131B6840F2FF7404EA535370
:10078000136009E000F5D87303EB01131B686FF0E9
:10079000604404EAD303536000F5D87303EB0113FC
:1007A0001B68C3F34003D36000F5D87303EB011358
:1007B0005B6803F00F03137400F5D87303EB0113A8
:1007C0005B681B0A537600F5D87303EB01139B6833
:1007D000537400F5D87303EB01139B681C0A9474DF
:1007E00000F5D87303EB01139B681C0CD47400F55F
:1007F000D87303EB01139B681C0E147500F5D873B6
:1008000003EB0113DB68537500F5D87303EB011399
:10081000DB681C0A947500F5D87303EB0113DB68E1
:100820001C0CD47500F5D87303EB0113DB681C0EA8
:10083000147629B9C36823F020032033C36004E091
:10084000036923F020032033036110BD10B5024675
:100850000023906800F08060B0F1806F00D111E05B
:10086000906800F00060B0F1006F01D1012309E051
:10087000906800F08050B0F1805F01D1022301E068
:10088000032010BD02F5C07000EB0310006800F0FB
:10089000010402F5C07000EB03100460087A78B917
:1008A000487A0C8840EA445002F5C07404EB031403
:1008B0002468204302F5C07404EB0314206010E0A8
:1008C000087A4C6840EAC4004C7A204302F5C074B0
:1008D00004EB03142468204302F5C07404EB0314F2
:1008E0002060887A00F00F00887202F5C07000EB7B
:1008F0000310406820F00F0402F5C07000EB0310F5
:10090000446002F5C07000EB031040688C7A20430D
:1009100002F5C07404EB03146060887B0406487B16
:1009200044EA0044087B44EA0020CC7A204302F5E4
:10093000C07404EB0314A060887C0406487C44EA7D
:100940000044087C44EA0020CC7B204302F5C074BC
:1009500004EB0314E06002F5C07000EB03100068C4
:1009600040F0010402F5C07000EB0310046018466B
:1009700087E7000000B589B0042000F085FB4FF048
:10098000007000F071FB4FF48050ADF8200088201B
:100990008DF8230003208DF8220008A92C4800F0D0
:1009A00092FA4FF40060ADF8200048208DF8230043
:1009B00003208DF8220008A9254800F084FA254874
:1009C000FFF7ACFE05A8FFF71CFE01208DF8140010
:1009D0008DF8150000208DF816008DF817008DF8A1
:1009E00018008DF819008DF81A0007208DF81B00EB
:1009F00002208DF81C002820ADF81E0005A915481E
:100A0000FFF7E7FC00208DF804008DF811000120AD
:100A10008DF812000020ADF80600ADF80800ADF822
:100A20000A00ADF80C008DF810000120ADF80E00A2
:100A300001A90848FFF760FD01220021132000F002
:100A4000B3FA02210348FFF7EFFD09B000BD000033
:100A50000008014000640040002211461BA002F083
:100A600095FF1C4908602FE04FF0FF3119480068DE
:100A700002F0E8FF184908600846006820B11548F0
:100A8000006802F098FF1FE016E0144890F8190182
:100A9000C0EBC000114A02EB8001114801F0D0FD0B
:100AA0000E4890F81901401C0A2190FBF1F201FB5D
:100AB00012000A4981F81901084890F818010749FD
:100AC00091F819118842E0D1CEE7000063616E5FB2
:100AD00073656D002800002034000020E80100202C
:100AE000A40C002086B0002400BF4FF484000190C5
:100AF000029004208DF80C0000208DF80D000820D5
:100B00008DF80E0000208DF80D0061E04FF0FF31F0
:100B10003048006802F096FF2F49086008460068D8
:100B200020B12C48006802F046FF51E02B48406994
:100B30002A49896988421AD028488069274951F88A
:100B40002000029002208DF80D0004208DF80C008A
:100B500001A9234801F038FB20488069401C052189
:100B600090FBF1F201FB12001C49886130E0002487
:100B700020E01C48D0F86402C0EBC002C2EBC010F9
:100B8000184A104400EBC40108220DF10F0002F0D6
:100B90008DFD44F01000019000208DF80D0008201C
:100BA0008DF80E0000208DF80C0001A90C4801F012
:100BB0000BFB641C0A2CDCDB0A48D0F86402401CE6
:100BC000052190FBF1F201FB12000649C1F8640215
:100BD0009CE700003000002038000020881600202C
:100BE00000640040FC16002010B54FF0007000F0CB
:100BF000ABF8E0B3214890F8DD05204991F8DC1509
:100C0000884224D01E4800F08BF81C4890F8DC0580
:100C1000C0EB001000EB8000184A02EB4001782284
:100C2000184802F043FD7821154800F06AF814488E
:100C300000F07BF8114890F8DC05401C0A2190FB7D
:100C4000F1F201FB12000D4981F8DC050EE00B48C2
:100C500090F8DD05094991F8DC15884206D108486D
:100C600000F05EF80020054981F8DE0500E003E0B1
:100C70004FF0007000F008F810BD0000B80600202A
:100C8000800002403403002000F0805111B103497C
:100C9000086001E002494860704700000404024017
:100CA000000002400B7A026863F3041202600B7DBD
:100CB000026863F3451202600B7C026863F38612DC
:100CC00002604B7C026863F3C71202608B7C02688F
:100CD00063F309220260CB7C026863F38B2202601B
:100CE0004B7D026863F30D3202608B7D026863F313
:100CF0008E320260CA6842600A6882604A68C260D6
:100D00007047416070470021016041600172C1601D
:100D1000017441748174C1740175417581757047A6
:100D2000016821F0010101607047016821F00101B3
:100D3000491C0160704702680A430260704701461F
:100D4000486880B270470000014601F0805038B119
:100D500007480068084008B1012070470020FCE700
:100D600004480068084008B10120F6E70020F4E7D5
:100D70000004024000000240016821F0010101600E
:100D8000002101604160C16081604C49884208D106
:100D90004A490839496861F00F01484A083A5160E8
:100DA0008AE046491431884208D1444908394968E3
:100DB00061F0F001414A083A51607DE03F49283135
:100DC000884208D13D490839496861F470613B4A5D
:100DD000083A516070E039493C31884208D13749BE
:100DE0000839496861F47041344A083A516063E057
:100DF00032495031884208D130490839496861F494
:100E000070212E4A083A516056E02C4964318842DC
:100E100008D12A490839496861F47001274A083A1B
:100E2000516049E025497831884208D12349083981
:100E3000496861F07061214A083A51603CE02049FC
:100E4000884206D1011F096861F00F01021F11607D
:100E500032E01B491431884208D11949091F096839
:100E600061F0F001164A121F116025E01449283183
:100E7000884208D11249091F096861F47061104A5B
:100E8000121F116018E00E493C31884208D10C490C
:100E9000091F096861F47041094A121F11600BE0D3
:100EA00007495031884207D10549091F096861F493
:100EB0007021034A121F11607047000008000240B1
:100EC000080402407047F0B5CF7807F00F06CF78DE
:100ED00007F080070FB18F783E430F78E7B10468C1
:100EE0000023012215E00F8817407FB19D000F27D6
:100EF000AF40BC4306FA05F73C43CF78282F01D119
:100F0000426103E0CF78482F00D102615F1CFBB241
:100F10005200082BE7DB04600F8807F47F47F7B126
:100F2000446808235A0117E00F8817408FB1A3F1D6
:100F30000807BD000F27AF40BC4306FA05F73C4346
:100F4000CF78282F01D1426103E0CF78482F00D11C
:100F500002615F1CFBB25200102BE5DB4460F0BD68
:100F60004FF6FF710180022181700421C17070472A
:100F7000024693680B400BB1012300E000231846A2
:100F800070470AB1016100E04161704700BFFEE7B0
:100F90007047000002490143024A11607047000097
:100FA0000000FA050CED00E02DE9F04305460F4680
:100FB00090462348006800F4E069B9F5A06F13D0AB
:100FC00006DCB9F5407F15D0B9F5806F15D10EE07C
:100FD000B9F5C06F05D0B9F5E06F0ED10023042438
:100FE00012E0012303240FE0022302240CE0032378
:100FF000012409E00423002406E04FF4E060FFF739
:10100000C9FF0023042400BF00BFC3F10403C4F1DF
:10101000040407FA03F60F20204100EA0800064303
:1010200036010848465505F01F0101208840691126
:10103000890001F1E021C1F80001BDE8F083000062
:101040000CED00E000E400E0024909698143014A37
:101050001161704700100240024949690143014A89
:1010600051617047001002400249C9690143014AB9
:10107000D161704700100240024909690143014AE9
:101080001161704700100240024989690143014A19
:1010900091617047001002407FB509A30FCB8DE826
:1010A0000F0000F03DF8064609484068C0F3031001
:1010B0001DF8004026FA04F5284604B070BD000073
:1010C00000000000000000000102030406070809F8
:1010D00000100240FCB504460D460EA103C9CDE93F
:1010E0000001FFF7D9FF074644B10C484068C0F340
:1010F00002201DF8006027FA06F0206045B107487D
:101100004068C0F3C2201DF8006027FA06F028608E
:10111000FCBD0000000000000102030400100240BA
:10112000154B5B6803F0030020B1012804D00228AE
:101130001DD103E011481CE010481AE00E4B5B681B
:10114000C3F383439A1C0C4B5B68C3F3004151B15A
:101150000A4B02FB03F0084B5B68C3F340438B422E
:1011600004D1400802E0064B02FB03F001E0034813
:1011700000BF00BF704700000010024000127A005C
:1011800000093D00704710B502F064FB10BD00007F
:1011900008B53448006820F4803000F580303149CB
:1011A00008600020009008E02E480068C0F340402E
:1011B00000B106E00098401C00900098B0F5A04FE8
:1011C000F2D300BF27480068C0F34040002848D051
:1011D0002548006820F010001030234908600846B8
:1011E000006820F00700C01C08601E48406820F01E
:1011F000F0001C4948600846406820F46050486090
:101200000846406820F4E06000F5806048600846C9
:10121000406820F4803000F580304860084640681F
:1012200020F4701000F5201048600846006820F097
:10123000807000F18070086000BF0A480068C0F349
:1012400040600028F9D00748406820F00300801C67
:101250000449486000BF03484068C0F38100022889
:10126000F9D108BD001002400020024010B5FFF780
:101270008FFF10BD164B5B6803F0030020B10128FF
:1012800004D002281DD103E012481CE011481AE0E6
:101290000F4B5B68C3F383439A1C0D4B5B68C3F32E
:1012A000004151B10B4B02FB03F0094B5B68C3F3E8
:1012B00040438B4204D1400802E0074B02FB03F09D
:1012C00001E0044800BF00BF044B186070470000F5
:1012D0000010024000127A0000093D0000000020CA
:1012E00010B51348006820F00100401C1049086048
:1012F000084640680F4908400D49486008460068A4
:101300000D4908400A4908600846006820F480201A
:1013100008600846406820F4FE0048604FF41F0053
:101320008860FFF7A3FF4FF000600449086010BD1C
:10133000001002400000FFF8FFFFF6FE08ED00E09D
:1013400010B50121094800F070F801280DD10848B6
:101350000078012805D103F0E7F90648006802F09B
:1013600048FB0121014800F007F810BD002C0140A6
:101370001200002040000020CA43026170470000B4
:1013800010B51B4B98420ED01A4B98420BD0B0F1BF
:10139000804F08D0184B984205D0184B984202D085
:1013A000174B984207D103689AB240F28F331A4024
:1013B0000B781A430260134B984207D0124B9842A5
:1013C00004D04C78036864F3092303604B88C3623C
:1013D0008B888362064B984202D0064B984201D11B
:1013E0008B790363436923F001035B1C436110BDE8
:1013F000002C01400034014000040040000800407F
:10140000000C00400010004000140040016821F072
:10141000010101607047016821F00101491C016070
:101420007047C2680A43C2607047024610690840AC
:1014300020B1D068084008B1012070470020FCE7C7
:1014400010B500241349144800F0EEF880B111499A
:10145000114800F065F81048001D00684FF4801036
:10146000FFF712FC03F014F901200C49087010E09A
:101470000B49094800F0D8F858B901200949C1F8CA
:1014800068020749044800F04BF80549024800F09B
:1014900097F810BD10000104004400401200002025
:1014A00020000105FC16002010B50024154916483F
:1014B00000F0BAF828B31448001D00681348FFF77D
:1014C0002FFC1020FFF7E0FB1048FFF738FCC0F1BD
:1014D000960474B10E490C7001200E4908709622D2
:1014E00000210D4802F0FFF822460C490A4802F09C
:1014F000DDF896210548FFF704FC01210348FFF7BA
:101500001AFC10BD100001040048004030000240E9
:101510001500002014000020220600208C05002069
:101520000A0E012303FA02F2036893430360704733
:101530002DE9F84305460E46EC684EF6F3100440DC
:10154000B07A31890843B18808430443EC602C69C0
:101550004CF6FF700440F08804432C616C694FF630
:10156000FF400440B08904436C611448854204D1B3
:1015700069460020FFF7AEFD03E000216846FFF753
:10158000A9FD009800EBC00101EB00103168890053
:10159000B0FBF1F86420B8FBF0F0040120096421ED
:1015A00001FB1087322000EB0710B0FBF1F000F0D8
:1015B0000F000443AC60BDE8F88300000038014030
:1015C0008BB2DA4301F4803313B1C3681340C360B4
:1015D00001F4003313B103691340036101F4802364
:1015E00013B14369134043617047C16821F400514E
:1015F00001F50051C160704742690A43426170477A
:101600008AB201F4803313B1C3681343C36001F499
:10161000003313B103691343036101F4802313B151
:10162000436913434361704710B5024601F48030AB
:1016300018B1D068084083B209E001F4003018B155
:101640001069084083B202E05069084083B20C0E72
:10165000012000FA04F41068044014B10BB1012019
:1016600010BD0020FCE702461068084008B10120C8
:1016700070470020FCE7426861F30802426070474F
:1016800010B501211A48FEF7D3FF01282FD11948C0
:1016900090F8C800174991F8C910884217D015482A
:1016A00090F8C90000EB8000124A02EB800110485C
:1016B000FFF7CCF80F4890F8C900401C0A2190FBB6
:1016C000F1F201FB12000B4981F8C9000BE0094857
:1016D00090F8C800074991F8C910884203D1012148
:1016E0000348FEF79DFF01210148FEF7ECFD10BD08
:1016F000006400401C01002010B502211948FEF7CB
:1017000097FF01282DD102211648FEF7DCFD16486F
:1017100090F81801401C0A2190FBF1F201FB120025
:10172000114991F8191188421BD00F4890F81801FF
:10173000C0EBC0000C4901EB800200210948FFF713
:101740000BF8094890F81801401C0A2190FBF1F2AF
:1017500001FB1200044981F818010448006802F0F6
:1017600048F910BD00640040E80100202800002076
:1017700000BFFEE710B58CB004460420FFF784FCE0
:101780004FF40030FFF770FC0120FFF765FC882064
:101790008DF81F000420ADF81C0003208DF81E00FA
:1017A00007A94148FFF78FFB04208DF81F00082090
:1017B000ADF81C0007A93C48FFF785FB08940C20F6
:1017C0008DF82A000020ADF82800ADF82600ADF80D
:1017D0002400ADF82C0008A93448FFF7A9FE3348CF
:1017E000FFF703FF3248FFF7C7FA01A8FFF78BFAAC
:1017F0002E48001D01902F48029000208DF80C000B
:101800009620049000208DF8140001208DF815001A
:1018100000208DF816008DF817008DF818000220B2
:101820008DF8190000208DF81A0001A92048FFF753
:1018300039FA1F481430FFF79FFA01A8FFF763FA3F
:101840001A48001D01901C48029001208DF80C00E0
:101850009620049000208DF8140001208DF81500CA
:1018600000208DF816008DF817008DF81800022062
:101870008DF8190000208DF81A0001A90C481430C9
:10188000FFF710FAC0210948FFF7B6FE0221084809
:101890001430FFF750FA002201211120FFF784FBDA
:1018A00000200CB010BD00000008014000440040C2
:1018B0006C000240CA03002034030020A6B00024BC
:1018C00000BF00BF98216846FEF7D9FC6CE24FF0DC
:1018D000FF31FE48006802F0B5F8FD49086008468F
:1018E000006820B1F948006802F065F85CE2F94848
:1018F000FFF725FAC0F19600F7490870F548FFF7A1
:101900000FFA4FF48010FFF7BFF996220021F34839
:1019100001F0E9FEF0480278F149F04801F0C6FE16
:101920009621EC48FFF7EDF90121EA48FFF703FAA9
:101930000020EC490870E84800787828C6DB0024CD
:1019400015E0E94AD2F86022C2EBC203C3EBC2122F
:10195000E54B1A4404EB840302EB4300C4EB04128E
:10196000521DDE4BD1180A2201F0A0FE641C082C87
:10197000E7DBDD48D0F86002401C052190FBF1F266
:1019800001FB1200D849C1F8600200BF0020C1F875
:101990006802D648D0F89401D449D1F89011884211
:1019A00050D00120D24988700020C87096220021B2
:1019B000684601F098FE002431E0EF20C4EB0411EA
:1019C0000DF80100FA21C4EB0410401C0DF80010C2
:1019D0000821C4EB0410801C0DF800100B21C4EB8F
:1019E0000410C01C0DF800100121C4EB0410001DF0
:1019F0000DF80010BD4AD2F8942102EB8202BB4BD5
:101A000003EB021204EB840302EB4301C4EB041268
:101A1000521D6B46D0180A2201F048FE641C082CA7
:101A2000CBDB7821684602F035FFB048D0F894014E
:101A3000401C052190FBF1F201FB1200AB49C1F8FB
:101A400094010AE0AA48C078401CA949C870084619
:101A5000C0780A2801DB00208870A448D0F8301331
:101A6000D0F82C03814250D00120A14908720020F7
:101A7000487296220021684601F035FE002431E0CC
:101A8000EF20C4EB04110DF80100FA21C4EB04109F
:101A9000401C0DF800100821C4EB0410801C0DF848
:101AA00000100B21C4EB0410C01C0DF80010022123
:101AB000C4EB0410001D0DF800108C4AD2F830233E
:101AC00002EB82038B4A02EB031204EB840302EB6A
:101AD0004301C4EB0412521D6B46D0180A2201F0D8
:101AE000E5FD641C082CCBDB7821684602F0D2FEB1
:101AF0007E48D0F83003401C052190FBF1F201FB39
:101B000012017A48C0F830130AE07948407A401C44
:101B1000774948720846407A0A2801DB002008729B
:101B20007248D0F8CC14D0F8C804814250D00120BB
:101B30006F4988720020C87296220021684601F021
:101B4000D2FD002431E0EF20C4EB04110DF80100B8
:101B5000FA21C4EB0410401C0DF800100821C4EB5E
:101B60000410801C0DF800100B21C4EB0410C01CE5
:101B70000DF800100321C4EB0410001D0DF8001037
:101B80005A4AD2F8CC2402EB82035B4A02EB0312DE
:101B900004EB840302EB4301C4EB0412521D6B46B9
:101BA000D0180A2201F082FD641C082CCBDB7821BE
:101BB000684602F06FFE4D48D0F8CC04401C052169
:101BC00090FBF1F201FB12014848C0F8CC140AE086
:101BD0004748C07A401C4649C8720846C07A0A285D
:101BE00001DB002088724148D0F86816D0F86406FE
:101BF000814250D001203E4988710020C871962250
:101C00000021684601F06FFD002431E0EF20C4EBB5
:101C100004110DF80100FA21C4EB0410401C0DF86A
:101C200000100821C4EB0410801C0DF800100B21DB
:101C3000C4EB0410C01C0DF800100421C4EB041008
:101C4000001D0DF80010294AD2F8682602EB820325
:101C50002A4A02EB031204EB840302EB4301C4EBB8
:101C60000412521D6B46D0180A2201F01FFD641C9D
:101C7000082CCBDB7821684602F00CFE1B48D0F81C
:101C80006806401C052190FBF1F201FB1201174888
:101C9000C0F868160AE01648C079401C1449C8719B
:101CA0000846C0790A2801DB002088710F48D0F867
:101CB0000418D0F8000881426BD001200C4908714B
:101CC0000020487196220021684619E0400000205B
:101CD000580000206C000240130000206004002027
:101CE000CA03002012000020FC160020A40C0020D3
:101CF000980C0020400E0020DC0F002078110020FE
:101D000001F0F1FC002431E0EF20C4EB04110DF8E8
:101D10000100FA21C4EB0410401C0DF8001008214A
:101D2000C4EB0410801C0DF800100B21C4EB041050
:101D3000C01C0DF800100221C4EB0410001D0DF8AA
:101D400000101A4AD2F8042802EB8203184A02EB68
:101D5000031204EB840302EB4301C4EB0412521D93
:101D60006B46D0180A2201F0A1FC641C082CCBDBC6
:101D70007821684602F08EFD0C48D0F80408401C1B
:101D8000052190FBF1F201FB12010848C0F804188C
:101D90000AE008484079401C0649487108464079E5
:101DA0000A2801DB0020087191E50000A40C002046
:101DB00014130020980C00200146481EB0F1807FCB
:101DC00001D301207047481E4FF0E0225061FF20F0
:101DD000044A107000204FF0E0229061072010614B
:101DE0000020EFE723ED00E0014609B9002070472D
:101DF000C8B220B1C8B20E4A105C401CF7E701F42B
:101E00007F4028B10A48C1F30722805C0930EEE721
:101E100001F47F0028B10648C1F30742805C11300D
:101E2000E5E7034800EB116000781930DFE70000B8
:101E30000C49000802E008C8121F08C1002AFAD1A4
:101E400070477047002001E001C1121F002AFBD13A
:101E5000704700002DE9FC5F04468B4615461E4680
:101E6000DDE90C9ADDE90E7804F1140040600060B1
:101E700000BF1C346560A660C4F80C90C4F810A0C4
:101E80002321D4E9030201F02EFCD4E9033C63448E
:101E90001A1F0F4BD4E9010101F042FA2060A77626
:101EA00067760020E061C4F82080C4F82480606177
:101EB00020766065A0651C3C00902346054A2146BB
:101EC000019004F1440002F06EF90020BDE8FC9F8F
:101ED0008D3D0008B93F00082DE9F04704460E4645
:101EE00017469846DDF8209084F80990607A20F033
:101EF00001006072E66127620020A062C4F82480BD
:101F0000002506E004F1140101EBC50001F0CEFA52
:101F10006D1C012DF6DBBDE8F08770B50546002489
:101F200006E005F1140101EBC40001F000FB641CA4
:101F3000012CF6DB70BD70B50446FEF71FF90546AF
:101F4000206F10B12046216F88472846FEF71AF906
:101F500070BD00001CB5002112A001F0CEFB154998
:101F600008604FF47A7002214B020022CDE9001084
:101F7000114912A001F0DBFE134908600846006811
:101F800038B112A001F074FA0F48006801F0DCFFCC
:101F900005E018A001F06CFA4FF0FF301CBD00BF47
:101FA000FCE7000063616E315F73656E645F6D75A1
:101FB0007465780024000020590A000863616E5F90
:101FC00072656376000000001C00002072745F746C
:101FD00068726561645F63616E726563765F637288
:101FE0006561746520697320737563636573730A33
:101FF0000000000072745F7468726561645F636101
:102000006E726563765F63726561746520697320C3
:102010006661696C650A00001CB50022032116A0E8
:1020200001F0B4FC184908600022114617A001F025
:10203000ADFC1B4908604FF47A7003214FF48063B4
:102040000022CDE90010174917A001F070FE1949D0
:1020500008600846006838B117A001F009FA154871
:10206000006801F071FF05E01DA001F001FA4FF0DA
:10207000FF301CBD00BFFCE76D795F63616E736567
:102080006E645F73656D00002C0000206D795F63E6
:10209000616E6E656E6473656E645F73656D00007E
:1020A00030000020E50A000863616E5F73656E64AE
:1020B000000000002000002072745F746872656187
:1020C000645F63616E73656E645F6372656174659E
:1020D00020697320737563636573730A00000000E1
:1020E00072745F7468726561645F63616E73656E5C
:1020F000645F637265617465206973206661696CF1
:10210000650A00001CB50022114612A001F03EFC39
:10211000134908604FF47A7002214B020022CDE986
:102120000010104910A001F002FE12490860084694
:10213000006838B110A001F09BF90E48006801F06A
:1021400003FF05E016A001F093F94FF0FF301CBD2E
:1021500000BFFCE775736172745F73656D0000000A
:1021600040000020BD18000875736172745F7265CD
:10217000637600004400002072745F7468726561C9
:10218000645F7573617274726563765F63726561B3
:10219000746520697320737563636573730A000047
:1021A00072745F7468726561645F75736172747272
:1021B0006563765F6372656174652069732066612B
:1021C000696C650A0000000070B506460C460025E3
:1021D00021463248FEF73AFB032801D0012070BDAA
:1021E0002F4890F8C800401C0A2190FBF1F201FB37
:1021F00012002B4991F8C910884201D10020EEE766
:10220000A07A274991F8C81001EB8101244A02EB1A
:1022100081018872114691F8C81001EB810102EB2F
:10222000810160684860607A114691F8C81001EB3E
:10223000810102EB81014872114691F8C81001EB4F
:102240008101206842F82100207A114691F8C810D7
:1022500001EB810102EB81010872114691F8C8106F
:1022600001EB810102EB810101F10B00082204F175
:102270000B0101F01BFA01210848FEF7D5F90848C7
:1022800090F8C800401C0A2190FBF1F201FB1200FB
:10229000034981F8C8000120A1E700000064004064
:1022A0001C01002008B50C20FEF7EEFE48208DF83A
:1022B00003004FF40070ADF8000003208DF8020019
:1022C00069462F48FEF7FFFD80208DF803000120AE
:1022D000ADF8000003208DF8020069462948FEF79A
:1022E000F2FD002201212748FEF74BFE80208DF8E9
:1022F0000300ADF8000003208DF802006946204875
:10230000FEF7E1FD012280211D48FEF73AFE802004
:102310008DF803004000ADF8000003208DF80200A6
:1023200069461848FEF7CFFD00224FF4807115482A
:10233000FEF727FE80208DF803004020ADF8000056
:1023400003208DF8020069460D48FEF7BCFD00220F
:1023500040210B48FEF715FE80208DF80300022077
:10236000ADF8000003208DF8020069460548FEF72D
:10237000AAFD012202210348FEF703FE08BD00006A
:10238000000C0140000801400020054981F8DE05ED
:102390000449C1F868020120034908707047000031
:1023A000B8060020FC160020980C00202DE9FC4106
:1023B000002400260027A0460025FFF7E5FFFFF7D1
:1023C000C9FDFFF79FFEFFF727FEC82003214FF44A
:1023D00080630022CDE900105B495CA001F0A7FCFE
:1023E0005D4908600846006838B15CA001F040F81B
:1023F0005948006801F0A8FD06E060A001F038F837
:102400004FF0FF30BDE8FC819CE04FF40071624862
:10241000FEF7AEFD28B9052C01DA641C3CE005246A
:102420003AE0052C37DB5D4840695C4951F82000F3
:1024300020F00F00001D4969584A42F8210010465B
:102440004069114651F8200020F0F00050304969F1
:1024500042F8210010464069114651F8200020F44E
:10246000F85000F54070496942F821001046406973
:10247000401C052190FBF1F201FB12004749486125
:102480004748006801F0B5FA46A000F0F1FF0024CB
:1024900000F024F900E0002446480078022818D112
:1024A00045480068401C4449086008460068B0F58B
:1024B000FA7F0ED300200860002201213F48FEF77A
:1024C00060FD012202213D48FEF75BFD01203949F4
:1024D0000870642001F053FC681C85B2032D31DDC7
:1024E0002E4840692D4951F8200020F00F00001DB2
:1024F00049692A4A42F8210010464069114651F8BC
:10250000200020F0F0003030496942F821001046E8
:102510004069114651F8200020F4F85000F5106091
:10252000496942F8210010464069401C052190FB92
:10253000F1F201FB1200194948611948006801F0E5
:1025400058FA002561E70000D12500086D73675F28
:1025500073656E64000000000400002072745F74F4
:1025600068726561645F6372656174652069732078
:10257000737563636573730A0000000072745F749F
:1025800068726561645F6372656174652069732058
:102590006661696C650A0000000C01408816002025
:1025A000300000206B65793120697320656E640A04
:1025B00000000000980C002064000020000801408A
:1025C00010B5044600F0A0FCFFF7F0FE10BD0000BF
:1025D00000BF00BF02211648FEF726F80022114670
:1025E0001420FEF7E1FC21E01248D0F86402114902
:1025F000D1F86012884203D00F48006801F0F9F961
:102600000E4880690D49496988420CD00B4800F09A
:1026100077F90A488069401C052190FBF1F201FB23
:102620001200064988610A2001F0A9FBDCE70000DE
:1026300000640040FC160020300000206C160020D2
:102640002DE9F04105460C46002700262078C0F30E
:102650000316207800F00F07E06848BB672171433C
:1026600005EB81036721714305EB8101D1F89011DE
:1026700001EB810103EB011101EBC700227C04F1A6
:10268000110101F013F8092F24D16720704305EBE5
:102690008000D0F89001401C052190FBF1F201FB75
:1026A00012016720704305EB8000C0F8901111E023
:1026B000E06878B1084960684969074A42F8210032
:1026C00010464069401C052190FBF1F201FB12000D
:1026D00001494861BDE8F0816C16002010B5012267
:1026E00040210248FEF74DFC10BD0000000C0140E7
:1026F00030B51A4C436824681919884215D04B88A4
:102700009BB9174B1B6899420FD0164B1B688B4225
:1027100001D1144B18604B684360104B1B68C31AFF
:102720000E4D4C682D682C44A3600C4C83682468C3
:102730001A19824211D053887BB90A4B1B68834215
:1027400001D1084B1A6043685360044B1B68D31ACD
:10275000024D44682D682C44A36030BD80000020E9
:1027600084000020880000202DE9F04F86B00D463F
:102770009C46DDE9106401960F9B04F04008B8F117
:10278000000F02D0DFF8708101E0DFF87081CDF832
:10279000008004F01008B8F1000F01D024F001040B
:1027A00004F00108B8F1000F02D04FF0300801E04A
:1027B0004FF02008C246002704F00208B8F1000FCD
:1027C00011D0002A02DA2D2752420CE004F004084E
:1027D000B8F1000F01D02B2705E004F00808B8F18C
:1027E000000F00D02027002142B94FF0300B88465F
:1027F000491C0DF1080909F808B01DE01AE0E1468E
:10280000B9F10A0F08D14FF00A0BB2FBFBFE0BFB2C
:102810001E28B2FBFBF202E002F00F08120900BF13
:10282000DDF8009019F808B08846491C0DF1080938
:1028300009F808B0002AE2D1B14200DD0E469B1B28
:1028400004F01108B8F1000F10D117B1002B00DD12
:102850005B1E06E0A84203D24FF0200880F80080FB
:10286000401CB3F10008A3F10103F3DC27B1A84237
:1028700000D207705B1E401C04F01008B8F1000F76
:102880000AD104E0A84201D280F800A0401CB3F1B4
:102890000008A3F10103F5DC06E0A84203D24FF0E3
:1028A000300880F80080401CB046761E8845F4DC75
:1028B00008E0A84205D20DF1080818F8018080F858
:1028C0000080401CB1F10008A1F1010104DDDDF838
:1028D0000480B8F1000FECD106E0A84203D24FF01B
:1028E000200880F80080401CB3F10008A3F1010328
:1028F000F3DC06B0BDE8F08F1D4A00080C4A000862
:1029000010B50446A06914F8200000F00F01E9A0FA
:1029100000F0AEFDA06914F82000C0F30311F0A090
:1029200000F0A6FDA06934F82000C0F30421F7A050
:1029300000F09EFDA06934F82000C0F304200D28AB
:102940007ED2DFE800F07D0711515B5CA2FDFCFB4D
:10295000FAF9F800F7480078012804D101F0A4FE44
:102960000320F44908709EE2A06914F8200000F0EA
:102970000F00032837D101F097FE0320ED490870BE
:10298000ED484069EC4951F8200020F4F85000F57A
:1029900000704969E84A42F8210010464069114632
:1029A00051F8200020F00F00001D496942F8210075
:1029B000A06914F820001146496952F8211060F30B
:1029C00007111046406942F8201010464069401C2B
:1029D000052190FBF1F201FB1200D7494861D7486D
:1029E000006801F006F85EE2D2480078012804D1C0
:1029F00001F05AFE0320CF49087054E253E2A06967
:102A000014F8200000F00F0005283DD1CA484069A5
:102A1000C94951F8200020F4F85000F5A060496938
:102A2000C54A42F8210010464069114651F820007D
:102A300020F00F00001D496942F82100A06900E064
:102A400030E214F820001146496952F8211060F371
:102A500007111046406942F8201010464069401C9A
:102A6000052190FBF1F201FB1200B3494861B34824
:102A7000006800F0BEFFAF480078012804D101F0E3
:102A800013FE0320AB4908700DE2A06914F8200082
:102A900000F00F00032854D1A7484069A64951F817
:102AA000200020F4F85000F5C0604969A24A42F8BD
:102AB000210010464069114651F8200020F00F0017
:102AC000001D496942F82100A06914F82000114650
:102AD000496952F8211060F307111046406942F825
:102AE000201010464069401C052190FBF1F201FBCB
:102AF0001200914948619148006800F07AFF002077
:102B00008C498870084601798DA000F0B1FC002046
:102B10009249C1F89401C1F89001864800790028D3
:102B200008D1844988710872887201F005FE01207D
:102B3000804908707AE1B4E1B2E1B0E1AEE1ACE124
:102B400075E1A06914F8200000F00F00052853D1AA
:102B500079484069784951F8200020F4F85000F590
:102B6000C0604969744A42F8210010464069114624
:102B700051F8200020F00F00001D496942F82100A3
:102B8000A06914F820001146496952F8211060F339
:102B900007111046406942F8201010464069401C59
:102BA000052190FBF1F201FB120063494861634883
:102BB000006800F01EFF00205E4908710846817819
:102BC00067A000F055FC5B4801795DA000F050FC67
:102BD00000216248C0F80418C0F8001855488078F1
:102BE0000028A7D1534988710872887201F0A4FDAA
:102BF00001205049087019E1A06914F8200000F084
:102C00000F00012854D1A06914F82000C0F303106C
:102C100004284DD148484069474951F8200020F424
:102C2000F85000F5C0604969434A42F82100104657
:102C30004069114651F8200020F00F00001D49693D
:102C400042F82100A06914F820001146496952F8A1
:102C5000211060F307111046406942F82010104619
:102C60004069401C052190FBF1F201FB1200324942
:102C700048613248006800F0BCFE00202D49887190
:102C800000213648C0F86816C0F8641629488078D4
:102C900000280CD127480079002808D12548807ADF
:102CA000002804D101F048FD012022490870BDE050
:102CB00064E000006D73672D3E43616E5F4D736786
:102CC0005B6D73672D3E4D73675F4F75745D2E6D41
:102CD00073672E6D73675F66726F6D3D25640A00C2
:102CE0006D73672D3E43616E5F4D73675B6D7367F8
:102CF0002D3E4D73675F4F75745D2E6D73672E6D3E
:102D000073675F746F3D25640A0000006D73672D63
:102D10003E43616E5F4D73675B6D73672D3E4D7310
:102D2000675F4F75745D2E6D73672E636D643D250F
:102D3000640A0000980C0020881600203000002053
:102D40004D795F4174747269627574652E6475742F
:102D50005F74616C6B3D25640A000000A40C0020C8
:102D60004D795F4174747269627574652E636F6D1D
:102D70005F74616C6B3D25640A000000A06914F863
:102D8000200000F00F00022850D1A06914F82000A4
:102D9000C0F30310042849D144484069434951F81D
:102DA000200020F4F85000F5C06049693F4A42F81D
:102DB000210010464069114651F8200020F00F0014
:102DC000801C496942F82100A06914F820001146CE
:102DD000496952F8211060F307111046406942F822
:102DE000201010464069401C052190FBF1F201FBC8
:102DF00012002E4948612E48006800F0FAFD0020BC
:102E00002C49887200212C48C0F8CC14C0F8C81492
:102E10002848807850B92748007938B92548807902
:102E200020B901F089FC0120224908703BE001F043
:102E300071FC1E4840691D4951F8200020F00F0028
:102E4000001D4969194A42F82100A06914F82000C0
:102E50001146496952F8211060F307111046406984
:102E600042F8201010464069114651F8200020F425
:102E7000F85000F5E060496942F8210010464069C9
:102E8000401C052190FBF1F201FB1200074948614B
:102E90000748006800F0ADFD05E004E003E002E053
:102EA00001E000E000BF00BF10BD00008816002058
:102EB00030000020980C0020A40C00201CB5142029
:102EC0000A214FF480730022CDE90010044905A0C7
:102ED00000F02DFF0446204601F036F81CBD00002E
:102EE000C12500086D61696E0000000010B5044C3A
:102EF00002E020688047241D02488442F9D310BDB7
:102F0000344A00083C4A000810B5044C02E020682E
:102F10008047241D02488442F9D310BD3C4A000872
:102F2000404A000810B5FDF729F904460448008816
:102F3000401C00B2024908802046FDF723F910BD6D
:102F4000FC00002010B5FDF719F904460C48008874
:102F5000401E00B20A4908800846B0F90000002867
:102F60000ADC002008802046FDF70CF905480068BF
:102F700028B100F077FC02E02046FDF703F910BD10
:102F8000FC0000200001002070B5054605B970BDA9
:102F90001D480068854203D31C480068854200D361
:102FA000F5E7A5F10C044FF0FF31194800F04AFD98
:102FB000608818B12088B0F5F55F08D015A000F042
:102FC00057FA23886288214619A000F051FA0020A0
:102FD00060804FF4F550208021480068844201D27F
:102FE0001F480460084960680968611A401A1D4951
:102FF0000968081A1B4908602046FFF779FB044856
:1030000000F0F7FC00BFC2E7800000208400002031
:10301000E01B0020746F206672656520612062618C
:1030200064206461746120626C6F636B3A0A000013
:103030006D656D3A203078253038782C20757365B1
:103040006420666C61673A2025642C206D61676995
:103050006320636F64653A203078253034780A0045
:10306000880000209000002000487047001D0020CC
:10307000004870470041002070B5FEF7FBF8124889
:1030800000684FF47A71B0FBF1F42046FEF794FE2D
:103090004FF4A060FDF77EFF0C48FEF76BFBFDF7D9
:1030A00069FCFFF7FFF840F2E7315F2001F08CFB8D
:1030B000FFF71CFFFFF7DCFF0446FFF7D5FF0546CF
:1030C000214600F06BFD70BD0000002020A107002C
:1030D00010B50446FFF726FF19E020780A280AD128
:1030E00000BF80210D48FEF7BEFA0028F9D00D215F
:1030F0000A48FEF7C0FA00BF80210848FEF7B3FA7D
:103100000028F9D014F8011B0448FEF7B4FA20781F
:103110000028E2D1FFF716FF10BD00000038014083
:1031200070B505462C1D2E48006838B128462C493C
:1031300009688847064606B970BD00BF29A0E16B43
:1031400000F096F92BA0216A00F092F92DA0616A97
:1031500000F08EF92FA0A16A00F08AF931A0E16A8F
:1031600000F086F933A0216800F082F935A061688B
:1031700000F07EF937A0A16800F07AF939A0E16883
:1031800000F076F93BA0216900F072F93DA0616979
:1031900000F06EF93FA0A16900F06AF941A0E16971
:1031A00000F066F943A0216B00F062F945A0616B65
:1031B00000F05EF947A0A16B00F05AF9287800F002
:1031C000040038B100F098FE0646314645A000F0F4
:1031D0004FF902E04BA000F04BF900BFFEE7000002
:1031E000740000207073723A203078253038780AE5
:1031F000000000007230303A203078253038780AEC
:10320000000000007230313A203078253038780ADA
:10321000000000007230323A203078253038780AC9
:10322000000000007230333A203078253038780AB8
:10323000000000007230343A203078253038780AA7
:10324000000000007230353A203078253038780A96
:10325000000000007230363A203078253038780A85
:10326000000000007230373A203078253038780A74
:10327000000000007230383A203078253038780A63
:10328000000000007230393A203078253038780A52
:10329000000000007231303A203078253038780A4A
:1032A000000000007231313A203078253038780A39
:1032B000000000007231323A203078253038780A28
:1032C00000000000206C723A203078253038780AEF
:1032D000000000002070633A203078253038780AEA
:1032E0000000000068617264206661756C74206F74
:1032F0006E207468726561643A2025730D0A0D0AA8
:103300000000000068617264206661756C74206F53
:103310006E2068616E646C65720D0A0D0A00000013
:10332000F0B504460D461646301D20F00700403823
:103330000146002203E00C4F41F82270521C102A73
:10334000F9D30D624FF0000CC1F824C0C1F828C0B9
:10335000C1F82CC0C1F830C04B638C634FF0807C47
:10336000C1F83CC0F0BD0000EFBEADDE10B5FCF70B
:1033700005FF044604480078401C034908702046B5
:10338000FCF700FF10BD00007C00002010B5FCF72A
:10339000F5FE044604480078401E034908702046A4
:1033A000FCF7F0FE10BD00007C00002070B5044664
:1033B0002068A0F11405284600F080FD002070BDB3
:1033C00070B505460EE0FCF7D9FE06462868A0F168
:1033D00014044FF0FF302063204600F06FFD3046AC
:1033E000FCF7D0FE284600F080F80028EBD0002043
:1033F00070BD2DE9F04105460C469046204600F090
:10340000B9FDB8F1000F03D0B8F1010F23D105E0E9
:1034100004F11401284600F061F81DE02E680FE069
:10342000A6F1140794F8350097F83510884206DAAB
:1034300004F1140107F1140000F050F802E03668BE
:10344000AE42EDD100BFAE4204D104F114012846D2
:1034500000F044F800E000BF00BF0020BDE8F081AC
:1034600010B5044604F1140000F01AF8002010BD55
:103470000FB438B505A80090FF210848009B049AB6
:1034800000F036FF0446FF2C00D9FF240348FFF765
:103490001FFE0020009038BC5DF814FBE01A0020ED
:1034A00040600060704740600060704740600060AE
:1034B00070470268516002680A60016048607047A6
:1034C0000268516002680A600160486070470268E3
:1034D000516002680A60016048607047426811608C
:1034E00042684A6041600860704701460868884247
:1034F00001D1012070470020FCE70146086888429E
:1035000001D1012070470020FCE7D0E90021516083
:10351000D0E900121160406000607047D0E90021DE
:103520005160D0E900121160406000607047D0E93E
:1035300000215160D0E900121160406000607047C6
:103540002DE9F041054615B90020BDE8F081E81CE1
:1035500020F003054E480068854201D90020F4E7B9
:103560000C2D00D20C254FF0FF314A4800F06AFACA
:103570004948006849490968461A7EE0474800689A
:1035800084196088002874D106F10C006168081A5B
:10359000A8426ED306F10C006168091A05F1180003
:1035A000814230D306F10C0000EB05083B4800686F
:1035B00000EB08074FF4F5503880002078806068F1
:1035C0007860BE60C4F8048001206080304879686B
:1035D00000680C30814205D0304978680968084499
:1035E000C0F808802E48016805F10C0008442C49F9
:1035F00008602C4800680968884219D22848006889
:103600002849086014E00120608024496068096846
:10361000611A401A22490968084421490860214872
:1036200000680968884203D21D4800681D49086087
:103630004FF4F550208018480068844212D107E00A
:10364000154800684068154909680844124908602F
:1036500011480068408828B10F480068124909687D
:103660008842EDD10B4800F0C4F904F10C006CE77E
:10367000FFE70A4800683044466805480068401B78
:10368000B0423FF67BAF034800F0B3F900205CE79F
:103690008C000020E01B002088000020800000201B
:1036A000900000209400002084000020F0B50D461A
:1036B000144601462A46914202D916198E4209D271
:1036C00003E012F8016B01F8016B261EA4F101045E
:1036D000F7D107E0234603E05E1E975D8F555B1E22
:1036E000002BF9D1F0BD30B5034601E003F8011B12
:1036F000141EA2F10102F9D130BD70B505460E4687
:103700002946032000F012F804460CB9204670BD8B
:103710002046FFF7A5FE0120A08300202062FF20A5
:10372000A0770020E07766722046F0E72DE9F041AF
:1037300006460F46304600F045F80546E868FFF7B4
:10374000FFFE044614B90020BDE8F08100212046A8
:10375000EA68FFF7C8FF2672002060720822394627
:10376000204600F001FAFCF709FD804604F10C0147
:10377000281DFFF79EFE4046FCF704FD2046E3E7C8
:1037800070B5044600202072FCF7F8FC054604F1F1
:103790000C00FFF7BAFE2846FCF7F4FC2046FFF7C2
:1037A000F3FB70BD70B5044600202072FCF7E6FC08
:1037B000054604F10C00FFF7A8FE2846FCF7E2FCE2
:1037C00070BD0000024600210AE0074800EB01102E
:1037D0000078904203D1044800EB01107047491C67
:1037E0000629F2DB0020F9E7980000202DE9F047D8
:1037F00004460D46904600262846FFF7E3FF07469D
:10380000FFF790FB7E6802E0A6F10C003668381DD9
:103810008642F9D1FFF796FB45F08000207208221E
:103820004146204600F0A0F9FCF7A8FC814604F1CF
:103830000C01381DFFF73DFE4846FCF7A3FCBDE830
:10384000F0870146087A00F0800008B10120704737
:103850000020FCE710B5FFF789FD00F0F5FBFFF74E
:1038600095FD10BD2DE9F041FCF788FC074618488E
:10387000008838BB17480068FEF7B6FA461E16489F
:1038800050F83600A0F1140414480068844218D09F
:1038900013490E701148056804601248007850B949
:1038A00004F11C0105F11C00FCF76FFC3846FCF725
:1038B00069FCBDE8F08104F11C0105F11C00FCF776
:1038C00064FC00BF3846FCF75DFC00BFF1E7000078
:1038D000FC000020F8000020001C00200001002057
:1038E000040100207C00002070B50446FCF746FC73
:1038F000054614F8340F20F00F0040F0010020704E
:103900006278343C0A4B03EBC20004F114014268B4
:10391000116042684A604160086000BF0549A06BC1
:1039200009680843034908602846FCF72BFC70BD72
:10393000001C0020F800002070B50446FCF71EFCB7
:10394000054604F11400D0E900215160D0E90012CD
:1039500011604060006000BF94F83510094A02EB26
:10396000C1000168814201D1012100E0002129B19B
:103970000548A16B00688843034908602846FCF7A6
:1039800001FC70BD001C0020F80000202DE9F04172
:1039900005460E46174629460220FFF7C7FE044695
:1039A00014B92046BDE8F0812046FFF759FDA683F3
:1039B00067722046F6E710B5044604F11400FFF7DD
:1039C000FFFC2046FFF7DCFE002010BD2DE9F04192
:1039D00004460D4616461F462A4602212046FFF79A
:1039E00005FF2046FFF73CFDA68367720020BDE877
:1039F000F08170B504460025FCF7C0FB064604F1D3
:103A00001400FFF772FD28B904F11400FFF7CEFC93
:103A100001250EE0A08B4FF6FF71884203DAA08BE0
:103A2000401CA08305E03046FCF7ACFB6FF00200C1
:103A300070BD3046FCF7A6FB012D01D1FFF712FF48
:103A40000020F5E773B50546FCF798FB0646A88B02
:103A5000002806DDA88B401EA8833046FCF792FBA9
:103A600028E0019828B93046FCF78CFB6FF0010084
:103A70007CBD00F041FA0446002020636A7A2146AA
:103A800005F11400FFF7B5FC0198002809DD01AA33
:103A9000002104F1440000F041FB04F1440000F077
:103AA00099FB3046FCF76EFBFFF7DCFE206B08B19C
:103AB000206BDDE70020DBE708B509A0FFF7D8FCA5
:103AC0000AA0FFF7D5FC12A00523012203210090D4
:103AD00012A0FFF7CDFC19A0FFF7CAFC08BD00003B
:103AE0000A205C207C202F0A000000002D20525468
:103AF000202D2020202020546872656164204F70A2
:103B000065726174696E672053797374656D0A001C
:103B1000446563203236203230323200202F207C40
:103B2000205C202020202025642E25642E25642062
:103B30006275696C642025730A0000002032303001
:103B400036202D203230323020436F707972696711
:103B500068742062792072742D74687265616420C3
:103B60007465616D0A00000070B50346A2B1184685
:103B70000C4600BF14F8016B00F8016B3EB902E07F
:103B8000002500F8015B551E2A1EF9D102E0551EE2
:103B90002A1EEFD100BF00BF184670BD2DE9F041CD
:103BA00005460E46E81C20F0030726F00308B8F18E
:103BB000180F09D9A8F11800B84205D3A8EB0700DF
:103BC00018381E49086006E0324629461CA0FFF757
:103BD0004FFCBDE8F0812948076004684FF4F550B8
:103BE0002080164800680C3060600020A060608073
:103BF0002249606809680844214908604FF4F5507B
:103C00000968088001201E49096848800B4800683F
:103C10000C301B4909684860084800680C30184996
:103C2000096888600023012216A11848FFF7CEFE1C
:103C3000124800681649086000BFCAE78C000020DF
:103C40006D656D20696E69742C206572726F7220CB
:103C5000626567696E206164647265737320307891
:103C600025782C20616E6420656E64206164647226
:103C700065737320307825780A00000080000020EA
:103C8000840000206865617000000000E01B0020D7
:103C90008800002010B500200B490880002405E0B2
:103CA0000A4901EBC400FFF7FEFB641C202CF7DB84
:103CB0001F2007490870002006490860064908606F
:103CC0000648FFF7F0FB10BDFC000020001C0020A0
:103CD0000401002000010020F8000020080100205D
:103CE00070B508480068FEF77FF8451E064850F892
:103CF0003500A0F114040548046004F11C00FCF731
:103D000072FA70BDF8000020001C002000010020A5
:103D100010B5002405E0044901EBC400FFF7C6FB21
:103D2000641C002CF7D010BD1001002070472DE955
:103D3000FF5F06460F4690461D46DDE90EAB314655
:103D40000120FFF7F3FC8146B9F1000F03D10020F9
:103D500004B0BDE8F09F2846FFF7F2FB044624B903
:103D60004846FFF70DFD0020F2E743463A4631464C
:103D700048468DE8300CFEF76DF84846E8E710B588
:103D80000446204600F0BEF810BD000070B5134890
:103D90000468FCF7F3F905462046FEF7CCF8204608
:103DA000FFF7CAFD042084F8340004F1440000F059
:103DB000E6F92046FFF745FD012803D12046FFF72D
:103DC000F1FC04E004F114010548FFF779FBFFF76B
:103DD00049FD2846FCF7D6F970BD0000000100201F
:103DE0000801002001E000F001F8FCE770B528E0D0
:103DF000FCF7C4F9054600BF13480168814201D0B1
:103E0000012100E0002119B92846FCF7BBF919E0AF
:103E10000D480068A0F1140404F11400D0E9002159
:103E20005160D0E9001211604060006000BFA06ADC
:103E3000FFF7AAF82046FFF7A3FC2846FCF7A2F9F3
:103E400000BFD5E700BF70BD080100201FB52020CE
:103E50001F21C200074BCDE90032CDE9021000233B
:103E6000054A06A1074800F00FF8064800F06CF874
:103E70001FBD0000E0190020E53D00087469646C76
:103E800065000000681900202DE9FF5F05460C461B
:103E900016461F46DDE910ABDDE90E8922460121F9
:103EA0002846FFF7A3FC3B463246214628468DE8CC
:103EB000000FFDF7CFFF04B0BDE8F09F70B50446DA
:103EC00094F8340000F00F00022802D04FF0FF30C9
:103ED00070BDFCF753F9054604F11400FFF71EFB13
:103EE00004F1440000F0ECF92846FCF74BF92046B9
:103EF000FFF7FAFC0020EBE701480068704700007C
:103F00000001002031B5FCF739F905460D48046879
:103F1000204600F02FF86A46002104F1440000F02A
:103F2000FDF804F1440000F055F92846FCF72AF9A1
:103F3000FFF798FC206B801C08B90020206300204C
:103F400038BD00000001002010B504463434A078CC
:103F500060706178012088406060022004F83409B4
:103F60002046FFF7ABFFFFF7C7FF08B1FFF77AFC6A
:103F7000002010BD70B5044694F8340000F00F0026
:103F8000012802D04FF0FF3070BDFCF7F7F805466E
:103F90002046FFF7D1FC94F8340020F00F0040F0E9
:103FA000020084F8340004F1440000F089F9284646
:103FB000FCF7E8F80020E7E770B5044625466FF007
:103FC0000100286305F11400FFF7A8FA2846FFF75F
:103FD0008BFCFFF747FC70BD70B5FCF7CFF80546CA
:103FE0001448046894F8340000F00F0001281CD134
:103FF000D4E90510814218D004F11400FFF78EFABD
:1040000094F835200C4B03EBC20004F11401426814
:10401000116042684A604160086000BF2846FCF7B2
:10402000B1F8FFF71FFC002070BD2846FCF7AAF886
:104030000020F9E700010020001C00200148006872
:10404000704700007800002010B50A480068401C46
:1040500008490860FFF750FF0446206C401E2064AA
:10406000206C18B9E06B2064FFF7B6FF00F004F88D
:1040700010BD0000780000207CB56846FFF716FAF6
:10408000FFF7DCFF0546FCF779F806463AE02248E0
:104090000068A0F11404A06A281A6FF00041884259
:1040A0002ED22046FDF739FF607A00F0020018B9E1
:1040B000607A20F00100607204F114016846FFF795
:1040C00006FAD4E907108847FFF7B8FF05466846A7
:1040D000FFF713FA00B115E004F11400FFF727FA17
:1040E000607A00F0020060B1607A00F0010040B137
:1040F000607A20F001006072204600F06BF800E06A
:1041000005E000BF0448FFF7F8F90028BFD000BF62
:104110003046FCF737F87CBD100100202DE9F04156
:1041200004460E461546FCF729F80746052E1ED212
:10413000DFE806F00603090E1300606A286017E046
:104140002868606214E0607A20F0020060720FE07C
:10415000607A40F0020060720AE0607A00F00100CC
:1041600010B10120286001E00020286000E000BFBD
:1041700000BF3846FCF706F80020BDE8F08170B5B6
:104180000446FBF7FBFF05462046FDF7C6FE607AB6
:1041900020F0010060722846FBF7F4FF2046FFF78D
:1041A00001FB002070BD2DE9F84307460C4615467B
:1041B0001E46DDE9088922460A213846FFF716FB2C
:1041C0004346324629463846CDF80090FDF784FE36
:1041D000BDE8F8832DE9F8430546FBF7CFFF80469D
:1041E0002846FDF79AFE687A20F001006872FFF712
:1041F00025FF696A0844A8622F4F009700242AE02F
:1042000019E05DF824201168142202EBC402881A18
:10421000826AAB6AD21A00D108E0826AAB6AD21A0B
:104220006FF000439A4200D20CE000BF5DF824001A
:1042300000684DF824005DF8240007EBC4014968CC
:104240008842DED100BF2CB15DF824000830611C2B
:104250004DF82100641C002CD2D018480068401C86
:10426000164908600846066805F114010098FFF732
:104270002EF9022412E006F0030060B9C4F1010334
:1042800005F1140202EBC301C4F101025DF8220042
:10429000FFF71DF900E003E0B608641C012CEAD921
:1042A00000BF687A40F0010068724046FBF76AFF81
:1042B0000020BDE8F8830000100100201801002054
:1042C00070B50446607A00F0010010B94FF0FF307D
:1042D00070BDFBF753FF05462046FDF71EFE607AD2
:1042E00020F0010060722846FBF74CFF0020EFE74A
:1042F0002DE9FF4F89B081464C460A9809EB00062C
:104300004E4504D24FF0FF36A6EB09000A9077E144
:104310000B980078252806D0B44202D20B9800787A
:104320002070641C69E1002526E00B98401C0B906E
:104330000B9800782D2802D145F010051CE00B9851
:1043400000782B2802D145F0040515E00B98007881
:10435000202802D145F008050EE00B9800782328AC
:1043600002D145F0200507E00B980078302802D1F3
:1043700045F0010500E000E0D7E700BF4FF0FF3750
:104380000B98007830380A2804D20BA800F06DF999
:1043900007460EE00B9800782A280AD10B98401C9B
:1043A0000B900C9880C80C90002F02DA7F4245F0E9
:1043B00010054FF0FF3A0B9800782E281CD10B986F
:1043C000401C0B900B98007830380A2804D20BA8B8
:1043D00000F04BF982460AE00B9800782A2806D1B3
:1043E0000B98401C0B900C9850F804AB0C90BAF151
:1043F000000F01DA4FF0000A002004900B980078BB
:10440000682803D00B9800786C2805D10B980078A9
:1044100004900B98401C0B900A2005900B98007894
:104420006F2873D00CDC632813D004DC25286ED0F1
:1044300058286DD195E064286BD06928F9D197E0B0
:10444000702873D0732825D075286ED07828F0D1C5
:104450008AE005F0100040B904E0B44201D2202007
:104460002070641C781E071EF7DC0C9810F8041BE3
:104470000C90C8B20790B44201D207982070641C17
:1044800004E0B44201D220202070641C781E071E74
:10449000F7DCB2E00C98006806900C98001D0C90B8
:1044A000069808B960A006904FF0000801E008F1F6
:1044B0000108B84504D0069810F808000028F6D185
:1044C000BAF1000F02DDD04500DDD04605F0100046
:1044D00048B904E0B44201D220202070641C384660
:1044E0007F1E4045F6DC002008900BE0B44202D26B
:1044F000069800782070641C0698401C0690089866
:10450000401C089008984045F0DB09E026E01FE0D9
:1045100032E02CE00AE0B44201D220202070641C7A
:1045200038467F1E4045F6DC67E024E0781C10B971
:10453000082745F00105CDE9007A02950C9804C8DA
:10454000102331460C902046FEF70EF9044654E045
:10455000B44201D225202070641C4EE00820059052
:104560001DE045F0400500BF1020059017E000BF9A
:1045700045F0020500BF12E0B44201D225202070B0
:10458000641C0B98007830B1B44202D20B980078CA
:104590002070641C02E00B98401E0B902DE000BFC1
:1045A00004986C2807D10C9850F804BB0C9005F0C7
:1045B0000200B8B116E0049868280BD10C9830F8C6
:1045C000041B1FFA81FB0C9005F0020050B10FFA9A
:1045D0008BFB07E00C9850F804BB0C9005F0020030
:1045E00000B100BFCDE9007A02955A463146204617
:1045F000059BFEF7B9F8044600BF0B98401C0B90D2
:104600000B98007800287FF483AE0A9838B1B44242
:1046100002D20020207002E0002006F8010CA4EB7A
:1046200009000DB0BDE8F08F284E554C4C29000014
:10463000002070470020704700207047002070471E
:1046400010B5FBF79BFDFEF717FDFFF735FAFFF7F7
:104650005FFBFFF71FFBFEF731FCFFF767FBFFF780
:10466000F5FBFFF73DFB002010BD0146002009E0EF
:104670000B685A1C0A601A7800EB800302EB4302B5
:10468000A2F130000A681278303A0A2AF0D3704753
:1046900010B500200349086002482438FCF7BBFE2F
:1046A00010BD0000242C014010B514491448FCF73B
:1046B000A7FF002211462620FCF776FC9621114820
:1046C000FCF71FFB0F48FCF730FB012211460E4898
:1046D000FCF757FC012202210B48FCF752FC012297
:1046E00011020948FCF74DFC03200849096888833A
:1046F000002007490865486510BD0000300001052D
:10470000004400406C000240000801402C000020E2
:10471000A416002010B5002240210248FCF731FC0D
:1047200010BD0000000C014010B50248FCF76EFE01
:1047300010BD0000002C014010B51D491D48FCF7BC
:104740003FFF1D48FCF7ECFA4FF48010FCF79CFA91
:1047500000224FF480711948FCF713FC002201215C
:104760001648FCF70EFC00201549C1F89401C1F869
:10477000900100211248C0F83013C0F82C13C0F883
:10478000CC14C0F8C814C0F86816C0F86416C0F895
:104790000418C0F8001800200A4988718870087150
:1047A00008728872C871C87048714872C87210BDAA
:1047B00030000105004400406C0002400008014048
:1047C000A40C0020980C00207CB505460C464FF444
:1047D0000060FCF759FC00208DF801008DF8000006
:1047E000ADF80450ADF802408DF806006946064861
:1047F000FCF7C6FD01210448FCF713FE012200214D
:104800001920FCF7D1FB7CBD002C014008B568469F
:10481000FCF7A6FB44F20400FCF736FC88208DF878
:1048200003004FF40070ADF8000003208DF8020083
:1048300069461448FCF747FB69461248FCF743FBFE
:104840004FF48060ADF8000004208DF80300694645
:104850000C48FCF738FB4FF48040FCF715FC0A4885
:104860000A4908600C20887200200881C88088806E
:1048700088810748FCF75CFE0548FCF7B6FE00207F
:1048800008BD00000008014020A1070000410020F1
:104890000038014070B504460D46194890F8DE0511
:1048A00098B91848FCF73CFA2A4621461648FEF704
:1048B000FDFE29461348FCF724FA1248FCF735FAA6
:1048C00001200F4981F8DE0519E00D4991F8DD1549
:1048D000C1EB011101EB8101094A02EB41002A46BB
:1048E0002146FEF7E3FE064890F8DD05401C0A214C
:1048F00090FBF1F201FB1200014981F8DD0570BD6A
:10490000B8060020800002403403002000000100AF
:104910000200010003000100020001000400010088
:104920000200010003000100020001000500010077
:104930000200010003000100020001000400010068
:104940000200010003000100020001000600010056
:104950000200010003000100020001000400010048
:104960000200010003000100020001000500010037
:104970000200010003000100020001000400010028
:104980000200010003000100020001000700010015
:104990000200010003000100020001000400010008
:1049A00002000100030001000200010005000100F7
:1049B00002000100030001000200010004000100E8
:1049C00002000100030001000200010006000100D6
:1049D00002000100030001000200010004000100C8
:1049E00002000100030001000200010005000100B7
:1049F00002000100030001000200010004000100A8
:104A000002000100030001000200010030313233D6
:104A10003435363738396162636465660030313267
:104A20003334353637383941424344454600000077
:104A30003D460008354600080D480008314600088C
:104A400039460008644A0008000000201C010000EC
:104A5000341E0008804B00081C010020F4430000B5
:104A6000441E000800D8B80500000000EFFA040159
:104A700006EFFA0501200000000000000000000021
:104A80000000000000000000000000000000000026
:104A90000000000000000000000000000000000016
:104AA0000000000000000000000000000000000006
:104AB00000000000000000000000000000000000F6
:104AC00000000000000000000000000000000000E6
:104AD00000000000000000000000000000000000D6
:104AE00000000000000000000000000000000000C6
:104AF00000000000000000000000000001000000B5
:104B00009C0000209C0000207800000002000000B3
:104B1000AC000020AC0000202000000003000000DA
:104B2000BC000020BC0000202400000005000000A4
:104B3000CC000020CC000020300000000600000067
:104B4000DC000020DC0000203C0000000A00000027
:104B5000EC000020EC0000202C0000000000000011
:104B60000000000000000000000000000000000045
:104B70000000000000000000000000000000000035
:0400000508000145A9
:00000001FF
