:020000040800F2
:10000000184E0020590100083D1000082102000888
:100010003910000819030008391A00080000000010
:10002000000000000000000000000000DF130008D6
:10003000F10E000800000000AB01000845140008A4
:1000400073010008730100087301000873010008C0
:1000500073010008730100087301000873010008B0
:1000600073010008730100087301000873010008A0
:10007000010C0008730100087301000873010008F7
:1000800073010008150C00087301000855190008D9
:10009000CD190008730100087301000873010008FE
:1000A00073010008FD1500087301000873010008C2
:1000B0003516000873010008730100087301000879
:1000C0007301000873010008730100087301000840
:1000D000730100087301000839170008A117000810
:1000E0007301000873010008730100087301000820
:1000F0007301000873010008730100087301000810
:1001000073010008730100087301000873010008FF
:1001100073010008730100087301000873010008EF
:1001200073010008730100087301000873010008DF
:10013000000000007301000873010008730100084B
:1001400073010008DFF80CD000F0A4F80048004765
:100150000F030008184E0020064880470648004755
:10016000FEE7FEE7FEE7FEE7FEE7FEE7FEE7FEE767
:10017000FEE7FEE79D15000845010008EFF310803B
:1001800072B6704780F310887047324A1368012BAB
:1001900004D04FF0010313602F4A10602F4A116002
:1001A0002F484FF0805101607047EFF3108272B614
:1001B0002848016891B14FF00001016026480168AC
:1001C00029B1EFF3098121E9F00F006801602349AB
:1001D00009680968B1E8F00F81F3098882F3108893
:1001E0004EF0040E70471D4908601B494FF0000097
:1001F000086018494FF0010008601A481A49D0F801
:10020000002041EA0201016015484FF08051016071
:1002100016480068006880F3088861B662B67047C7
:100220001EF0040F0CBFEFF30880EFF3098020E904
:10023000F00F40F804ED1EF0040F0CBF80F30888A7
:1002400080F3098800B503F02DFC5DF804EB4EF057
:10025000040E7047B4000020AC000020B000002065
:1002600004ED00E020ED00E00000FFFF08ED00E0FD
:10027000D2B201E000F8012B491EFBD270470022E8
:10028000F6E710B513460A4604461946FFF7F0FF95
:10029000204610BD064C074D06E0E06840F0010323
:1002A00094E8070098471034AC42F6D3FFF74EFFAE
:1002B00098680008B868000870B58C1810F8015BE1
:1002C00015F0070301D110F8013B2A1106D110F8EF
:1002D000012B03E010F8016B01F8016B5B1EF9D1F3
:1002E0002B0705D40023521E0DD401F8013BFAE779
:1002F00010F8013BCB1A921C03E013F8015B01F8E4
:10030000015B521EF9D5A142D8D3002070BD10B5B3
:1003100004F03EFE002010BD00BFFEE7B1F5007FF7
:100320005ED00FDC20293DD006DC01291CD0042939
:100330002CD0082975D12FE0402939D0B1F5807F24
:100340006FD147E0B1F5004F60D006DCB1F5806FAA
:100350004CD0B1F5006F64D14EE0B1F5803F2DD0A7
:10036000B1F5003F5DD12FE0826822F00102521CFE
:100370008260826822F4807202F5807282608268F4
:1003800022F4803202F5803282604BE0C26822F0B3
:1003900008020832C26045E0C26822F01002103242
:1003A000C2603FE0026922F008020832026139E0CF
:1003B000026922F010021032026133E0426822F03A
:1003C0000802083242602DE0426822F0100210322A
:1003D000426027E0426822F00402121D426021E0E0
:1003E000426822F00402121D42601BE0426822F0C3
:1003F0000402121D426015E0826922F070028261DF
:10040000426822F00402121D42600BE0826922F071
:1004100070028261426822F00402121D426001E013
:10042000FFE700BF00BF704730B502460020002341
:10043000146824F002041460146824F00104641C9D
:10044000146000E05B1C546804F001041CB94FF612
:10045000FF74A342F6D1546804F001040CB90020E3
:1004600074E00C78012C05D1146824F04004403469
:10047000146003E0146824F0400414604C78012CEC
:1004800005D1146824F020042034146003E01468BB
:1004900024F0200414608C78012C05D1146824F019
:1004A00010041034146003E0146824F01004146085
:1004B000CC78012C05D1146824F0080408341460A9
:1004C00003E0146824F0080414600C79012C05D1B1
:1004D000146824F00404241D146003E0146824F05C
:1004E00004041460D46924F04044D461D4694D7983
:1004F00044EA8574D4618D79D46965F31964D46153
:10050000CD79D46965F31344D4610D7AD46965F368
:100510001654D4614C89641ED56964F30905D5610C
:10052000146824F001041460002300E05B1C54688C
:1005300004F001041CB14FF6FF74A342F6D15468D5
:1005400004F001040CB1002000E0012030BD10B522
:10055000D0F8002222F00102521CC0F80022D0F88C
:100560001C220C780123A3409A43C0F81C228A7BEA
:10057000D2B9D0F80C220C780123A3409A43C0F8DA
:100580000C228A880B8942EA03430C7800F510722A
:1005900042F834304A88CB8842EA03430C7800F5AD
:1005A000107202EBC40253608A7B012A1AD1D0F880
:1005B0000C220C780123A3401A43C0F80C228A882D
:1005C0004B8842EA03430C7800F5107242F834304D
:1005D0000A89CB8842EA03430C7800F5107202EBDB
:1005E000C40253604A7B42B9D0F804220C7801233C
:1005F000A3409A43C0F8042207E0D0F804220C7804
:100600000123A3401A43C0F804220A7B3AB9D0F868
:1006100014220C780123A3409A43C0F814220A7BC9
:10062000012A07D1D0F814220C780123A3401A43E1
:10063000C0F814224A89012A07D1D0F81C220C786C
:100640000123A3401A43C0F81C22D0F8002222F054
:100650000102C0F8002210BD0021017041708170BC
:10066000C1700171417181710321C1710221017257
:1006700001214181704742698A4342617047426962
:100680000A43426170470246002053690B40002B29
:100690006CD0B1F5807F52D010DC082937D006DC51
:1006A000012920D002292AD004295CD12BE010296D
:1006B00031D0202933D0402955D134E0B1F5004F55
:1006C0004DD009DCB1F5007F3DD0B1F5806F3ED053
:1006D000B1F5006F47D13EE0B1F5803F27D0B1F5CD
:1006E000003F40D127E0936803F001009368C3F313
:1006F000002318439368C3F30043184335E0D368DD
:1007000003F0030031E0D368C3F3C0002DE0D368E9
:10071000C3F3001029E0136903F0030025E0136917
:10072000C3F3C00021E01369C3F300101DE0536858
:10073000C3F3C00019E05368C3F3001015E09369D8
:1007400003F0010011E09369C3F340000DE09369E9
:10075000C3F3800009E09369C3F3021005E0536816
:10076000C3F3800001E0002000BF00E000207047DC
:1007700010B504460B48844208D14FF0007000F0D9
:10078000FBFC4FF0007000F0DFFC0AE006488442FA
:1007900007D14FF0806000F0EFFC4FF0806000F078
:1007A000D3FC10BD006400400068004010B500F5A7
:1007B000D87303EB01131B6803F004039360936881
:1007C00053B900F5D87303EB01131B6840F2FF74B3
:1007D00004EA5353136009E000F5D87303EB0113E7
:1007E0001B686FF0604404EAD303536000F5D873CC
:1007F00003EB01131B68C3F34003D36000F5D87308
:1008000003EB01135B6803F00F03137400F5D87357
:1008100003EB01135B681B0A537600F5D87303EBF7
:1008200001139B68537400F5D87303EB01139B68A5
:100830001C0A947400F5D87303EB01139B681C0C1D
:10084000D47400F5D87303EB01139B681C0E147568
:1008500000F5D87303EB0113DB68537500F5D8730B
:1008600003EB0113DB681C0A947500F5D87303EBE6
:100870000113DB681C0CD47500F5D87303EB01136E
:10088000DB681C0E147629B9C36823F020032033DB
:10089000C36004E0036923F020032033036110BD2B
:1008A00010B502460023906800F08060B0F1806FC0
:1008B00000D111E0906800F00060B0F1006F01D14C
:1008C000012309E0906800F08050B0F1805F01D111
:1008D000022301E0032010BD02F5C07000EB0310FD
:1008E000006800F0010402F5C07000EB0310046022
:1008F000087A78B9487A0C8840EA445002F5C07406
:1009000004EB03142468204302F5C07404EB0314C1
:10091000206010E0087A4C6840EAC4004C7A20431A
:1009200002F5C07404EB03142468204302F5C0747C
:1009300004EB03142060887A00F00F00887202F53F
:10094000C07000EB0310406820F00F0402F5C07087
:1009500000EB0310446002F5C07000EB0310406828
:100960008C7A204302F5C07404EB03146060887B2A
:100970000406487B44EA0044087B44EA0020CC7A21
:10098000204302F5C07404EB0314A060887C0406C5
:10099000487C44EA0044087C44EA0020CC7B2043A5
:1009A00002F5C07404EB0314E06002F5C07000EBC4
:1009B0000310006840F0010402F5C07000EB031062
:1009C0000460184687E7000000B589B0042000F0F5
:1009D000DBFB4FF0007000F0C7FB4FF48050ADF828
:1009E000200088208DF8230003208DF8220008A91C
:1009F0002C4800F07EFA4FF40060ADF8200048204B
:100A00008DF8230003208DF8220008A9254800F066
:100A100070FA2548FFF7ACFE05A8FFF71DFE012080
:100A20008DF814008DF8150000208DF816008DF853
:100A300017008DF818008DF819008DF81A000A209B
:100A40008DF81B0002208DF81C002820ADF81E0038
:100A500005A91548FFF7E8FC00208DF804008DF883
:100A6000110001208DF812000020ADF80600ADF84D
:100A70000800ADF80A00ADF80C008DF81000012058
:100A8000ADF80E0001A90848FFF761FD0122002121
:100A9000132000F0DFFA01220021142000F0DAFA1E
:100AA00009B000BD000801400064004030B591B0BD
:100AB0000446002514216846FFF7E1FBFF208DF86E
:100AC0001C0055218DF81D1000218DF81E10207876
:100AD0008DF8380060788DF83900A0788DF83A00EC
:100AE0002079E17840EA0120C0B28DF83B006079BE
:100AF0008DF83C009DF83A000D2859D2DFE800F04F
:100B00005807090B0D0F14191E5052545600012599
:100B10004FE002254DE003254BE0042549E0052583
:100B200026A003F067F944E006252AA003F062F945
:100B30003FE007252CA003F05DF93AE09DF83B006B
:100B400000F0080018B101202C49887002E0002054
:100B50002A4988709DF83B0000F0040018B101207C
:100B60002649887202E00020244988729DF83B00E3
:100B700000F0020018B101202049087202E00020B4
:100B80001E4908729DF83B0000F0010018B10120D9
:100B90001A49887102E0002018498871082508E088
:100BA000092506E00A2504E00B2502E00C2500E0FB
:100BB00000BF00BF284611B030BD000072656376EB
:100BC000204475745F43616C6C5F417578206D7370
:100BD000670A0000726563762054616B655F446F3D
:100BE000776E206D736708007265637620527374A8
:100BF0005F436F6D6D206D7367080000DB0C002094
:100C000010B5202000F0B6F810B1202000F052F806
:100C100010BD000010B54FF0007000F0ABF8E0B36D
:100C2000214890F8DD05204991F8DC15884224D050
:100C30001E4800F08BF81C4890F8DC05C0EB001053
:100C400000EB8000184A02EB40017822184803F0BC
:100C5000EFF97821154800F06AF8144800F07BF8A5
:100C6000114890F8DC05401C0A2190FBF1F201FBD1
:100C700012000D4981F8DC050EE00B4890F8DD0507
:100C8000094991F8DC15884206D1084800F05EF861
:100C90000020054981F8DE0500E003E04FF0007018
:100CA00000F008F810BD0000FC06002080000240A3
:100CB0007803002000F0805111B10349086001E081
:100CC00002494860704700000404024000000240EE
:100CD0000B7A026863F3041202600B7D026863F30F
:100CE000451202600B7C026863F3861202604B7C43
:100CF000026863F3C71202608B7C026863F3092207
:100D00000260CB7C026863F38B2202604B7D026839
:100D100063F30D3202608B7D026863F38E320260F2
:100D2000CA6842600A6882604A68C260704741606F
:100D300070470021016041600172C160017441741B
:100D40008174C1740175417581757047016821F026
:100D5000010101607047016821F00101491C016037
:100D6000704702680A43026070470146486880B2D3
:100D700070470000014601F0805038B10748006814
:100D8000084008B1012070470020FCE704480068D3
:100D9000084008B10120F6E70020F4E70004024013
:100DA00000000240016821F00101016000210160A2
:100DB0004160C16081604C49884208D14A49083984
:100DC000496861F00F01484A083A51608AE0464993
:100DD0001431884208D144490839496861F0F0016A
:100DE000414A083A51607DE03F492831884208D1A4
:100DF0003D490839496861F470613B4A083A5160DD
:100E000070E039493C31884208D13749083949688E
:100E100061F47041344A083A516063E0324950311C
:100E2000884208D130490839496861F470212E4A56
:100E3000083A516056E02C496431884208D12A4969
:100E40000839496861F47001274A083A516049E05D
:100E500025497831884208D123490839496861F029
:100E60007061214A083A51603CE02049884206D12D
:100E7000011F096861F00F01021F116032E01B4978
:100E80001431884208D11949091F096861F0F0013D
:100E9000164A121F116025E014492831884208D1F2
:100EA0001249091F096861F47061104A121F11602C
:100EB00018E00E493C31884208D10C49091F0968E5
:100EC00061F47041094A121F11600BE0074950316B
:100ED000884207D10549091F096861F47021034A56
:100EE000121F116070470000080002400804024011
:100EF0007047F0B5CF7807F00F06CF7807F080077E
:100F00000FB18F783E430F78E7B1046800230122C8
:100F100015E00F8817407FB19D000F27AF40BC43FD
:100F200006FA05F73C43CF78282F01D1426103E050
:100F3000CF78482F00D102615F1CFBB25200082B12
:100F4000E7DB04600F8807F47F47F7B144680823A4
:100F50005A0117E00F8817408FB1A3F10807BD00B1
:100F60000F27AF40BC4306FA05F73C43CF78282F44
:100F700001D1426103E0CF78482F00D102615F1CAC
:100F8000FBB25200102BE5DB4460F0BD4FF6FF7161
:100F90000180022181700421C1707047024693686C
:100FA0000B400BB1012300E00023184670470146B7
:100FB000886880B2704741617047016170470AB12B
:100FC000016100E04161704770B50446002501F001
:100FD00097FDC4F3074000F010F8C4F3072000F0B9
:100FE0000CF804F0F80000F008F8002000F005F814
:100FF000054601F08AFD284670BD10B5044620461E
:1010000004F03CFD10BD70B504460D4601F078FDBE
:10101000C4F30740FFF7F1FFC4F30720FFF7EDFF2C
:1010200004F0F801091DC8B2FFF7E7FF2846FFF7F3
:10103000E4FF01F06AFD70BD00BFFEE770470000ED
:1010400002490143024A1160704700000000FA059E
:101050000CED00E02DE9F04305460F46904623488D
:10106000006800F4E069B9F5A06F13D006DCB9F5AB
:10107000407F15D0B9F5806F15D10EE0B9F5C06F7E
:1010800005D0B9F5E06F0ED10023042412E001234E
:1010900003240FE0022302240CE00323012409E0CF
:1010A0000423002406E04FF4E060FFF7C9FF0023AB
:1010B000042400BF00BFC3F10403C4F1040407FA11
:1010C00003F60F20204100EA0800064336010848D5
:1010D000465505F01F01012088406911890001F182
:1010E000E021C1F80001BDE8F08300000CED00E054
:1010F00000E400E010B5002401F0F4FA00F001046F
:101100009CB90AA002F076FE0AE001F0EBFA00F0CA
:1011100001040BA002F06EFE4FF4FA7003F0D7FA50
:10112000002CF2D007A002F065FE10BD200D0A20B1
:101130006368656E636B207068793F0D0A0000007C
:10114000202E0000200D0A00024909698143014A4E
:101150001161704700100240024949690143014A88
:1011600051617047001002400249C9690143014AB8
:10117000D161704700100240024909690143014AE8
:101180001161704700100240024989690143014A18
:1011900091617047001002407FB509A30FCB8DE825
:1011A0000F0000F03DF8064609484068C0F3031000
:1011B0001DF8004026FA04F5284604B070BD000072
:1011C00000000000000000000102030406070809F7
:1011D00000100240FCB504460D460EA103C9CDE93E
:1011E0000001FFF7D9FF074644B10C484068C0F33F
:1011F00002201DF8006027FA06F0206045B107487C
:101200004068C0F3C2201DF8006027FA06F028608D
:10121000FCBD0000000000000102030400100240B9
:10122000154B5B6803F0030020B1012804D00228AD
:101230001DD103E011481CE010481AE00E4B5B681A
:10124000C3F383439A1C0C4B5B68C3F3004151B159
:101250000A4B02FB03F0084B5B68C3F340438B422D
:1012600004D1400802E0064B02FB03F001E0034812
:1012700000BF00BF704700000010024000127A005B
:1012800000093D0030B50246002300201468052CFB
:101290002CD2DFE804F0030D17202500FF2904D12C
:1012A0001468641C1460117201E00024146030E0C2
:1012B000A52904D11468641C1460517201E0002453
:1012C000146026E021B91468641C1460917201E076
:1012D000002414601DE0D1721468641C146018E0CE
:1012E000117351601468641C146012E0546854B1A6
:1012F0001468641F02F10D0529551468641C1460FC
:101300005468641E5460546814B9002414600120A9
:1013100000BF00BF30BD000008B50420FFF734FF58
:10132000E020ADF8000088208DF8030001208DF842
:10133000020069460848FFF7DCFD1020ADF8000008
:1013400080208DF8030001208DF8020069460248D4
:10135000FFF7CFFD08BD000000080140026802F45D
:10136000415202604A890B881A434B881A434B79D1
:101370001A430B791A43CB881A430B7B1A430B7A17
:101380001A4303681A430260CA89026170470268FF
:1013900022F40062026002680A4302607047002182
:1013A00041810180418041710171C18001730172ED
:1013B0000721C1817047016821F04001403101607F
:1013C000704702469068084008B10120704700202D
:1013D000FCE70146C86880B27047C160704770473B
:1013E0001FB54FF48050FFF7CFFE6846FFF7D7FFD9
:1013F0000020ADF8020008208DF80C000020ADF8A8
:101400000A008DF808004FF48270ADF80000022049
:101410008DF805000002ADF8060001208DF80400EB
:101420000720ADF80E0069460548FFF797FF002139
:101430000348FFF7ACFF0248FFF7BDFF1FBD0000E8
:101440000030014010B502F0ADFE10BD08B53448C3
:10145000006820F4803000F58030314908600020B9
:10146000009008E02E480068C0F3404000B106E05C
:101470000098401C00900098B0F5A04FF2D300BF38
:1014800027480068C0F34040002848D0254800683D
:1014900020F010001030234908600846006820F052
:1014A0000700801C08601E48406820F0F0001C49BE
:1014B00048600846406820F460504860084640682C
:1014C00020F4E06000F5806048600846406820F441
:1014D000803000F5803048600846406820F4701085
:1014E00000F5E01048600846006820F0807000F1C8
:1014F0008070086000BF0A480068C0F340600028A0
:10150000F9D00748406820F00300801C0449486077
:1015100000BF03484068C0F381000228F9D108BD2C
:10152000001002400020024010B5FFF78FFF10BDF1
:10153000164B5B6803F0030020B1012804D0022899
:101540001DD103E012481CE011481AE00F4B5B6804
:10155000C3F383439A1C0D4B5B68C3F3004151B145
:101560000B4B02FB03F0094B5B68C3F340438B4218
:1015700004D1400802E0074B02FB03F001E00448FD
:1015800000BF00BF044B186070470000001002400D
:1015900000127A0000093D000000002010B5134839
:1015A000006820F00100401C1049086008464068AF
:1015B0000F4908400D494860084600680D49084039
:1015C0000A4908600846006820F480200860084640
:1015D000406820F4FE0048604FF41F008860FFF769
:1015E000A3FF4FF000600449086010BD00100240E6
:1015F0000000FFF8FFFFF6FE08ED00E010B5012146
:10160000094800F08EF801280DD10848007801281B
:1016100005D104F077FA0648006802F092FE012135
:10162000014800F025F810BD002C014030000020DA
:10163000340000200B480068401C0A490860084636
:101640000068B0F57A7F0BD3002008600648006878
:10165000401C0549086005480078401C0349087093
:10166000704700009C000020A0000020A400002083
:10167000CA4302617047000010B51B4B98420ED060
:101680001A4B98420BD0B0F1804F08D0184B9842BB
:1016900005D0184B984202D0174B984207D10368E7
:1016A0009AB240F28F331A400B781A430260134B00
:1016B000984207D0124B984204D04C78036864F3E8
:1016C000092303604B88C3628B888362064B984270
:1016D00002D0064B984201D18B790363436923F012
:1016E00001035B1C436110BD002C0140003401402C
:1016F0000004004000080040000C004000100040C2
:1017000000140040016821F0010101607047016888
:1017100021F00101491C01607047C2680A43C260A0
:10172000704702461069084020B1D068084008B1EF
:10173000012070470020FCE710B50024134914482D
:1017400000F0DCF880B11149114800F053F810485E
:10175000001D00684FF48010FFF7ACFA04F0AAF9FE
:1017600001200C49087010E00B49094800F0C6F848
:1017700058B901200949C1F8F8020749044800F0A6
:1017800039F80549024800F085F810BD1000010441
:10179000004400403000002020000105F40C00202F
:1017A00010B50B490B4800F0A9F880B10AA002F06F
:1017B00021FB0848001D006801200C4908700449FD
:1017C000044800F017F80A48006802F0BAFD10BD9E
:1017D00010000104004800405553415254335F4902
:1017E000525148616E646C65720A0000320000203C
:1017F0004C0000200A0E012303FA02F2036893430F
:10180000036070472DE9F84305460E46EC684EF636
:10181000F3100440B07A31890843B1880843044387
:10182000EC602C694CF6FF700440F08804432C6196
:101830006C694FF6FF400440B08904436C61144862
:10184000854204D169460020FFF7C4FC03E0002173
:101850006846FFF7BFFC009800EBC00101EB0010E9
:1018600031688900B0FBF1F86420B8FBF0F00401A6
:101870002009642101FB1087322000EB0710B0FB28
:10188000F1F000F00F000443AC60BDE8F883000005
:10189000003801408BB2DA4301F4803313B1C368DE
:1018A0001340C36001F4003313B1036913400361B3
:1018B00001F4802313B14369134043617047C16849
:1018C00021F4005101F50051C160704742690A439B
:1018D000426170478AB201F4803313B1C368134385
:1018E000C36001F4003313B103691343036101F4CE
:1018F000802313B1436913434361704710B5024617
:1019000001F4803018B1D068084083B209E001F4D6
:10191000003018B11069084083B202E050690840F5
:1019200083B20C0E012000FA04F41068044014B1D4
:101930000BB1012010BD0020FCE7024610680840F2
:1019400008B1012070470020FCE7426861F30802FB
:101950004260704710B501211A48FEF794FE012835
:101960002FD1194890F8C800174991F8C91088423A
:1019700017D0154890F8C90000EB8000124A02EB1E
:1019800080011048FEF78CFF0F4890F8C900401CFA
:101990000A2190FBF1F201FB12000B4981F8C9000A
:1019A0000BE0094890F8C800074991F8C91088422F
:1019B00003D101210348FEF75EFE01210148FEF735
:1019C000ADFC10BD006400406001002010B5022194
:1019D0001748FEF758FE012829D102211448FEF7C6
:1019E0009DFC144890F81801401C0A2190FBF1F26C
:1019F00001FB12000F4991F81911884217D00D48C8
:101A000090F81801C0EBC0000A4901EB80020021E8
:101A10000748FEF7CBFE074890F81801401C0A2142
:101A200090FBF1F201FB1200024981F8180110BD90
:101A3000006400402C02002000BFFEE710B58CB00F
:101A400004460420FFF7A0FB4FF40030FFF78CFBA7
:101A50000120FFF781FB88208DF81F000420ADF8DE
:101A60001C0003208DF81E0007A94148FFF741FA2A
:101A700004208DF81F000820ADF81C0007A93C4881
:101A8000FFF737FA08940C208DF82A000020ADF8F3
:101A90002800ADF82600ADF82400ADF82C0008A908
:101AA0003448FFF7AFFE3348FFF709FF3248FFF72E
:101AB00079F901A8FFF73DF92E48001D01902F4844
:101AC000029000208DF80C009620049000208DF8E4
:101AD000140001208DF8150000208DF816008DF8F7
:101AE00017008DF8180002208DF8190000208DF8DD
:101AF0001A0001A92048FFF7EBF81F481430FFF740
:101B000051F901A8FFF715F91A48001D01901C486A
:101B1000029001208DF80C009620049000208DF892
:101B2000140001208DF8150000208DF816008DF8A6
:101B300017008DF8180002208DF8190000208DF88C
:101B40001A0001A90C481430FFF7C2F8C021094857
:101B5000FFF7BCFE022108481430FFF702F900220B
:101B600001211120FFF776FA00200CB010BD000013
:101B700000080140004400406C0002400E040020B8
:101B80007803002010B58CB004460820FFF7FCFA5B
:101B90004FF48020FFF7E8FA0120FFF7DDFA8820F4
:101BA0008DF81F004FF48060ADF81C0003208DF805
:101BB0001E0007A94C48FFF79CF904208DF81F0070
:101BC0004002ADF81C0003208DF81E0007A946480E
:101BD000FFF78FF908940C208DF82A000020ADF84B
:101BE0002800ADF82600ADF82400ADF82C0008A9B7
:101BF0003E48FFF707FE3E493C48FFF76BFE0022D8
:101C000001212720FFF726FA3848FFF758FE394808
:101C1000FFF7C8F801A8FFF78CF83448001D0190C1
:101C20003548029000208DF80C009620049000208A
:101C30008DF8140001208DF8150000208DF8160095
:101C40008DF817008DF8180002208DF8190000207B
:101C50008DF81A0001A92748FFF73AF80221254814
:101C6000FFF77FF8002201210D20FFF7F3F921484B
:101C7000FFF771F81F481438FFF794F801A8FFF731
:101C800058F81A48001D01901C48029001208DF858
:101C90000C009620049000208DF8140001208DF88F
:101CA000150000208DF816008DF817008DF818002B
:101CB00002208DF8190000208DF81A0001A90D48A6
:101CC0001438FFF705F8C0210848FFF7FFFD02218F
:101CD00008481438FFF745F8002201210C20FFF7CF
:101CE000B9F900200CB010BD000C014000480040C4
:101CF0003000010530000240D00500203A050020E8
:101D00005FE04FF0FF312F48006802F043FB2E499F
:101D100008602EA002F06EF82B48006820B1294818
:101D2000006802F0F0FA4CE02D48FFF70FF82C485D
:101D3000FFF71BF8C0F196002A490870962200218F
:101D4000294802F092F9274802782849264802F0EB
:101D50006FF996220021254802F087F99621204844
:101D6000FEF7E5FF01211E48FEF7FBFF0120204999
:101D700008701C480078002823DD1E49D1F818118E
:101D8000C1EBC1011B4A02EBC10016490A78164992
:101D900002F04EF9134800781649D1F81811C1EB3A
:101DA000C101144A02EBC10148631046D0F8180182
:101DB000401C052190FBF1F201FB12000D49C1F816
:101DC00018019EE74C0000205C00002075736172D2
:101DD0007433205F207265637620627566660A0040
:101DE000300002403300002066060020D0050020AD
:101DF00032000020F40F0020A6B000BF00BF00BFDB
:101E000098216846FEF73BFAF2E04FF0FF3179483F
:101E1000006802F0BFFA784908600846006820B1FF
:101E20007448006802F06FFAE2E07448FEF79DFF24
:101E3000C0F19600724908707048FEF787FF4FF4B2
:101E40008010FEF737FF962200216E4802F00DF950
:101E50006B4802786C496B4802F0EAF896216748B3
:101E6000FEF765FF01216548FEF77BFF002067490B
:101E700008706348007878281EDB6549D1F8F012B5
:101E8000C1EB011101EB8101614A02EB41005C49A8
:101E90000A785C4902F0CCF85D48D0F8F002401CAA
:101EA000052190FBF1F201FB12005949C1F8F00243
:101EB00000BF0020C1F8F8025648D0F8F400554998
:101EC000D1F8F810884217D05249D1F8F810C1EB78
:101ED000C102C2EBC1114F4A8818782103F0A6FF56
:101EE0004C49D1F8F410481C00EBD0714910A0EB1C
:101EF0004101484AC2F8F4104648D0F8F411D0F82D
:101F0000F801814217D04349D1F8F811C1EBC10261
:101F1000C2EBC11240495018782103F087FF3D49B8
:101F2000D1F8F411481C00EBD0714910A0EB41022C
:101F30003849C1F8F4213748D0F8F412D0F8F80243
:101F4000814217D03349D1F8F812C1EBC102C2EB7C
:101F5000C11232495018782103F068FF2D49D1F899
:101F6000F412481C00EBD0714910A0EB4102294942
:101F7000C1F8F4222748D0F8F413D0F8F8038142CE
:101F800017D02449D1F8F813C1EBC102C2EBC1123A
:101F900023495018782103F049FF1E49D1F8F41362
:101FA000481C00EBD0714910A0EB41021949C1F85F
:101FB000F4231848D0F8F414D0F8F804814217D06C
:101FC0001449D1F8F814C1EBC102C2EBC112154992
:101FD0005018782103F02AFF0E49D1F8F414481C58
:101FE00000EBD0714910A0EB41020A49C1F8F4247A
:101FF0000BE7000034000020580000206C00024075
:1020000031000020A40400200E0400203000002035
:10201000F40C0020381D0020381E0020381F00203E
:1020200038200020382100200146481EB0F1807F72
:1020300001D301207047481E4FF0E0225061FF207D
:10204000044A107000204FF0E022906107201061D8
:102050000020EFE723ED00E0014609B900207047BA
:10206000C8B220B1C8B20E4A105C401CF7E701F4B8
:102070007F4028B10A48C1F30722805C0930EEE7AF
:1020800001F47F0028B10648C1F30742805C11309B
:10209000E5E7034800EB116000781930DFE7000046
:1020A0006067000802E008C8121F08C1002AFAD1C0
:1020B00070477047002001E001C1121F002AFBD1C8
:1020C000704700002DE9FC5F04468B4615461E460E
:1020D000DDE90C9ADDE90E7804F11400406000603F
:1020E00000BF1C346560A660C4F80C90C4F810A052
:1020F0002321D4E9030201F0B8FFD4E9033C63448F
:102100001A1F0F4BD4E9010101F0CCFD2060A77626
:1021100067760020E061C4F82080C4F82480606104
:1021200020766065A0651C3C00902346054A214648
:10213000019004F1440002F0DEFC0020BDE8FC9FA9
:10214000DD460008094900082DE9F04704460E461F
:1021500017469846DDF8209084F80990607A20F0C0
:1021600001006072E66127620020A062C4F824804A
:10217000002506E004F1140101EBC50001F058FE52
:102180006D1C012DF6DBBDE8F08770B50546002417
:1021900006E005F1140101EBC40001F08AFE641CA5
:1021A000012CF6DB70BD70B50446FDF7E7FF054670
:1021B000206F10B12046216F88472846FDF7E2FFC7
:1021C00070BD00001CB54FF4FA7002214B020022D2
:1021D000CDE900100C490DA002F051FA0D4908603C
:1021E0000846006838B10CA001F004FE09480068F8
:1021F00002F052FB05E011A001F0FCFD4FF0FF30B2
:102200001CBD00BFFCE70000093000086D795F6E5F
:1022100065740000A800002072745F7468726561C4
:10222000645F6D795F6E65745F7468726561642068
:10223000697320737563636573730A0072745F74E6
:1022400068726561645F6D795F6E65745F746872F2
:10225000656164206973206661696C650A0000002D
:102260001CB50022114612A002F038F8134908608C
:102270004FF47A7002214B020022CDE90010104980
:1022800010A002F0FCF9124908600846006838B155
:1022900010A001F0AFFD0E48006802F0FDFA05E065
:1022A00016A001F0A7FD4FF0FF301CBD00BFFCE7FA
:1022B0007573617274335F73656D00004C000020AC
:1022C000011D000875736172745F726563760000AA
:1022D0005000002072745F7468726561645F75738A
:1022E00061727433726563765F63726561746520D1
:1022F000697320737563636573730A0072745F7426
:1023000068726561645F7573617274337265637658
:102310005F637265617465206973206661696C65CD
:102320000A0000001CB50022114612A001F0D6FFE1
:10233000134908604FF47A7002214B020022CDE964
:102340000010104910A002F09AF9124908600846DE
:10235000006838B110A001F04DFD0E48006802F091
:102360009BFA05E016A001F045FD4FF0FF301CBDC3
:1023700000BFFCE775736172745F73656D000000E8
:1023800034000020F91D000875736172745F726576
:10239000637600003800002072745F7468726561B3
:1023A000645F7573617274726563765F6372656191
:1023B000746520697320737563636573730A000025
:1023C00072745F7468726561645F75736172747250
:1023D0006563765F63726561746520697320666109
:1023E000696C650A0000000010B504464FF4847162
:1023F00001EB44101021FEF706FE00BF4FF484717C
:1024000001EB4410FEF7E0FD0028F7D14FF4027114
:1024100001EB4410FF21FEF7F6FD10BDF8B50446B0
:102420000D4616462878FF2808D16878FF2805D180
:10243000A878FF2802D1E878FF2808D0287828B9A2
:10244000687818B9A87808B9E87800B10EB90027FB
:102450006CE00127297840F6084202EB4410FEF7B1
:10246000D2FD697840F6085202EB4410FEF7CBFD2E
:10247000A97840F6086202EB4410FEF7C4FDE97843
:1024800040F6087202EB4410FEF7BDFD310A41F23E
:10249000080202EB4410FEF7B6FDF1B241F2081259
:1024A00002EB4410FEF7AFFD4FF4847101EB4410D2
:1024B0000421FEF7A8FD00BF4FF4847101EB441026
:1024C000FEF782FD0028F7D127E0684600F022F9E8
:1024D0004FF4427101EB4410FEF776FD172800D14E
:1024E00023E0204600F049F900F0080040B14FF425
:1024F000027101EB44100821FEF785FD002714E06E
:102500009DF8000030B12CB121464FF4B850FEF7D1
:102510007AFD0AE00A2002F0DAF84FF4427101EB8A
:102520004410FEF751FD1528CFD100BF3846F8BD45
:1025300010B504464FF4847101EB44100821FEF7F6
:1025400062FD00BF4FF4847101EB4410FEF73CFDC7
:102550000028F7D110BD00002DE9F8430025002622
:102560000027A8460024A146022000F039F910B146
:10257000222807D107E000234B48028802210846A1
:1025800003F0D6F98DE0022000F0F7F800F0040027
:1025900018B10421022003F0BDF8022000F0F6F883
:1025A000041E52DD4148424B22464249009002201F
:1025B00000F0B0FEE8B3962C46DC0021A4F1080040
:1025C0003C4A1154114609783B4A02EB0121394A31
:1025D0001278394B03EB0222D2F8F420C2EBC2038B
:1025E000C3EBC21288187922002101F03EFD314967
:1025F0000978314A02EB01212E4A12782E4B03EB67
:102600000222D2F8F420C2EBC203C3EBC212881834
:1026100078222849491C01F00BFD26490978264AF1
:1026200002EB0121D1F8F410481C00EBD0714910E5
:1026300000E00AE0A0EB41011E4A12781E4B03EBBA
:102640000222C2F8F41000E000241C48D0F8F40282
:102650001A49D1F8F012884222D01848D0F8F40272
:10266000C0EB001000EB8000144A02EB400178221E
:10267000134801F0DDFC0D4800880D4B782210490D
:102680000090022002F05CFD0C48D0F8F402401CDF
:10269000052190FBF1F201FB12000849C1F8F40298
:1026A00000BF00BFBDE8F883920000209800002022
:1026B000940000204E170020381D0020F40C00204C
:1026C0006411002010B5044604222146900103F055
:1026D000DFFF10BD0146024830F8110070470000CE
:1026E0001411002010B54FF43850FEF76DFC10BDEA
:1026F00010B50446062221464FF4106003F0C8FFCF
:1027000010BD10B50446042221464FF4706003F05A
:10271000BFFF10BD10B50446012221464FF4B8504A
:1027200003F0B6FF10BD10B50446042221464FF455
:10273000A06003F0ADFF10BD70B504460D4640F635
:10274000084101EB4410FEF73FFC287040F60851A9
:1027500001EB4410FEF738FC687040F6086101EBAD
:102760004410FEF731FCA87040F6087101EB4410EC
:10277000FEF72AFCE870012070BD10B504464FF446
:10278000027101EB4410FEF71FFC10BD70B504464A
:102790000025002600BF42F2086101EB4410FEF75D
:1027A00013FC064642F2087101EB4410FEF70CFCE4
:1027B00000EB062086B27EB142F2086101EB4410C4
:1027C000FEF702FC054642F2087101EB4410FEF7E9
:1027D000FBFB00EB052085B2B542DCD1284670BD7D
:1027E00010B504464FF4427101EB4410FEF7ECFBC8
:1027F00010BD70B504460025002600BF42F2080156
:1028000001EB4410FEF7E0FB064642F2081101EB33
:102810004410FEF7D9FB00EB062086B27EB142F2EF
:10282000080101EB4410FEF7CFFB054642F2081108
:1028300001EB4410FEF7C8FB00EB052085B2B54262
:10284000DCD1284670BD000008B50820FEF79CFCCE
:102850000220ADF8000003208DF8020080208DF8E2
:10286000030069460A48FEF744FB02210848FEF7C8
:10287000A4FB0120ADF8000003208DF802004820E1
:102880008DF8030069460248FEF733FB08BD0000DF
:10289000000C014008B51C20FEF776FC48208DF89E
:1028A00003004FF40070ADF8000003208DF8020023
:1028B00069469048FEF71DFB48208DF803004FF451
:1028C0008070ADF8000003208DF802006946894849
:1028D000FEF70FFB48208DF803008020ADF80000C4
:1028E00003208DF8020069468248FEF702FB48206B
:1028F0008DF803004020ADF8000003208DF80200A1
:1029000069467C48FEF7F5FA48208DF80300202040
:10291000ADF8000003208DF8020069467548FEF707
:10292000E8FA48208DF803004FF48050ADF800001D
:1029300003208DF8020069466E48FEF7DAFA80201F
:102940008DF803000002ADF8000003208DF80200AE
:1029500069466848FEF7CDFA0122D1036548FEF7C3
:102960002EFB80208DF803004000ADF8000003200E
:102970008DF8020069466048FEF7BBFA0122110299
:102980005D48FEF71CFB80208DF803004001ADF888
:10299000000003208DF8020069465748FEF7A9FAA7
:1029A00000224FF480515448FEF709FB80208DF837
:1029B00003000120ADF8000003208DF802006946F5
:1029C0004D48FEF796FA002201214B48FEF7F7FA30
:1029D00080208DF803000220ADF8000003208DF860
:1029E000020069464448FEF784FA00220221424868
:1029F000FEF7E5FA80208DF803008001ADF80000B5
:102A000003208DF8020069463C48FEF772FA002266
:102A10004FF400513948FEF7D2FA80208DF80300B8
:102A20004001ADF8000003208DF8020069463248ED
:102A3000FEF75FFA012211032F48FEF7C0FA80204B
:102A40008DF803000001ADF8000003208DF80200AE
:102A500069462948FEF74DFA0122D1022648FEF7C1
:102A6000AEFA80208DF80300C001ADF8000003200D
:102A70008DF8020069462148FEF73BFA01229103D6
:102A80001E48FEF79CFA80208DF803000002ADF886
:102A9000000003208DF8020069461848FEF729FA65
:102AA0000122D1031548FEF78AFA80208DF8030031
:102AB0008001ADF8000003208DF8020069460D4842
:102AC000FEF717FA012251030A48FEF778FA802030
:102AD0008DF80300C001ADF8000003208DF802005E
:102AE00069460448FEF705FA012291030148FEF702
:102AF00066FA08BD000C01400008014000100140CA
:102B000010B5002003F0B2FD10BD10B5012003F098
:102B1000ADFD10BD0020064981F8DE050549C1F86C
:102B2000F802012004490870002048707047000036
:102B3000FC060020F40C0020DB0C002070B50446DD
:102B40004FF4427101EB4410FEF73EFA132811D105
:102B50004FF4847101EB44100221FEF754FA00BFD8
:102B60004FF4847101EB4410FEF72EFA0028F7D1E0
:102B7000012500E00025284670BD000000B58BB09F
:102B8000FF208DF8100055218DF8111000218DF8CF
:102B9000121000F037FEFEF7ADFA02F071FE02F0FF
:102BA000C5FD4FF4FA7002F08DFD032002F082FDA6
:102BB000BC49BD4802F01EFFFFF7ACFFFFF7B2FBB8
:102BC000FFF74EFBFFF7FEFAC82003214FF48063A6
:102BD0000022CDE90010B549B5A001F050FDB7497C
:102BE00008600846006838B1B5A001F003F9B348A1
:102BF000006801F051FE06E0B9A001F0FBF84FF0CB
:102C0000FF300BB000BD4BE14FF48051BB48FEF7E5
:102C1000C5F918BBBA480068022805DAB848006848
:102C2000401CB749086042E0B648007801280ED140
:102C300002208DF8130004208DF8140004220021D6
:102C40000DF1150001F011FA02A803F0E9FC0220D1
:102C5000AB4908600020AB49087028E04FF4805170
:102C6000A648FEF79BF9012821D1A5480068022853
:102C700005DAA3480068401CA149086017E0A14894
:102C8000007870B903208DF8130004208DF814002B
:102C9000042200210DF1150001F0E7F902A803F06C
:102CA000BFFC0220964908600120964908709348AD
:102CB000FEF77DF94FF478718143002970D08F4879
:102CC000FEF775F94FF478718143B1F5007F0DD1AE
:102CD0008D480068022805DA8B480068401C8A4944
:102CE0000860DAE0022088490860D6E08348FEF7F1
:102CF0005EF94FF478718143B1F5807F0DD183483F
:102D00000068022805DA81480068401C7F49086095
:102D1000C3E002207D490860BFE07848FEF747F92C
:102D20004FF47871814380290DD1794800680228D9
:102D300005DA77480068401C75490860ADE002205C
:102D400073490860A9E06D48FEF731F94FF47871D6
:102D5000814340290DD16F480068022805DA6D488B
:102D60000068401C6B49086097E0022069490860D0
:102D700093E06248FEF71BF94FF4787181432029F4
:102D8000AFD165480068022805DA63480068401C36
:102D90006149086081E002205F4908607DE0FFE74B
:102DA00059480068022812DB11208DF81300042016
:102DB0008DF81400042200210DF1150001F055F9E1
:102DC00002A803F02DFC55A001F014F85AE04F487A
:102DD0000068022812DB12208DF8130004208DF801
:102DE0001400042200210DF1150001F03EF902A8A3
:102DF00003F016FC4AA000F0FDFF43E044480068E1
:102E0000022812DB13208DF8130004208DF8140023
:102E1000042200210DF1150001F027F902A803F0AA
:102E2000FFFB40A000F0E6FF2CE03A4800680228D3
:102E300012DB14208DF8130004208DF814000422F6
:102E400000210DF1150001F010F902A803F0E8FBD4
:102E500035A000F0CFFF15E02F480068022811DBF5
:102E600015208DF8130004208DF814000422002191
:102E70000DF1150001F0F9F802A803F0D1FB2BA029
:102E800000F0B8FF00202049086020490860204970
:102E900008602049086020490860642001F017FCA0
:102EA000B2E60000740000206C000020412F0008F2
:102EB0006D73675F73656E6400000000040000209E
:102EC00072745F7468726561645F63726561746572
:102ED00020697320737563636573730A00000000D3
:102EE00072745F7468726561645F63726561746552
:102EF000206973206661696C650A0000000C01405E
:102F000014000020180000201C00002020000020D9
:102F100024000020280000202C00002078300A0027
:102F200078310A0078320A0078330A0078340A00CF
:102F300010B5044600F0A0FCFFF720FE10BD000015
:102F400000BF00BF02212C48FDF799FB01220021A0
:102F50001420FEF77FF84EE0284840692749896928
:102F600088420CD0254800F0D5FA24498969481CCC
:102F700000EBD0714910A0EB4101204A916120483B
:102F800040691F49896988420CD01D4800F0C2FA87
:102F90001B498969481C00EBD0714910A0EB410125
:102FA000174A91611748D0F818011649D1F81C1139
:102FB00088421DD0134AD2F81C21C2EBC202114B29
:102FC00003EBC202516B1A46D2F81C21C2EBC202BB
:102FD00003EBC20002F07EFF0A48D0F81C01401C3F
:102FE000052190FBF1F201FB12000649C1F81C011A
:102FF000C82001F06CFBAFE70064004038220020DD
:1030000054220020F40F00200EE041F60B21002096
:1030100002F034FE41F60A21042002F02FFEFFF7F1
:103020009BFA0A2001F053FBEFE7000030B51A4C81
:10303000436824681919884215D04B889BB9174BEF
:103040001B6899420FD0164B1B688B4201D1144B61
:1030500018604B684360104B1B68C31A0E4D4C68D8
:103060002D682C44A3600C4C836824681A19824292
:1030700011D053887BB90A4B1B68834201D1084B9E
:103080001A6043685360044B1B68D31A024D4468AE
:103090002D682C44A36030BDC4000020C80000206F
:1030A000CC0000202DE9F04F86B00D469C46DDE9AE
:1030B000106401960F9B04F04008B8F1000F02D095
:1030C000DFF8708101E0DFF87081CDF8008004F056
:1030D0001008B8F1000F01D024F0010404F0010839
:1030E000B8F1000F02D04FF0300801E04FF0200897
:1030F000C246002704F00208B8F1000F11D0002AE0
:1031000002DA2D2752420CE004F00408B8F1000F57
:1031100001D02B2705E004F00808B8F1000F00D01B
:103120002027002142B94FF0300B8846491C0DF191
:10313000080909F808B01DE01AE0E146B9F10A0FE4
:1031400008D14FF00A0BB2FBFBFE0BFB1E28B2FBB3
:10315000FBF202E002F00F08120900BFDDF8009058
:1031600019F808B08846491C0DF1080909F808B09B
:10317000002AE2D1B14200DD0E469B1B04F011088B
:10318000B8F1000F10D117B1002B00DD5B1E06E077
:10319000A84203D24FF0200880F80080401CB3F111
:1031A0000008A3F10103F3DC27B1A84200D20770A5
:1031B0005B1E401C04F01008B8F1000F0AD104E0B7
:1031C000A84201D280F800A0401CB3F10008A3F18E
:1031D0000103F5DC06E0A84203D24FF0300880F886
:1031E0000080401CB046761E8845F4DC08E0A8420A
:1031F00005D20DF1080818F8018080F80080401C05
:10320000B1F10008A1F1010104DDDDF80480B8F19D
:10321000000FECD106E0A84203D24FF0200880F85E
:103220000080401CB3F10008A3F10103F3DC06B0F9
:10323000BDE8F08F71680008606800082DE9F04172
:1032400004460E4615460027002D15DD2A46314658
:10325000204600F015F84FF4847101EB4410402132
:10326000FDF7D1FE00BF4FF4847101EB4410FDF770
:10327000ABFE0028F7D12F463846BDE8F0810000AC
:103280002DE9F04104460F4616460025A8462EB902
:10329000214618A000F0AEFDBDE8F08142F608011D
:1032A00001EB4410FDF790FE054642F6081101EBD4
:1032B0004410FDF789FE00EB052085B2280200EBE3
:1032C000441000F1180832463946404603F0E0F950
:1032D000A81985B2290A42F6080202EB4410FDF74C
:1032E00092FEE9B242F6081202EB4410FDF78BFEA3
:1032F00000BFD1E72043483A20256420556E657809
:1033000070656374656432206C656E677468203024
:103310000D0A00002DE9FC5F05468A4691461E46CF
:10332000DDF8308000270024A346B9F1000F7CDDD2
:1033300042F6080101EB4510FDF746FE044642F651
:10334000081101EB4510FDF73FFE00EB042084B2AD
:10335000200200EB451000F1180B082101EB45108D
:10336000FDF732FE00F00700022804D0032844D005
:10337000042879D179E008226946584603F088F993
:1033800004F1080084B29DF8000030709DF801003F
:1033900070709DF80200B0709DF80300F0709DF809
:1033A0000400A8F800009DF8050098F8001000EB54
:1033B0000120A8F800009DF806709DF8070000EBBA
:1033C000072087B2200200EB451000F1180B3A46A7
:1033D0005146584603F05CF9E01984B2210A42F6DE
:1033E000080202EB4510FDF70EFEE1B242F60812AC
:1033F00002EB4510FDF707FE6BE0062269465846D2
:1034000003F046F9A01D84B29DF8000030709DF8CD
:10341000010070709DF80200B0709DF80300F0701C
:103420009DF804709DF8050000E063E000EB0720C4
:1034300087B2200200EB451000F1180B3A465146C6
:10344000584603F025F9E01984B2210A42F6080231
:1034500002EB4510FDF7D7FDE1B242F6081202EB90
:103460004510FDF7D0FD34E032E0022269465846AF
:1034700003F00EF9A01C84B29DF800709DF80100C5
:1034800000EB0720801E87B240F2EA50874204DD3D
:103490001AA000F0AFFC00BFFEE7200200EB4510D1
:1034A00000F1180B3A465146584603F0F1F8E0197E
:1034B00084B2210A42F6080202EB4510FDF7A3FD93
:1034C000E1B242F6081202EB4510FDF79CFD00E068
:1034D00000BF00BF4FF4847101EB45104021FDF7A0
:1034E00092FD00BF4FF4847101EB4510FDF76CFDB8
:1034F0000028F7D13846BDE8FC9F000020646174C5
:10350000615F6C656E206F76657220313531340DE8
:103510000A00000010B58CB0044600200090019015
:103520000290FF208DF8140055218DF81510002110
:103530008DF81610A06900EBC000204480780D289B
:103540007DD2DFE800F07C070809284748D5F9FA62
:10355000F6F5F40020E11FE101208DF817000420AA
:103560008DF81800A06900EBC0002044007A8DF8A7
:103570001900A06900EBC000215C8DF81A10002131
:103580008DF81B108DF81C1003A803F049F884A0D7
:1035900000F030FC00E101208DF8170004208DF8C8
:1035A0001800A06900EBC0002044007A8DF81900D3
:1035B000A06900EBC000215C8DF81A1000218DF885
:1035C0001B108DF81C1003A803F02AF879A000F056
:1035D00011FCE1E0E0E0A06900EBC000205C032802
:1035E0001BD118208DF8170004208DF81800A06951
:1035F00000EBC0002044007A8DF81900A06900EBB0
:10360000C000215C8DF81A1000218DF81B108DF878
:103610001C1003A803F004F866E0A06900EBC000EA
:10362000205C01281DD118208DF8170004208DF88A
:103630001800A06900EBC0002044007A00E0AAE076
:103640008DF81900A06900EBC000215C8DF81A10FC
:1036500000218DF81B108DF81C1003A802F0E0FF6C
:1036600042E0A06900EBC000205C02281BD11820BA
:103670008DF8170004208DF81800A06900EBC00039
:103680002044007A8DF81900A06900EBC000215C8D
:103690008DF81A1000218DF81B108DF81C1003A84E
:1036A00002F0BEFF20E0A06900EBC000205C04280F
:1036B0001AD118208DF8170004208DF81800A06981
:1036C00000EBC0002044007A8DF81900A06900EBDF
:1036D000C000215C8DF81A1000218DF81B108DF8A8
:1036E0001C1003A802F09CFF37A000F083FB53E0FE
:1036F00005208DF8170004208DF81800A06900EB54
:10370000C0002044007A8DF81900A06900EBC000C9
:10371000215C8DF81A1000218DF81B108DF81C10FB
:1037200003A802F07DFF2CA000F064FB34E031E040
:103730002FE02DE001E0FFE72EE010208DF81700CC
:1037400004208DF81800A06900EBC0002044007A26
:103750008DF81900A06900EBC0002044C078011268
:103760008DF81A10A06900EBC0002044C1788DF8D4
:103770001B1000218DF81C1003A802F051FFA06956
:1037800000EBC0002044C17817A000F033FB03E039
:1037900002E001E000E000BF00BF0CB010BD00007F
:1037A00072656376204175785F43616C6C5F445548
:1037B000540A00007265637620436F6D5F43616C4D
:1037C0006C5F4475740A0000726563762054616B07
:1037D000655F446F776E0A0072656376205273747A
:1037E0005F436F6D6D0A0000726563762048454146
:1037F00052545F4B4545502064617461203D2578EB
:10380000200A000010B502210748FDF7D4FB4FF451
:10381000FA7000F05CFF02210348FDF7CEFB4FF485
:10382000C86000F054FF10BD000C01401CB514200E
:103830000A214FF480730022CDE90010044905A04D
:1038400000F01DFF0446204601F026F81CBD0000D4
:10385000312F00086D61696E0000000010B5044C46
:1038600002E020688047241D02488442F9D310BD3D
:10387000886800089068000810B5044C02E02068D1
:103880008047241D02488442F9D310BD9068000887
:103890009468000810B5FCF771FC044604480088E1
:1038A000401C00B2024908802046FCF76BFC10BDAA
:1038B0004001002010B5FCF761FC04460C4800886C
:1038C000401E00B20A4908800846B0F900000028EE
:1038D0000ADC002008802046FCF754FC05480068FC
:1038E00028B100F067FC02E02046FCF74BFC10BD5D
:1038F000400100204401002070B5054605B970BDA7
:103900001D480068854203D31C480068854200D3E7
:10391000F5E7A5F10C044FF0FF31194800F03AFD2E
:10392000608818B12088B0F5F55F08D015A000F0C8
:1039300061FA23886288214619A000F05BFA002012
:1039400060804FF4F550208021480068844201D205
:103950001F480460084960680968611A401A1D49D7
:103960000968081A1B4908602046FFF75FFB0448F6
:1039700000F0E7FC00BFC2E7C4000020C800002040
:10398000E8240020746F2066726565206120626102
:1039900064206461746120626C6F636B3A0A00009A
:1039A0006D656D3A203078253038782C2075736538
:1039B0006420666C61673A2025642C206D6167691C
:1039C0006320636F64653A203078253034780A00CC
:1039D000CC000020D40000200048704708260020BA
:1039E00000487047084A002070B5FDF7A1FD174850
:1039F00000684FF47A71B0FBF1F42046FEF714FB37
:103A00004FF4A060FDF71CFB1148FEF717F84FF4C8
:103A1000E130FEF7B7F8FCF7D7FFFEF73BFF40F2C7
:103A2000E7315F2002F09CF9FEF70EFFFDF774FC12
:103A3000FDF7D6FCFFF712FFFFF7D2FF0446FFF7B2
:103A4000CBFF0546214600F051FD70BD000000206F
:103A500020A1070010B50446FFF71CFF19E02078ED
:103A60000A280AD100BF80210D48FDF766FF002813
:103A7000F9D00D210A48FDF768FF00BF80210848F2
:103A8000FDF75BFF0028F9D014F8011B0448FDF78F
:103A90005CFF20780028E2D1FFF70CFF10BD00008A
:103AA0000038014070B505462C1D2E48006838B11D
:103AB00028462C4909688847064606B970BD00BFEC
:103AC00029A0E16B00F096F92BA0216A00F092F991
:103AD0002DA0616A00F08EF92FA0A16A00F08AF98A
:103AE00031A0E16A00F086F933A0216800F082F984
:103AF00035A0616800F07EF937A0A16800F07AF97E
:103B000039A0E16800F076F93BA0216900F072F974
:103B10003DA0616900F06EF93FA0A16900F06AF96B
:103B200041A0E16900F066F943A0216B00F062F961
:103B300045A0616B00F05EF947A0A16B00F05AF957
:103B4000287800F0040038B100F07EFE06463146C9
:103B500045A000F04FF902E04BA000F04BF900BF88
:103B6000FEE70000B80000207073723A203078251C
:103B70003038780A000000007230303A2030782562
:103B80003038780A000000007230313A2030782551
:103B90003038780A000000007230323A2030782540
:103BA0003038780A000000007230333A203078252F
:103BB0003038780A000000007230343A203078251E
:103BC0003038780A000000007230353A203078250D
:103BD0003038780A000000007230363A20307825FC
:103BE0003038780A000000007230373A20307825EB
:103BF0003038780A000000007230383A20307825DA
:103C00003038780A000000007230393A20307825C8
:103C10003038780A000000007231303A20307825C0
:103C20003038780A000000007231313A20307825AF
:103C30003038780A000000007231323A203078259E
:103C40003038780A00000000206C723A2030782565
:103C50003038780A000000002070633A2030782560
:103C60003038780A0000000068617264206661756F
:103C70006C74206F6E207468726561643A202573DD
:103C80000D0A0D0A0000000068617264206661750B
:103C90006C74206F6E2068616E646C65720D0A0D25
:103CA0000A000000F0B504460D461646301D20F00F
:103CB000070040380146002203E00C4F41F8227013
:103CC000521C102AF9D30D624FF0000CC1F824C029
:103CD000C1F828C0C1F82CC0C1F830C04B638C6358
:103CE0004FF0807CC1F83CC0F0BD0000EFBEADDEFF
:103CF00010B5FCF743FA044604480078401C034919
:103D000008702046FCF73EFA10BD0000C0000020FD
:103D100010B5FCF733FA044604480078401E034906
:103D200008702046FCF72EFA10BD0000C0000020ED
:103D300070B504462068A0F11405284600F066FD21
:103D4000002070BD70B505460EE0FCF717FA064678
:103D50002868A0F114044FF0FF302063204600F0E3
:103D600055FD3046FCF70EFA284600F080F8002892
:103D7000EBD0002070BD2DE9F04105460C46904681
:103D8000204600F09FFDB8F1000F03D0B8F1010FFD
:103D900023D105E004F11401284600F061F81DE08C
:103DA0002E680FE0A6F1140794F8350097F8351047
:103DB000884206DA04F1140107F1140000F050F80B
:103DC00002E03668AE42EDD100BFAE4204D104F14C
:103DD0001401284600F044F800E000BF00BF0020B6
:103DE000BDE8F08110B5044604F1140000F01AF8A3
:103DF000002010BD0FB438B505A80090FF21084879
:103E0000009B049A00F01CFF0446FF2C00D9FF24FD
:103E10000348FFF71FFE0020009038BC5DF814FB3C
:103E2000E8230020406000607047406000607047F9
:103E30004060006070470268516002680A6001607B
:103E4000486070470268516002680A60016048601B
:103E500070470268516002680A60016048607047FC
:103E60004268116042684A604160086070470146DC
:103E70000868884201D1012070470020FCE7014614
:103E80000868884201D1012070470020FCE7D0E992
:103E900000215160D0E9001211604060006070475D
:103EA000D0E900215160D0E900121160406000604B
:103EB0007047D0E900215160D0E9001211604060E4
:103EC000006070472DE9F041054615B90020BDE8B6
:103ED000F081E81C20F003054E480068854201D9B6
:103EE0000020F4E70C2D00D20C254FF0FF314A489A
:103EF00000F050FA4948006849490968461A7EE0CE
:103F00004748006884196088002874D106F10C00C5
:103F10006168081AA8426ED306F10C006168091A9C
:103F200005F11800814230D306F10C0000EB0508C2
:103F30003B48006800EB08074FF4F550388000203C
:103F4000788060687860BE60C4F80480012060807A
:103F50003048796800680C30814205D03049786873
:103F600009680844C0F808802E48016805F10C0073
:103F700008442C4908602C4800680968884219D216
:103F8000284800682849086014E00120608024491E
:103F900060680968611A401A224909680844214981
:103FA0000860214800680968884203D21D480068FB
:103FB0001D4908604FF4F55020801848006884427D
:103FC00012D107E01548006840681549096808449F
:103FD0001249086011480068408828B10F480068FD
:103FE000124909688842EDD10B4800F0AAF904F1A2
:103FF0000C006CE7FFE70A48006830444668054853
:104000000068401BB0423FF67BAF034800F099F9CF
:1040100000205CE7D0000020E8240020CC00002035
:10402000C4000020D4000020D8000020C8000020D8
:10403000F0B50D46144601462A46914202D916199A
:104040008E4209D203E012F8016B01F8016B261EC3
:10405000A4F10104F7D107E0234603E05E1E975D5B
:104060008F555B1E002BF9D1F0BD30B5034601E042
:1040700003F8011B141EA2F10102F9D130BD2DE994
:10408000F04106460F46304600F044F80546E86821
:10409000FFF718FF044614B90020BDE8F0810021A5
:1040A0002046EA68FFF7E1FF2672002060720822CE
:1040B0003946204600F000FAFCF760F8804604F12B
:1040C0000C01281DFFF7B7FE4046FCF75BF82046C1
:1040D000E3E770B5044600202072FCF74FF8054670
:1040E00004F10C00FFF7D3FE2846FCF74BF82046FE
:1040F000FFF702FC70BD70B5044600202072FCF78B
:104100003DF8054604F10C00FFF7C1FE2846FCF718
:1041100039F870BD024600210AE0074800EB0110A3
:104120000078904203D1044800EB01107047491C0D
:104130000629F2DB0020F9E7DC0000202DE9F0473A
:1041400004460D46904600262846FFF7E3FF074643
:10415000FFF7A0FB7E6802E0A6F10C003668381D70
:104160008642F9D1FFF7A6FB45F0800020720822B5
:104170004146204600F0A0F9FCF700F8814604F122
:104180000C01381DFFF757FE4846FBF7FBFFBDE863
:10419000F0870146087A00F0800008B101207047DE
:1041A0000020FCE710B5FFF7A3FD00F0F5FBFFF7DB
:1041B000AFFD10BD2DE9F041FBF7E0FF07461848C1
:1041C000008838BB17480068FDF746FF461E1648B2
:1041D00050F83600A0F1140414480068844218D046
:1041E00013490E701148056804601248007850B9F0
:1041F00004F11C0105F11C00FBF7C7FF3846FBF773
:10420000C1FFBDE8F08104F11C0105F11C00FBF7C2
:10421000BCFF00BF3846FBF7B5FF00BFF1E7000069
:10422000400100203C01002008250020440100201E
:1042300048010020C000002070B50446FBF79EFF37
:10424000054614F8340F20F00F0040F001002070F4
:104250006278343C0A4B03EBC20004F1140142685B
:10426000116042684A604160086000BF0549A06B68
:1042700009680843034908602846FBF783FF70BDBF
:10428000082500203C01002070B50446FBF776FFAE
:10429000054604F11400D0E900215160D0E9001274
:1042A00011604060006000BF94F83510094A02EBCD
:1042B000C1000168814201D1012100E0002129B142
:1042C0000548A16B00688843034908602846FBF74E
:1042D00059FF70BD082500203C0100202DE9F04168
:1042E00005460E46174629460220FFF7C8FE04463B
:1042F00014B92046BDE8F0812046FFF773FDA68380
:1043000067722046F6E710B5044604F11400FFF783
:1043100019FD2046FFF7DDFE002010BD2DE9F0411C
:1043200004460D4616461F462A4602212046FFF740
:1043300005FF2046FFF756FDA68367720020BDE803
:10434000F08170B504460025FBF718FF064604F11E
:104350001400FFF78CFD28B904F11400FFF7E8FC06
:1043600001250EE0A08B4FF6FF71884203DAA08B87
:10437000401CA08305E03046FBF704FF6FF002000D
:1043800070BD3046FBF7FEFE012D01D1FFF712FF95
:104390000020F5E773B50546FBF7F0FE0646A88B4F
:1043A000002806DDA88B401EA8833046FBF7EAFEF6
:1043B00028E0019828B93046FBF7E4FE6FF00100D1
:1043C0007CBD00F041FA0446002020636A7A214651
:1043D00005F11400FFF7CFFC0198002809DD01AAC0
:1043E000002104F1440000F041FB04F1440000F01E
:1043F00099FB3046FBF7C6FEFFF7DCFE206B08B1E9
:10440000206BDDE70020DBE708B509A0FFF7F2FC31
:104410000AA0FFF7EFFC12A0052301220321009060
:1044200012A0FFF7E7FC19A0FFF7E4FC08BD0000AD
:104430000A205C207C202F0A000000002D2052540E
:10444000202D2020202020546872656164204F7048
:1044500065726174696E672053797374656D0A00C3
:10446000466562202034203230323300202F207CF9
:10447000205C202020202025642E25642E25642009
:104480006275696C642025730A00000020323030A8
:1044900036202D203230323020436F7079726967B8
:1044A00068742062792072742D746872656164206A
:1044B0007465616D0A00000070B50346A2B118462C
:1044C0000C4600BF14F8016B00F8016B3EB902E026
:1044D000002500F8015B551E2A1EF9D102E0551E89
:1044E0002A1EEFD100BF00BF184670BD2DE9F04174
:1044F00005460E46E81C20F0030726F00308B8F135
:10450000180F09D9A8F11800B84205D3A8EB070085
:1045100018381E49086006E0324629461CA0FFF7FD
:1045200069FCBDE8F0812948076004684FF4F55044
:104530002080164800680C3060600020A060608019
:104540002249606809680844214908604FF4F55021
:104550000968088001201E49096848800B480068E6
:104560000C301B4909684860084800680C3018493D
:10457000096888600023012216A11848FFF7CEFEC3
:10458000124800681649086000BFCAE7D000002042
:104590006D656D20696E69742C206572726F722072
:1045A000626567696E206164647265737320307838
:1045B00025782C20616E6420656E642061646472CD
:1045C00065737320307825780A000000C40000204D
:1045D000C80000206865617000000000E824002029
:1045E000CC00002010B500200B490880002405E015
:1045F0000A4901EBC400FFF718FC641C202CF7DB10
:104600001F20074908700020064908600649086015
:104610000648FFF70AFC10BD4001002008250020D5
:1046200048010020440100203C0100204C010020F2
:1046300070B508480068FDF70FFD451E064850F8A4
:104640003500A0F114040548046004F11C00FBF7D8
:10465000CAFD70BD3C010020082500204401002057
:1046600010B5002405E0044901EBC400FFF7E0FBAE
:10467000641C002CF7D010BD5401002070472DE9B8
:10468000FF5F06460F4690461D46DDE90EAB3146FC
:104690000120FFF7F4FC8146B9F1000F03D100209F
:1046A00004B0BDE8F09F2846FFF70CFC044624B98F
:1046B0004846FFF70EFD0020F2E743463A463146F2
:1046C00048468DE8300CFDF7FDFC4846E8E710B59C
:1046D0000446204600F0BEF810BD000070B5134837
:1046E0000468FBF74BFD05462046FDF75CFD2046C0
:1046F000FFF7CAFD042084F8340004F1440000F000
:10470000E6F92046FFF745FD012803D12046FFF7D3
:10471000F2FC04E004F114010548FFF793FBFFF7F6
:1047200049FD2846FBF72EFD70BD00004401002026
:104730004C01002001E000F001F8FCE770B528E032
:10474000FBF71CFD054600BF13480168814201D0FC
:10475000012100E0002119B92846FBF713FD19E0FB
:104760000D480068A0F1140404F11400D0E9002100
:104770005160D0E9001211604060006000BFA06A83
:10478000FFF7BAF82046FFF7A4FC2846FBF7FAFC2F
:1047900000BFD5E700BF70BD4C0100201FB5202031
:1047A0001F21C200074BCDE90032CDE902100023E2
:1047B000054A06A1074800F00FF8064800F06CF81B
:1047C0001FBD0000E8220020354700087469646CB2
:1047D00065000000702200202DE9FF5F05460C46B1
:1047E00016461F46DDE910ABDDE90E8922460121A0
:1047F0002846FFF7A3FC3B463246214628468DE873
:10480000000FFDF75FFC04B0BDE8F09F70B50446F3
:1048100094F8340000F00F00022802D04FF0FF306F
:1048200070BDFBF7ABFC054604F11400FFF738FB45
:1048300004F1440000F0ECF92846FBF7A3FC204605
:10484000FFF7FAFC0020EBE7014800687047000022
:104850004401002031B5FBF791FC05460D48046882
:10486000204600F02FF86A46002104F1440000F0D1
:10487000FDF804F1440000F055F92846FBF782FCEE
:10488000FFF798FC206B801C08B9002020630020F3
:1048900038BD00004401002010B504463434A0782F
:1048A00060706178012088406060022004F834095B
:1048B0002046FFF7ABFFFFF7C7FF08B1FFF77AFC11
:1048C000002010BD70B5044694F8340000F00F00CD
:1048D000012802D04FF0FF3070BDFBF74FFC0546BA
:1048E0002046FFF7D1FC94F8340020F00F0040F090
:1048F000020084F8340004F1440000F089F92846ED
:10490000FBF740FC0020E7E770B5044625466FF052
:104910000100286305F11400FFF7C2FA2846FFF7EB
:104920008BFCFFF747FC70BD70B5FBF727FC054615
:104930001448046894F8340000F00F0001281CD1DA
:10494000D4E90510814218D004F11400FFF7A8FA49
:1049500094F835200C4B03EBC20004F114014268BB
:10496000116042684A604160086000BF2846FBF75A
:1049700009FCFFF71FFC002070BD2846FBF702FC76
:104980000020F9E7440100200825002001480068C4
:1049900070470000BC00002010B50A480068401CA9
:1049A00008490860FFF750FF0446206C401E206451
:1049B000206C18B9E06B2064FFF7B6FF00F004F834
:1049C00010BD0000BC0000207CB56846FFF730FA3F
:1049D000FFF7DCFF0546FBF7D1FB06463AE022482D
:1049E0000068A0F11404A06A281A6FF00041884200
:1049F0002ED22046FDF7C9FB607A00F0020018B9FC
:104A0000607A20F00100607204F114016846FFF73B
:104A100020FAD4E907108847FFF7B8FF0546684633
:104A2000FFF72DFA00B115E004F11400FFF741FA89
:104A3000607A00F0020060B1607A00F0010040B1DD
:104A4000607A20F001006072204600F06BF800E010
:104A500005E000BF0448FFF712FA0028BFD000BFEE
:104A60003046FBF78FFB7CBD540100202DE9F0415F
:104A700004460E461546FBF781FB0746052E1ED25F
:104A8000DFE806F00603090E1300606A286017E0ED
:104A90002868606214E0607A20F0020060720FE023
:104AA000607A40F0020060720AE0607A00F0010073
:104AB00010B10120286001E00020286000E000BF64
:104AC00000BF3846FBF75EFB0020BDE8F08170B503
:104AD0000446FBF753FB05462046FDF756FB607A7C
:104AE00020F0010060722846FBF74CFB2046FFF7E0
:104AF00002FB002070BD2DE9F84307460C46154621
:104B00001E46DDE9088922460A213846FFF716FBD2
:104B10004346324629463846CDF80090FDF714FB4F
:104B2000BDE8F8832DE9F8430546FBF727FB8046EF
:104B30002846FDF72AFB687A20F001006872FFF72B
:104B400025FF696A0844A8622F4F009700242AE0D5
:104B500019E05DF824201168142202EBC402881ABF
:104B6000826AAB6AD21A00D108E0826AAB6AD21AB2
:104B70006FF000439A4200D20CE000BF5DF82400C1
:104B800000684DF824005DF8240007EBC401496873
:104B90008842DED100BF2CB15DF824000830611CD2
:104BA0004DF82100641C002CD2D018480068401C2D
:104BB000164908600846066805F114010098FFF7D9
:104BC00048F9022412E006F0030060B9C4F10103C1
:104BD00005F1140202EBC301C4F101025DF82200E9
:104BE000FFF737F900E003E0B608641C012CEAD9AE
:104BF00000BF687A40F0010068724046FBF7C2FAD5
:104C00000020BDE8F8830000540100205C01002072
:104C100070B50446607A00F0010010B94FF0FF3023
:104C200070BDFBF7ABFA05462046FDF7AEFA607A99
:104C300020F0010060722846FBF7A4FA0020EFE79D
:104C40002DE9FF4F89B081464C460A9809EB0006D2
:104C50004E4504D24FF0FF36A6EB09000A9077E1EB
:104C60000B980078252806D0B44202D20B98007821
:104C70002070641C69E1002526E00B98401C0B9015
:104C80000B9800782D2802D145F010051CE00B98F8
:104C900000782B2802D145F0040515E00B98007828
:104CA000202802D145F008050EE00B980078232853
:104CB00002D145F0200507E00B980078302802D19A
:104CC00045F0010500E000E0D7E700BF4FF0FF37F7
:104CD0000B98007830380A2804D20BA800F014FE94
:104CE00007460EE00B9800782A280AD10B98401C42
:104CF0000B900C9880C80C90002F02DA7F4245F090
:104D000010054FF0FF3A0B9800782E281CD10B9815
:104D1000401C0B900B98007830380A2804D20BA85E
:104D200000F0F2FD82460AE00B9800782A2806D1AE
:104D30000B98401C0B900C9850F804AB0C90BAF1F7
:104D4000000F01DA4FF0000A002004900B98007861
:104D5000682803D00B9800786C2805D10B98007850
:104D600004900B98401C0B900A2005900B9800783B
:104D70006F2873D00CDC632813D004DC25286ED098
:104D800058286DD195E064286BD06928F9D197E057
:104D9000702873D0732825D075286ED07828F0D16C
:104DA0008AE005F0100040B904E0B44201D22020AE
:104DB0002070641C781E071EF7DC0C9810F8041B8A
:104DC0000C90C8B20790B44201D207982070641CBE
:104DD00004E0B44201D220202070641C781E071E1B
:104DE000F7DCB2E00C98006806900C98001D0C905F
:104DF000069808B960A006904FF0000801E008F19D
:104E00000108B84504D0069810F808000028F6D12B
:104E1000BAF1000F02DDD04500DDD04605F01000EC
:104E200048B904E0B44201D220202070641C384606
:104E30007F1E4045F6DC002008900BE0B44202D211
:104E4000069800782070641C0698401C069008980C
:104E5000401C089008984045F0DB09E026E01FE080
:104E600032E02CE00AE0B44201D220202070641C21
:104E700038467F1E4045F6DC67E024E0781C10B918
:104E8000082745F00105CDE9007A02950C9804C881
:104E9000102331460C902046FEF704F9044654E0F6
:104EA000B44201D225202070641C4EE008200590F9
:104EB0001DE045F0400500BF1020059017E000BF41
:104EC00045F0020500BF12E0B44201D22520207057
:104ED000641C0B98007830B1B44202D20B98007871
:104EE0002070641C02E00B98401E0B902DE000BF68
:104EF00004986C2807D10C9850F804BB0C9005F06E
:104F00000200B8B116E0049868280BD10C9830F86C
:104F1000041B1FFA81FB0C9005F0020050B10FFA40
:104F20008BFB07E00C9850F804BB0C9005F00200D6
:104F300000B100BFCDE9007A02955A4631462046BD
:104F4000059BFEF7AFF8044600BF0B98401C0B9082
:104F50000B98007800287FF483AE0A9838B1B442E9
:104F600002D20020207002E0002006F8010CA4EB21
:104F700009000DB0BDE8F08F284E554C4C290000BB
:104F800000207047002070470020704700207047C5
:104F900010B5FBF7F3F8FEF727FDFFF735FAFFF73B
:104FA0005FFBFFF71FFBFEF741FCFFF767FBFFF717
:104FB000F5FBFFF73DFB002010BD00002DE9F04799
:104FC00004468846164600250027A9462046FDF7D8
:104FD00081FBB04204DA2046FDF77CFB074600E087
:104FE000374600BF2046FDF704FC81464FF442716E
:104FF00001EB4410FBF7E8FF0546172D03D01C2DED
:1050000001D0002701E0B945ECDB00BF3A4641463C
:10501000204600F04BF84FF4847101EB441020213E
:10502000FBF7F1FF00BF4FF4847101EB4410FBF775
:10503000CBFF0028F7D113E04FF4427101EB44108D
:10504000FBF7C2FF0546172D0AD01C2D08D011A072
:10505000FEF7D0FE2046FDF7C7F90020BDE8F08737
:105060004FF4027101EB4410FBF7AEFF00F01000AB
:105070001028E1D14FF4027101EB44101021FBF72D
:10508000C2FF4FF4027101EB44101021FBF7BBFF8C
:105090003846E3E72053454E445F4F4B2050726F34
:1050A000626C656D21210D0A000000002DE9F041C0
:1050B00004460F4616460025A8462EB9214618A0DC
:1050C000FEF798FEBDE8F08142F2084101EB441082
:1050D000FBF77AFF054642F2085101EB4410FBF75B
:1050E00073FF00EB052085B2280200EB441000F1AD
:1050F000100832463946404601F0FEFAA81985B23A
:10510000290A42F2084202EB4410FBF77CFFE9B2A5
:1051100042F2085202EB4410FBF775FF00BFD1E7E3
:105120002043483A20256420556E65787065637485
:10513000656431206C656E67746820300D0A00006C
:105140002DE9F0470446894616461D46089F4FF054
:1051500000082046FDF7BEFAB04204DA2046FDF70B
:10516000B9FA804600E0B046287828B9687818B9BE
:10517000A87808B9E87800B117B94FF0000863E0E3
:10518000297840F6084202EB4410FBF73CFF6978AF
:1051900040F6085202EB4410FBF735FFA97840F6C1
:1051A000086202EB4410FBF72EFFE97840F6087224
:1051B00002EB4410FBF727FF390A41F2080202EB29
:1051C0004410FBF720FFF9B241F2081202EB441041
:1051D000FBF719FF424649462046FFF767FF4FF4A9
:1051E000847101EB44102021FBF70DFF00BF4FF449
:1051F000847101EB4410FBF7E7FE0028F7D112E0C1
:105200004FF4027101EB4410FBF7DEFE00F00800E2
:1052100048B14FF4027101EB44101821FBF7F3FE83
:105220000020BDE8F0874FF4027101EB4410FBF75A
:10523000CBFE00F010001028E2D14FF4027101EB18
:1052400044101021FBF7DFFE4046EAE730B587B097
:1052500004460D460020019002900390009069469C
:105260002846FDF769FA20788DF8100060788DF8EF
:105270001100A0788DF812002079E17840EA012031
:10528000C0B28DF8130060798DF814009DF800000D
:105290008DF815009DF801108DF816109DF802107C
:1052A0008DF817109DF803108DF818109DF8120056
:1052B0000D287CD2DFE800F07B07080965C3C4C570
:1052C000FEFDFCFBFA00DCE1DBE19DF811008DF84E
:1052D00004009DF810008DF805009DF812008DF86F
:1052E00006009DF8130000128DF807009DF81300CA
:1052F0008DF808009DF814008DF80900062201A918
:105300002846FFF75BFE9DF81000DF49496901EB75
:10531000C101DD4A50549DF811001146496901EB65
:10532000C101114448709DF812001146496901EB12
:10533000C101114488709DF813001146496901EBC1
:10534000C1011144C8709DF814001146496901EB70
:10535000C101114408711146496901EBC1011144B1
:10536000481D04220DF11501FEF762FEC649496988
:10537000481C00EBD0714910A0EB4101C24A5161B9
:105380007FE19DF811008DF804009DF810008DF864
:1053900005009DF812008DF806009DF8130000121C
:1053A0008DF807009DF813008DF8080000E067E114
:1053B0009DF814008DF80900062201A92846FFF780
:1053C000FDFD9DF81000B049496901EBC101AE4AED
:1053D00050549DF811001146496901EBC101114477
:1053E00048709DF812001146496901EBC101114452
:1053F00088709DF813001146496901EBC101114401
:10540000C8709DF814001146496901EBC1011144AF
:1054100008711146496901EBC1011144481D04227C
:105420000DF11501FEF704FE97494969481C00EB90
:10543000D0714910A0EB4101934A516121E120E173
:105440001FE19DF811008DF804009DF810008DF803
:1054500005009DF812008DF806009DF8130000125B
:105460008DF807009DF813008DF808009DF81400D2
:105470008DF80900062201A92846FFF79FFD9DF837
:1054800010008149496901EBC1017F4A50549DF8E0
:1054900011001146496901EBC10111444870072010
:1054A0001146496901EBC101114404E0E7E0E5E080
:1054B00088E028E026E088709DF8130011464969CD
:1054C00001EBC1011144C8709DF8140011464969EF
:1054D00001EBC101114408711146496901EBC10199
:1054E0001144481D04220DF11501FEF7A1FD664986
:1054F0004969481C00EBD0714910A0EB4101624A98
:105500005161BEE0BDE061A0FEF774FC9DF81100A2
:105510008DF804009DF810008DF805009DF812002C
:105520008DF806009DF8130000128DF807009DF815
:1055300013008DF808009DF814008DF8090006226C
:1055400001A92846FFF73AFD9DF810005449496922
:1055500001EBC101524A50549DF8110011464969AE
:1055600001EBC101114448709DF8120011464969D0
:1055700001EBC101114488709DF81300114649697F
:1055800001EBC1011144C8709DF81400114649692E
:1055900001EBC101114408711146496901EBC101D8
:1055A0001144481D04220DF11501FEF741FD3C494F
:1055B0004969481C00EBD0714910A0EB4101384A01
:1055C00051615EE09DF811008DF804009DF8100017
:1055D0008DF805009DF812008DF806009DF8130067
:1055E00000128DF807009DF813008DF808009DF853
:1055F00014008DF80900062201A92846FFF7DEFCF9
:105600009DF810002049496901EBC1011E4A505420
:105610009DF811001146496901EBC1011144487020
:105620009DF812001146496901EBC10111448870CF
:105630009DF813001146496901EBC1011144C8707E
:105640009DF814001146496901EBC101114408712C
:105650001146496901EBC1011144481D04220DF1B5
:105660001501FEF7E5FC08494969481C00EBD071BB
:105670004910A0EB4101044A516102E001E000E061
:1056800000BF00BF07B030BD3822002072656376CE
:10569000204865617242656174206D73670A00007D
:1056A0005422002010B5044604222146900101F046
:1056B00023F810BD10B5044621464FF4D850FBF72F
:1056C000A2FC10BD10B50446210A4FF4C850FBF7E8
:1056D0009AFCE1B24FF4D050FBF795FC10BD10B529
:1056E0000446062221464FF4106001F005F810BD73
:1056F00010B50446042221464FF4706000F0FCFF10
:1057000010BD10B50446042221464FF4A06000F0FD
:10571000F3FF10BD70B504460D464FF4027101EB66
:1057200044102946FBF76FFC70BD000008B5062247
:105730002D492E48FEF77CFC04222D492B48801D64
:10574000FEF776FC04222B4928480A30FEF770FC4D
:105750000422294925480E30FEF76AFC0422274915
:1057600022481230FEF764FC25480078012802D157
:1057700024A0FEF73FFB01201C49887600211B482E
:10578000C1760A30FFF7BDFF18480E30FFF78AFFD9
:105790001648801DFFF7ACFF1548FCF7B2FF144810
:1057A000C0780090124883784278017818A0FEF7FC
:1057B00021FB1048FCF7B7FF0E48C07800900D4859
:1057C0008378427801781BA0FEF714FB0A48FCF7A7
:1057D00079FF0948C07800900748837842780178BB
:1057E0001DA0FEF707FB08BD7C000020341100203F
:1057F00082000020860000208A0000208E00002009
:105800009A00002057353530303A0D0A000000006C
:10581000205735353030204950206164647220694A
:10582000732020203A2025642E25642E25642E2501
:10583000640D0A00205735353030207375626E656F
:1058400074206973203A2025642E25642E25642E49
:1058500025640D0A000000002057353530302067E0
:10586000617477617920697320202020203A2025F7
:10587000642E25642E25642E25640D0A0000000088
:105880003EB511480468200C1049C870200A087100
:105890004C710F480A68026089888180FFF71FFFFA
:1058A0000A48FCF725FF0948407908490979074A61
:1058B000D278CDE9002102900448837842780178BB
:1058C00004A0FEF797FA3EBDE8F7FF1F7C0000201A
:1058D00034110020205735353030204D41432069A8
:1058E0007320203A20253032782E253032782E252C
:1058F0003032782E253032782E253032782E2530F1
:1059000032780D0A000000000146002009E00B6813
:105910005A1C0A601A7800EB800302EB4302A2F1E2
:1059200030000A681278303A0A2AF0D37047000033
:105930002DE9F04104460D461646984605F00F0045
:1059400001280FD005F00F0002280BD005F00F0042
:10595000032807D005F00F00042803D005F00F003E
:10596000052841D12046FCF73FFD45EA0801082201
:1059700002EB4410FBF747FB76B1310A4FF481622A
:1059800002EB4410FBF73FFBF1B24FF4A16202EBD4
:105990004410FBF738FB15E015480088401C1449FB
:1059A00008800A461288110A4FF4816202EB441003
:1059B000FBF729FB0E4A11784FF4A16202EB441069
:1059C000FBF721FB4FF4847101EB44100121FBF73D
:1059D0001AFB00BF4FF4847101EB4410FBF7F4FA9B
:1059E0000028F7D1012700E000273846BDE8F08104
:1059F000920000202DE9F04105460E460027B846EA
:105A0000002433E0295D41F6087202EB4410FBF7F5
:105A1000FAFA315D41F6086202EB4410FBF7F3FA43
:105A20000020144921F81400134921F81400B7F597
:105A3000804F07DC285D4FF6FF7101EA80200D4999
:105A400021F81400B8F5804F07DC305D4FF6FF7188
:105A500001EA8020084921F81400064830F81400B3
:105A60000744054830F814008044641C082CC9DB46
:105A7000BDE8F081141100202411002010B5044667
:105A800000BF02210A48FBF79CFC0028F9D0214600
:105A90000748FBF7A2FC00BF01210548FBF791FC7A
:105AA0000028F9D00248FBF794FCC0B210BD0000FA
:105AB0000030014010B50020034908600248243836
:105AC000FBF725FE10BD0000242C014010B50A494B
:105AD0000A48FBF7FFFE002211462620FBF7BAFA20
