:020000040800F2
:100000000048002059010008410E000821020008A4
:100010003D0E0008F5020008291600080000000047
:10002000000000000000000000000000CF110008E8
:10003000EB0C000800000000AB01000835120008BE
:1000400073010008730100087301000873010008C0
:1000500073010008730100087301000873010008B0
:1000600073010008730100087301000873010008A0
:100070007301000873010008730100087301000890
:1000800073010008E90C0008730100083915000825
:10009000B11500087301000873010008730100081E
:1000A00073010008ED1300087301000873010008D4
:1000B0001914000873010008730100087301000897
:1000C0007301000873010008730100087301000840
:1000D00073010008730100087B1400087D140008F8
:1000E0007301000873010008730100087301000820
:1000F0007301000873010008730100087301000810
:1001000073010008730100087301000873010008FF
:1001100073010008730100087301000873010008EF
:1001200073010008730100087301000873010008DF
:10013000000000007301000873010008730100084B
:1001400073010008DFF80CD000F092F80048004777
:10015000EB02000800480020064880470648004798
:10016000FEE7FEE7FEE7FEE7FEE7FEE7FEE7FEE767
:10017000FEE7FEE78D13000845010008EFF310804D
:1001800072B6704780F310887047324A1368012BAB
:1001900004D04FF0010313602F4A10602F4A116002
:1001A0002F484FF0805101607047EFF3108272B614
:1001B0002848016891B14FF00001016026480168AC
:1001C00029B1EFF3098121E9F00F006801602349AB
:1001D00009680968B1E8F00F81F3098882F3108893
:1001E0004EF0040E70471D4908601B494FF0000097
:1001F000086018494FF0010008601A481A49D0F801
:10020000002041EA0201016015484FF08051016071
:1002100016480068006880F3088861B662B67047C7
:100220001EF0040F0CBFEFF30880EFF3098020E904
:10023000F00F40F804ED1EF0040F0CBF80F30888A7
:1002400080F3098800B503F059F85DF804EB4EF02F
:10025000040E70479C0000209400002098000020AD
:1002600004ED00E020ED00E00000FFFF08ED00E0FD
:10027000064C074D06E0E06840F0010394E80700F3
:1002800098471034AC42F6D3FFF760FFE8570008F8
:100290000858000870B58C1810F8015B15F00703BA
:1002A00001D110F8013B2A1106D110F8012B03E00F
:1002B00010F8016B01F8016B5B1EF9D12B0705D417
:1002C0000023521E0DD401F8013BFAE710F8013B60
:1002D000CB1A921C03E013F8015B01F8015B521E7C
:1002E000F9D5A142D8D3002070BD10B504F096FA1C
:1002F000002010BD00BFFEE7B1F5007F5ED00FDC2F
:1003000020293DD006DC01291CD004292CD0082945
:1003100075D12FE0402939D0B1F5807F6FD147E00A
:10032000B1F5004F60D006DCB1F5806F4CD0B1F56F
:10033000006F64D14EE0B1F5803F2DD0B1F5003FA4
:100340005DD12FE0826822F00102521C8260826837
:1003500022F4807202F580728260826822F4803218
:1003600002F5803282604BE0C26822F00802083257
:10037000C26045E0C26822F010021032C2603FE065
:10038000026922F008020832026139E0026922F0B3
:1003900010021032026133E0426822F00802083293
:1003A00042602DE0426822F010021032426027E0E5
:1003B000426822F00402121D426021E0426822F0ED
:1003C0000402121D42601BE0426822F00402121D6A
:1003D000426015E0826922F070028261426822F078
:1003E0000402121D42600BE0826922F070028261F9
:1003F000426822F00402121D426001E0FFE700BFE4
:1004000000BF704730B5024600200023146824F076
:1004100002041460146824F00104641C146000E0F9
:100420005B1C546804F001041CB94FF6FF74A3422E
:10043000F6D1546804F001040CB9002074E00C7883
:10044000012C05D1146824F040044034146003E00A
:10045000146824F0400414604C78012C05D1146811
:1004600024F020042034146003E0146824F02004F5
:1004700014608C78012C05D1146824F01004103419
:10048000146003E0146824F010041460CC78012C8C
:1004900005D1146824F008040834146003E01468DB
:1004A00024F0080414600C79012C05D1146824F0A0
:1004B0000404241D146003E0146824F00404146090
:1004C000D46924F04044D461D4694D7944EA8574F8
:1004D000D4618D79D46965F31964D461CD79D46917
:1004E00065F31344D4610D7AD46965F31654D4616D
:1004F0004C89641ED56964F30905D561146824F03C
:1005000001041460002300E05B1C546804F0010443
:100510001CB14FF6FF74A342F6D1546804F00104F5
:100520000CB1002000E0012030BD10B5D0F8002251
:1005300022F00102521CC0F80022D0F81C220C78D4
:100540000123A3409A43C0F81C228A7BD2B9D0F879
:100550000C220C780123A3409A43C0F80C228A880D
:100560000B8942EA03430C7800F5107242F83430EC
:100570004A88CB8842EA03430C7800F5107202EBFC
:10058000C40253608A7B012A1AD1D0F80C220C785D
:100590000123A3401A43C0F80C228A884B8842EA00
:1005A00003430C7800F5107242F834300A89CB8886
:1005B00042EA03430C7800F5107202EBC402536068
:1005C0004A7B42B9D0F804220C780123A3409A4315
:1005D000C0F8042207E0D0F804220C780123A340DD
:1005E0001A43C0F804220A7B3AB9D0F814220C78D6
:1005F0000123A3409A43C0F814220A7B012A07D1A1
:10060000D0F814220C780123A3401A43C0F8142216
:100610004A89012A07D1D0F81C220C780123A34073
:100620001A43C0F81C22D0F8002222F00102C0F8C0
:10063000002210BD0021017041708170C1700171F4
:10064000417181710321C171022101720121418136
:10065000704742698A434261704742690A43426176
:1006600070470246002053690B40002B6CD0B1F557
:10067000807F52D010DC082937D006DC012920D039
:1006800002292AD004295CD12BE0102931D020295D
:1006900033D0402955D134E0B1F5004F4DD009DCBD
:1006A000B1F5007F3DD0B1F5806F3ED0B1F5006F60
:1006B00047D13EE0B1F5803F27D0B1F5003F40D1B2
:1006C00027E0936803F001009368C3F30023184305
:1006D0009368C3F30043184335E0D36803F0030085
:1006E00031E0D368C3F3C0002DE0D368C3F300103A
:1006F00029E0136903F0030025E01369C3F3C00088
:1007000021E01369C3F300101DE05368C3F3C00078
:1007100019E05368C3F3001015E0936903F001007A
:1007200011E09369C3F340000DE09369C3F38000C7
:1007300009E09369C3F3021005E05368C3F3800036
:1007400001E0002000BF00E00020704710B5044623
:100750000B48844208D14FF0007000F007FC4FF0C6
:10076000007000F0F3FB0AE00648844207D14FF026
:10077000806000F0FBFB4FF0806000F0E7FB10BDF5
:10078000006400400068004010B500F5D87303EB2A
:1007900001131B6803F004039360936853B900F5D9
:1007A000D87303EB01131B6840F2FF7404EA535340
:1007B000136009E000F5D87303EB01131B686FF0B9
:1007C000604404EAD303536000F5D87303EB0113CC
:1007D0001B68C3F34003D36000F5D87303EB011328
:1007E0005B6803F00F03137400F5D87303EB011378
:1007F0005B681B0A537600F5D87303EB01139B6803
:10080000537400F5D87303EB01139B681C0A9474AE
:1008100000F5D87303EB01139B681C0CD47400F52E
:10082000D87303EB01139B681C0E147500F5D87385
:1008300003EB0113DB68537500F5D87303EB011369
:10084000DB681C0A947500F5D87303EB0113DB68B1
:100850001C0CD47500F5D87303EB0113DB681C0E78
:10086000147629B9C36823F020032033C36004E061
:10087000036923F020032033036110BD10B5024645
:100880000023906800F08060B0F1806F00D111E02B
:10089000906800F00060B0F1006F01D1012309E021
:1008A000906800F08050B0F1805F01D1022301E038
:1008B000032010BD02F5C07000EB0310006800F0CB
:1008C000010402F5C07000EB03100460087A78B9E7
:1008D000487A0C8840EA445002F5C07404EB0314D3
:1008E0002468204302F5C07404EB0314206010E078
:1008F000087A4C6840EAC4004C7A204302F5C07480
:1009000004EB03142468204302F5C07404EB0314C1
:100910002060887A00F00F00887202F5C07000EB4A
:100920000310406820F00F0402F5C07000EB0310C4
:10093000446002F5C07000EB031040688C7A2043DD
:1009400002F5C07404EB03146060887B0406487BE6
:1009500044EA0044087B44EA0020CC7A204302F5B4
:10096000C07404EB0314A060887C0406487C44EA4D
:100970000044087C44EA0020CC7B204302F5C0748C
:1009800004EB0314E06002F5C07000EB0310006894
:1009900040F0010402F5C07000EB0310046018463B
:1009A00087E7000000B589B0042000F0E7FA4FF0B7
:1009B000007000F0D3FA4FF48050ADF8200088208A
:1009C0008DF8230003208DF8220008A92E4800F09E
:1009D0008DF94FF40060ADF8200048208DF8230019
:1009E00003208DF8220008A9274800F07FF9274846
:1009F000FFF7ACFE05A8FFF71DFE01208DF81400DF
:100A00008DF8150000208DF816008DF817008DF870
:100A100018008DF819008DF81A000A208DF81B00B7
:100A200002208DF81C001E20ADF81E0005A91748F5
:100A3000FFF7E8FC00208DF804008DF8110001207C
:100A40008DF812000020ADF80600ADF80800ADF8F2
:100A50000A00ADF80C008DF810000120ADF80E0072
:100A600001A90A48FFF761FD00221146132000F09A
:100A7000F3F900221146142000F0EEF90221034898
:100A8000FFF7EBFD09B000BD000801400064004025
:100A9000002211461BA003F067F81C4908602FE0F4
:100AA0004FF0FF311948006803F0BAF818490860A0
:100AB0000846006820B11548006803F06AF81FE096
:100AC00016E0144890F81901C0EBC000114A02EB7F
:100AD0008001114801F062FD0E4890F81901401C98
:100AE0000A2190FBF1F201FB12000A4981F8190179
:100AF000084890F81801074991F819118842E0D187
:100B0000CEE7000063616E5F73656D003C000020FE
:100B100048000020140200206C03002086B000244E
:100B200000BF4FF484000190029004208DF80C0067
:100B300000208DF80D0008208DF80E0000208DF8A3
:100B40000D0067E04FF0FF313348006803F068F8AC
:100B5000324908600846006820B12F48006803F059
:100B600018F857E02E4840692D498969884220D0FD
:100B70002CA002F06BFD2A488069294951F8200019
:100B8000029002208DF80D0004208DF80C00082042
:100B90008DF80E0001A9294800F03CFF204880692B
:100BA000401C052190FBF1F201FB12001C498861F9
:100BB00030E0002420E02248D0F86402C0EBC002FC
:100BC000C2EBC0101E4A104400EBC40108220DF114
:100BD0000F0002F059FE44F04000019000208DF813
:100BE0000D0008208DF80E0000208DF80C0001A9E2
:100BF000124800F00FFF641C0A2CDCDB1048D0F810
:100C00006402401C052190FBF1F201FB12000C492B
:100C1000C1F8640296E70000440000204C00002068
:100C2000500D002073656E642072656D6F74655F92
:100C300063616E206D73670A00000000006400406D
:100C4000E819002070B50446012521782448406940
:100C5000234A52F8200061F303001146496942F823
:100C6000210061781046406952F8200061F30710B6
:100C70001146496942F82100A1781046406952F8AE
:100C8000200061F30C201146496942F821002079C7
:100C9000E17840EA01211046406952F8200061F3F2
:100CA0005C301146496942F821006179104640697B
:100CB00052F8200061F35F701146496942F8210043
:100CC00010464069401C052190FBF1F201FB120027
:100CD000034948610348006802F079FF284670BD67
:100CE000500D00204400002070477047F0B5CF78C9
:100CF00007F00F06CF7807F080070FB18F783E43DB
:100D00000F78E7B104680023012215E00F8817402F
:100D10007FB19D000F27AF40BC4306FA05F73C4367
:100D2000CF78282F01D1426103E0CF78482F00D13E
:100D300002615F1CFBB25200082BE7DB04600F88E6
:100D400007F47F47F7B1446808235A0117E00F887A
:100D500017408FB1A3F10807BD000F27AF40BC4378
:100D600006FA05F73C43CF78282F01D1426103E012
:100D7000CF78482F00D102615F1CFBB25200102BCC
:100D8000E5DB4460F0BD4FF6FF7101800221817008
:100D90000421C1707047024693680B400BB10123D8
:100DA00000E00023184670470246D3680B400BB1A1
:100DB000012300E00023184670474161704701613C
:100DC00070470AB1016100E04161704770B50446A7
:100DD000002501F06BFAC4F3074000F010F8C4F3EB
:100DE000072000F00CF804F0F80000F008F80020EC
:100DF00000F005F8054601F05EFA284670BD10B512
:100E00000446204604F08EFA10BD70B504460D4627
:100E100001F04CFAC4F30740FFF7F1FFC4F30720D9
:100E2000FFF7EDFF04F0F801091DC8B2FFF7E7FF77
:100E30002846FFF7E4FF01F03EFA70BD00BFFEE771
:100E40007047000002490143024A116070470000E8
:100E50000000FA050CED00E02DE9F04305460F46D1
:100E600090462348006800F4E069B9F5A06F13D0FC
:100E700006DCB9F5407F15D0B9F5806F15D10EE0CD
:100E8000B9F5C06F05D0B9F5E06F0ED10023042489
:100E900012E0012303240FE0022302240CE00323C9
:100EA000012409E00423002406E04FF4E060FFF78A
:100EB000C9FF0023042400BF00BFC3F10403C4F131
:100EC000040407FA03F60F20204100EA0800064355
:100ED00036010848465505F01F0101208840691178
:100EE000890001F1E021C1F80001BDE8F0830000B4
:100EF0000CED00E000E400E010B5002401F0A4F8DF
:100F000000F001049CB90AA002F0A0FB0AE001F085
:100F10009BF800F001040BA002F098FB4FF4FA706C
:100F200003F01BF8002CF2D007A002F08FFB10BDDD
:100F3000200D0A206368656E636B207068793F0D31
:100F40000A000000202E0000200D0A000249096955
:100F50008143014A11617047001002400249C9698A
:100F60000143014AD16170470010024002490969FA
:100F70000143014A1161704700100240024989692A
:100F80000143014A91617047001002407FB509A3F7
:100F90000FCB8DE80F0000F03DF806460948406889
:100FA000C0F303101DF8004026FA04F5284604B0EB
:100FB00070BD0000000000000000000001020304FA
:100FC0000607080900100240FCB504460D460EA1B4
:100FD00003C9CDE90001FFF7D9FF074644B10C482A
:100FE0004068C0F302201DF8006027FA06F0206078
:100FF00045B107484068C0F3C2201DF8006027FAD9
:1010000006F02860FCBD000000000000010203049F
:1010100000100240154B5B6803F0030020B101286B
:1010200004D002281DD103E011481CE010481AE04A
:101030000E4B5B68C3F383439A1C0C4B5B68C3F392
:10104000004151B10A4B02FB03F0084B5B68C3F34C
:1010500040438B4204D1400802E0064B02FB03F000
:1010600001E0034800BF00BF7047000000100240CD
:1010700000127A0000093D0010B500244FF4005121
:101080001E48FFF788FE08B944F0010401211C48FE
:10109000FFF781FE08B944F0020402211848FFF767
:1010A0007AFE08B944F004044FF480511548FFF764
:1010B00072FE08B944F008044FF400511148FFF7DC
:1010C0006AFE08B944F010044FF480410D48FFF760
:1010D00062FE08B944F020044FF400410948FFF7CC
:1010E0005AFE08B944F040044FF480710448FFF7F9
:1010F00052FE08B944F08004204610BD00100140A3
:1011000000080140000C014008B50420FFF736FF3D
:10111000E020ADF8000088208DF8030001208DF854
:10112000020069460848FFF7E1FD1020ADF8000015
:1011300080208DF8030001208DF8020069460248E6
:10114000FFF7D4FD08BD000000080140026802F46A
:10115000415202604A890B881A434B881A434B79E3
:101160001A430B791A43CB881A430B7B1A430B7A29
:101170001A4303681A430260CA8902617047026811
:1011800022F40062026002680A4302607047002194
:1011900041810180418041710171C18001730172FF
:1011A0000721C1817047016821F040014031016091
:1011B000704702469068084008B10120704700203F
:1011C000FCE70146C86880B27047C160704770474D
:1011D0001FB54FF48050FFF7D1FE6846FFF7D7FFE9
:1011E0000020ADF8020008208DF80C000020ADF8BA
:1011F0000A008DF808004FF48270ADF8000002205C
:101200008DF805000002ADF8060001208DF80400FD
:101210000720ADF80E0069460548FFF797FF00214B
:101220000348FFF7ACFF0248FFF7BDFF1FBD0000FA
:101230000030014010B502F0FBFB10BD08B534488A
:10124000006820F4803000F58030314908600020CB
:10125000009008E02E480068C0F3404000B106E06E
:101260000098401C00900098B0F5A04FF2D300BF4A
:1012700027480068C0F34040002848D0254800684F
:1012800020F010001030234908600846006820F064
:101290000700801C08601E48406820F0F0001C49D0
:1012A00048600846406820F460504860084640683E
:1012B00020F4E06000F5806048600846406820F453
:1012C000803000F5803048600846406820F4701097
:1012D00000F5E01048600846006820F0807000F1DA
:1012E0008070086000BF0A480068C0F340600028B2
:1012F000F9D00748406820F00300801C044948608A
:1013000000BF03484068C0F381000228F9D108BD3E
:10131000001002400020024010B5FFF78FFF10BD03
:10132000164B5B6803F0030020B1012804D00228AB
:101330001DD103E012481CE011481AE00F4B5B6816
:10134000C3F383439A1C0D4B5B68C3F3004151B157
:101350000B4B02FB03F0094B5B68C3F340438B422A
:1013600004D1400802E0074B02FB03F001E004480F
:1013700000BF00BF044B186070470000001002401F
:1013800000127A0000093D000000002010B513484B
:10139000006820F00100401C1049086008464068C1
:1013A0000F4908400D494860084600680D4908404B
:1013B0000A4908600846006820F480200860084652
:1013C000406820F4FE0048604FF41F008860FFF77B
:1013D000A3FF4FF000600449086010BD00100240F8
:1013E0000000FFF8FFFFF6FE08ED00E010B5012158
:1013F000074800F037F8012809D10648007801288D
:1014000001D103F0ABFF0121014800F023F810BD2A
:10141000002C0140250000200B480068401C0A49B0
:10142000086008460068B0F57A7F0BD3002008609A
:1014300006480068401C0549086005480078401CC3
:1014400003490870704700008400002088000020D5
:101450008C000020CA4302617047016821F001013D
:101460000160704702461069084020B1D06808400A
:1014700008B1012070470020FCE77047704700006A
:101480002DE9F84305460E46EC684EF6F31004408D
:10149000B07A31890843B18808430443EC602C6971
:1014A0004CF6FF700440F08804432C616C694FF6E1
:1014B000FF400440B08904436C611448854204D164
:1014C00069460020FFF780FD03E000216846FFF732
:1014D0007BFD009800EBC00101EB00103168890032
:1014E000B0FBF1F86420B8FBF0F00401200964219E
:1014F00001FB1087322000EB0710B0FBF1F000F089
:101500000F000443AC60BDE8F883000000380140E0
:10151000C16821F4005101F50051C16070470246D5
:101520001068084008B1012070470020FCE74268BD
:1015300061F308024260704710B501211A48FFF7B5
:1015400090F801282FD1194890F8C800174991F850
:10155000C910884217D0154890F8C90000EB8000E8
:10156000124A02EB80011048FFF788F90F4890F803
:10157000C900401C0A2190FBF1F201FB12000B494B
:1015800081F8C9000BE0094890F8C800074991F8B4
:10159000C910884203D101210348FFF75AF80121FD
:1015A0000148FEF7A9FE10BD00640040480100207C
:1015B00010B502211948FFF754F801282DD1022156
:1015C0001648FEF799FE164890F81801401C0A21AB
:1015D00090FBF1F201FB1200114991F819118842B8
:1015E0001BD00F4890F81801C0EBC0000C4901EB6C
:1015F000800200210948FFF7C7F8094890F8180150
:10160000401C0A2190FBF1F201FB1200044981F811
:1016100018010448006802F0DAFA10BD00640040C6
:10162000140200203C00002000BFFEE70146481ED7
:10163000B0F1807F01D301207047481E4FF0E022B7
:101640005061FF20044A107000204FF0E0229061AA
:10165000072010610020EFE723ED00E0014609B903
:1016600000207047C8B220B1C8B20E4A105C401CBE
:10167000F7E701F47F4028B10A48C1F30722805CF4
:101680000930EEE701F47F0028B10648C1F30742B4
:10169000805C1130E5E7034800EB116000781930F9
:1016A000DFE70000B056000802E008C8121F08C1BA
:1016B000002AFAD170477047002001E001C1121FD3
:1016C000002AFBD1704700002DE9FC5F04468B46E1
:1016D00015461E46DDE90C9ADDE90E7804F114008A
:1016E0004060006000BF1C346560A660C4F80C90C8
:1016F000C4F810A02321D4E9030202F0E2F8D4E9EF
:10170000033C63441A1F0F4BD4E9010101F0F6FEBC
:101710002060A77667760020E061C4F82080C4F8D6
:101720002480606120766065A0651C3C00902346A3
:10173000054A2146019004F1440002F022FE0020F7
:10174000BDE8FC9F693F0008954100082DE9F0477E
:1017500004460E4617469846DDF8209084F8099016
:10176000607A20F001006072E66127620020A062CA
:10177000C4F82480002506E004F1140101EBC50043
:1017800001F082FF6D1C012DF6DBBDE8F08770B51E
:101790000546002406E005F1140101EBC40001F048
:1017A000B4FF641C012CF6DB70BD70B50446FEF777
:1017B000E5FC0546206F10B12046216F884728467A
:1017C000FEF7E0FC70BD00001CB5002112A002F085
:1017D00082F8154908604FF47A7002214B0200220A
:1017E000CDE90010114912A002F08FFB13490860E7
:1017F0000846006838B112A001F028FF0F480068C1
:1018000002F090FC05E018A001F020FF4FF0FF303F
:101810001CBD00BFFCE7000063616E315F73656E45
:10182000645F6D757465780038000020910A0008C7
:1018300063616E5F72656376000000003000002017
:1018400072745F7468726561645F63616E72656310
:10185000765F637265617465206973207375636375
:101860006573730A0000000072745F7468726561CA
:10187000645F63616E726563765F637265617465F0
:10188000206973206661696C650A00001CB500223E
:10189000032116A002F068F91849086000221146D9
:1018A00017A002F061F91B4908604FF47A70032118
:1018B0004FF480630022CDE90010174917A002F011
:1018C00024FB194908600846006838B117A001F0E8
:1018D000BDFE1548006802F025FC05E01DA001F0E2
:1018E000B5FE4FF0FF301CBD00BFFCE76D795F63B4
:1018F000616E73656E645F73656D0000400000206B
:101900006D795F63616E6E656E6473656E645F733F
:10191000656D0000440000201D0B000863616E5FD0
:1019200073656E64000000003400002072745F7400
:1019300068726561645F63616E73656E645F637234
:101940006561746520697320737563636573730AD9
:101950000000000072745F7468726561645F6361A7
:101960006E73656E645F6372656174652069732070
:101970006661696C650A00001CB54FF4FA700221BB
:101980004B020022CDE900100C490DA002F0BDFA77
:101990000D4908600846006838B10CA001F056FEF9
:1019A0000948006802F0BEFB05E011A001F04EFE00
:1019B0004FF0FF301CBD00BFFCE70000852500088C
:1019C0006D795F6E657400009000002072745F7422
:1019D00068726561645F6D795F6E65745F7468726B
:1019E00065616420697320737563636573730A00AE
:1019F00072745F7468726561645F6D795F6E65743F
:101A00005F746872656164206973206661696C65E2
:101A10000A00000070B506460C46002521463248F3
:101A2000FEF72CFF032801D0012070BD2F4890F84D
:101A3000C800401C0A2190FBF1F201FB12002B4967
:101A400091F8C910884201D10020EEE7A07A274919
:101A500091F8C81001EB8101244A02EB81018872E0
:101A6000114691F8C81001EB810102EB8101606819
:101A70004860607A114691F8C81001EB810102EBD1
:101A800081014872114691F8C81001EB810120686C
:101A900042F82100207A114691F8C81001EB81012B
:101AA00002EB81010872114691F8C81001EB810127
:101AB00002EB810101F10B00082204F10B0101F09E
:101AC000E3FE01210848FEF7C8FD084890F8C80069
:101AD000401C0A2190FBF1F201FB1200034981F83E
:101AE000C8000120A1E70000006400404801002078
:101AF00010B504464FF4847101EB44101021FFF738
:101B000084F900BF4FF4847101EB4410FFF75EF9D4
:101B10000028F7D14FF4027101EB4410FF21FFF7C9
:101B200074F910BDF8B504460D4616462878FF280E
:101B300008D16878FF2805D1A878FF2802D1E87875
:101B4000FF2808D0287828B9687818B9A87808B983
:101B5000E87800B10EB900276CE00127297840F63B
:101B6000084202EB4410FFF750F9697840F608523A
:101B700002EB4410FFF749F9A97840F6086202EB3E
:101B80004410FFF742F9E97840F6087202EB44107E
:101B9000FFF73BF9310A41F2080202EB4410FFF76C
:101BA00034F9F1B241F2081202EB4410FFF72DF9BB
:101BB0004FF4847101EB44100421FFF726F900BFB4
:101BC0004FF4847101EB4410FFF700F90028F7D1BE
:101BD00027E04FF4427101EB4410FFF7F7F81728A4
:101BE00000D126E0204600F059FA00F0080040B18C
:101BF0004FF4027101EB44100821FFF706F90027AA
:101C000017E0684600F038FA9DF8000030B12CB1BA
:101C100021464FF4B850FFF7F8F80AE00A2002F026
:101C20009CF94FF4427101EB4410FFF7CFF81528EF
:101C3000CFD100BF3846F8BD10B504464FF48471CB
:101C400001EB44100821FFF7E0F800BF4FF4847166
:101C500001EB4410FFF7BAF80028F7D110BD0000DF
:101C60002DE9F84F0027B846B946BA4600250024AA
:101C7000022000F046FA10B1222807D107E0002325
:101C8000DE4802880221084603F0A6FAB2E10220EB
:101C900000F004FA00F0040018B10421022003F05F
:101CA0008DF9022000F003FA051E3DDD4021D448E5
:101CB000FFF77AF808B9012000E000200646324616
:101CC0004021CF48FFF77DF8CE48CF4B2A46CF4979
:101CD0000090022000F034FE30B3002416E0CC4A1D
:101CE000D2F86022C2EBC203C3EBC212C84B1A4443
:101CF00004EB840302EB4300C4EB0412521DC34BFC
:101D0000D1180A2201F0C0FD601CC4B2082CE6DB29
:101D1000BF48D0F86002401C052190FBF1F201FBA6
:101D20001200BB49C1F86002BA48D0F89401B94921
:101D3000D1F89011884251D040F2EA520021B648C1
:101D400001F0BFFD0120B449087000242FE0EF210D
:101D5000C4EB0410401CB04A1154FA21C4EB041027
:101D6000801C11540821C4EB0410C01C11540B2119
:101D7000C4EB0410001D11540121C4EB0410401DDC
:101D80001154A44AD2F8942102EB8202A14B03EB36
:101D9000021204EB840302EB4301C4EB0412921D14
:101DA0009D4BD0180A2201F06FFD601CC4B2082CB4
:101DB000CDDB9848D0F89401401C052190FBF1F24E
:101DC00001FB12009349C1F894018E4800888E4BA4
:101DD000792291490090022002F0F8FD8D48D0F858
:101DE0003013D0F82C03814251D040F2EA52002146
:101DF000894801F066FD02208749087000242FE021
:101E0000EF21C4EB0410401C834A1154FA21C4EBA7
:101E10000410801C11540821C4EB0410C01C115480
:101E20000B21C4EB0410001D11540221C4EB04105B
:101E3000401D1154774AD2F8302302EB8203774ACF
:101E400002EB031204EB840302EB4301C4EB041224
:101E5000921D714BD0180A2201F016FD601CC4B20D
:101E6000082CCDDB6B48D0F83003401C052190FBDB
:101E7000F1F201FB12016748C0F830136148008895
:101E8000614B792264490090022002F09FFD614875
:101E9000D0F8CC14D0F8C804814251D040F2EA52B4
:101EA00000215D4801F00DFD03205B49087000240E
:101EB0002FE0EF21C4EB0410401C574A1154FA21C3
:101EC000C4EB0410801C11540821C4EB0410C01C86
:101ED00011540B21C4EB0410001D11540321C4EB59
:101EE0000410401D11544B4AD2F8CC2402EB82035B
:101EF0004B4A02EB031204EB840302EB4301C4EBF5
:101F00000412921D444BD0180A2201F0BDFC601C43
:101F1000C4B2082CCDDB3F48D0F8CC04401C0521CE
:101F200090FBF1F201FB12013A48C0F8CC1435489D
:101F30000088354B792238490090022002F046FD96
:101F40003448D0F86816D0F86406814251D040F287
:101F5000EA520021304801F0B4FC04202E490870F8
:101F600000242FE0EF21C4EB0410401C2A4A115436
:101F7000FA21C4EB0410801C11540821C4EB041096
:101F8000C01C11540B21C4EB0410001D115404217A
:101F9000C4EB0410401D11541E4AD2F8682602EB0F
:101FA0008203204A02EB031204EB840302EB430199
:101FB000C4EB0412921D184BD0180A2201F064FCE5
:101FC000601CC4B2082CCDDB1248D0F86806401C57
:101FD000052190FBF1F201FB12010E48C0F86816D2
:101FE00008480088084B79220B490090022002F033
:101FF000EDFC00BF00BFBDE8F88F00007A000020B4
:10200000000C0140800000207C000020FE13002016
:10201000E81900206C030020140E002008050020A1
:10202000A40600204008002010B5044604222146E2
:10203000900103F0D5FA10BD0146024830F81100B6
:1020400070470000C40D002010B54FF43850FEF763
:10205000BDFE10BD10B50446062221464FF41060A7
:1020600003F0BEFA10BD10B50446042221464FF419
:10207000706003F0B5FA10BD10B504460122214688
:102080004FF4B85003F0ACFA10BD10B5044604226A
:1020900021464FF4A06003F0A3FA10BD10B504462A
:1020A0004FF4027101EB4410FEF790FE10BD70B5C5
:1020B00004460025002600BF42F2086101EB4410EF
:1020C000FEF784FE064642F2087101EB4410FEF76B
:1020D0007DFE00EB062086B27EB142F2086101EB84
:1020E0004410FEF773FE054642F2087101EB4410FE
:1020F000FEF76CFE00EB052085B2B542DCD1284628
:1021000070BD10B504464FF4427101EB4410FEF768
:102110005DFE10BD70B504460025002600BF42F2EA
:10212000080101EB4410FEF751FE064642F2081189
:1021300001EB4410FEF74AFE00EB062086B27EB1AA
:1021400042F2080101EB4410FEF740FE054642F260
:10215000081101EB4410FEF739FE00EB052085B2B3
:10216000B542DCD1284670BD08B50820FEF706FF51
:102170000220ADF8000003208DF8020080208DF8C9
:10218000030069460A48FEF7B1FD02210848FEF740
:1021900016FE0120ADF8000003208DF80200482053
:1021A0008DF8030069460248FEF7A0FD08BD000057
:1021B000000C014008B51C20FEF7E0FE80208DF8E1
:1021C00003008000ADF8000003208DF8020069468E
:1021D0003348FEF78BFD012251023148FEF7F1FD35
:1021E00080208DF803004000ADF8000003208DF83A
:1021F000020069462A48FEF779FD012211022848AB
:10220000FEF7DFFD80208DF80300ADF8000003200D
:102210008DF8020069462248FEF768FD0122802100
:102220001F48FEF7CEFD80208DF803004020ADF85A
:10223000000003208DF8020069461948FEF756FD9C
:10224000012240211648FEF7BCFD48208DF803000E
:1022500040F20310ADF8000003208DF8020069463B
:102260001048FEF743FD48208DF803004FF47040FE
:10227000ADF8000003208DF8020069460848FEF71B
:1022800035FD48208DF803004FF40050ADF80000F4
:1022900003208DF8020069460348FEF727FD08BDBC
:1022A000000C0140000801400010014010B5002062
:1022B00003F084F910BD10B5012003F07FF910BDC3
:1022C0000120024908700020487070476003002018
:1022D00070B504464FF4427101EB4410FEF776FDF1
:1022E000132811D14FF4847101EB44100221FEF741
:1022F0008CFD00BF4FF4847101EB4410FEF766FDC6
:102300000028F7D1012500E00025284670BD000017
:1023100070B586B00020039004900590002400253D
:102320008DF80C0005208DF80D0009208DF80E00A9
:1023300000208DF80F008DF810008DF81100FEF7C9
:102340009BFE5B49C87000F099FEFEF7D5FD02F0D8
:10235000EBFE02F03FFE4FF4FA7002F007FE03209E
:1023600002F0FCFD5349544802F098FF01228021FD
:102370005248FEF726FDFFF7A3FFFFF725FAFFF708
:1023800085FAFFF7F9FAC82003214FF48063002291
:10239000CDE900104A494BA001F0B7FD4C49086057
:1023A0000846006838B14BA001F050F94848006871
:1023B00001F0B8FE06E04FA001F048F94FF0FF3001
:1023C00006B070BD73E04FF400713C48FEF7ECFCC2
:1023D00008B9012000E00020064632464FF40071A3
:1023E0003648FEF7EEFC3CBB642D2BDB484880787A
:1023F000002141EAC0004649897A40EA8100444907
:10240000097A40EA4100424989790843C0B28DF80F
:102410001000062003A941F60A233E4ACDE9001028
:10242000D91C042002F0A2FF044600252CB9012289
:1024300080212248FEF7C5FC04E0002280211F48CD
:10244000FEF7BFFC012C2DD1C82D2BDB3048807846
:10245000002141EAC0002E49897A40EA81002C49D6
:10246000097A40EA41002A4989790843C0B28DF8C7
:102470001000062003A941F60A23264ACDE90010E0
:10248000D91C042002F072FF044600252CB9012259
:1024900080210A48FEF795FC04E0002280210748CD
:1024A000FEF78FFC642001F058FD681C85B28AE7B6
:1024B0006A0000205C00002054000020000C014055
:1024C000292500086D73675F73656E640000000066
:1024D0000400002072745F7468726561645F6372E7
:1024E0006561746520697320737563636573730A2E
:1024F0000000000072745F7468726561645F6372EB
:1025000065617465206973206661696C650A000005
:10251000600300207C00002010B5044600F0E8FDB8
:10252000FFF7F6FE10BD000000BF00BFFEF73AFA4D
:1025300021E0114880691049496988420CD00E4851
:1025400000F0FEFA0C488069401C052190FBF1F276
:1025500001FB1200084988610848D0F86002074969
:10256000D1F86412884203D00548006801F02FFBBF
:102570000A2001F0F2FCDCE7340D0020E81900200D
:102580004400002009E041F60B21002002F087FF03
:10259000FFF766FB0A2001F0E0FCF4E72DE9F041CB
:1025A00005460C46002700262078C0F30316207845
:1025B00000F00F07E06848BB6721714305EB81031A
:1025C0006721714305EB8101D1F8901101EB810185
:1025D00003EB011101EBC700227C04F1110101F0B2
:1025E00053F9092F27D16720704305EB8000D0F8FD
:1025F0009001401C052190FBF1F201FB12016720C4
:10260000704305EB8000C0F8901114E0E06890B1D1
:102610000AA001F01BF80F49606849690D4A42F8A9
:10262000210010464069401C052190FBF1F201FB9E
:10263000120008494861BDE8F081000072656376C8
:102640002072656D6F74655478526571206D736783
:102650000A000000340D002030B51A4C436824688D
:102660001919884215D04B889BB9174B1B689942A2
:102670000FD0164B1B688B4201D1144B18604B686E
:102680004360104B1B68C31A0E4D4C682D682C44D8
:10269000A3600C4C836824681A19824211D05388B5
:1026A0007BB90A4B1B68834201D1084B1A6043680F
:1026B0005360044B1B68D31A024D44682D682C44A8
:1026C000A36030BDAC000020B0000020B4000020AA
:1026D0002DE9F04F86B00D469C46DDE91064019669
:1026E0000F9B04F04008B8F1000F02D0DFF87081B2
:1026F00001E0DFF87081CDF8008004F01008B8F137
:10270000000F01D024F0010404F00108B8F1000F1B
:1027100002D04FF0300801E04FF02008C2460027F9
:1027200004F00208B8F1000F11D0002A02DA2D27B8
:1027300052420CE004F00408B8F1000F01D02B273E
:1027400005E004F00808B8F1000F00D020270021B0
:1027500042B94FF0300B8846491C0DF1080909F8C1
:1027600008B01DE01AE0E146B9F10A0F08D14FF0B8
:102770000A0BB2FBFBFE0BFB1E28B2FBFBF202E0D6
:1027800002F00F08120900BFDDF8009019F808B038
:102790008846491C0DF1080909F808B0002AE2D161
:1027A000B14200DD0E469B1B04F01108B8F1000F8A
:1027B00010D117B1002B00DD5B1E06E0A84203D24A
:1027C0004FF0200880F80080401CB3F10008A3F10E
:1027D0000103F3DC27B1A84200D207705B1E401C46
:1027E00004F01008B8F1000F0AD104E0A84201D2A9
:1027F00080F800A0401CB3F10008A3F10103F5DC50
:1028000006E0A84203D24FF0300880F80080401C58
:10281000B046761E8845F4DC08E0A84205D20DF1EA
:10282000080818F8018080F80080401CB1F1000809
:10283000A1F1010104DDDDF80480B8F1000FECD155
:1028400006E0A84203D24FF0200880F80080401C28
:10285000B3F10008A3F10103F3DC06B0BDE8F08F8B
:10286000C1570008B05700082DE9F04104460E4654
:1028700015460027002D15DD2A463146204600F07A
:1028800015F84FF4847101EB44104021FEF7BDFAB6
:1028900000BF4FF4847101EB4410FEF797FA002853
:1028A000F7D12F463846BDE8F08100002DE9F04110
:1028B00004460F4616460025A8462EB9214618A004
:1028C00000F0C4FEBDE8F08142F6080101EB4410BF
:1028D000FEF77CFA054642F6081101EB4410FEF7BC
:1028E00075FA00EB052085B2280200EB441000F1D8
:1028F000180832463946404602F072FEA81985B2E1
:10290000290A42F6080202EB4410FEF77EFAE9B209
:1029100042F6081202EB4410FEF777FA00BFD1E747
:102920002043483A20256420556E657870656374AD
:10293000656432206C656E67746820300D0A000093
:102940002DE9FC5F05468A4691461E46DDF830803B
:1029500000270024A346B9F1000F7CDD42F60801F0
:1029600001EB4510FEF732FA044642F6081101EB7E
:102970004510FEF72BFA00EB042084B2200200EB96
:10298000451000F1180B082101EB4510FEF71EFA67
:1029900000F00700022804D0032844D0042879D18D
:1029A00079E008226946584602F01AFE04F1080050
:1029B00084B29DF8000030709DF8010070709DF8A1
:1029C0000200B0709DF80300F0709DF80400A8F8B4
:1029D00000009DF8050098F8001000EB0120A8F811
:1029E00000009DF806709DF8070000EB072087B2F5
:1029F000200200EB451000F1180B3A4651465846AC
:102A000002F0EEFDE01984B2210A42F6080202EB60
:102A10004510FEF7FAF9E1B242F6081202EB451052
:102A2000FEF7F3F96BE006226946584602F0D8FD3E
:102A3000A01D84B29DF8000030709DF801007070F8
:102A40009DF80200B0709DF80300F0709DF80470CE
:102A50009DF8050000E063E000EB072087B220024C
:102A600000EB451000F1180B3A465146584602F06B
:102A7000B7FDE01984B2210A42F6080202EB4510C4
:102A8000FEF7C3F9E1B242F6081202EB4510FEF779
:102A9000BCF934E032E002226946584602F0A0FD5B
:102AA000A01C84B29DF800709DF8010000EB072087
:102AB000801E87B240F2EA50874204DD1AA000F07F
:102AC000C5FD00BFFEE7200200EB451000F1180B2A
:102AD0003A465146584602F083FDE01984B2210A75
:102AE00042F6080202EB4510FEF78FF9E1B242F61A
:102AF000081202EB4510FEF788F900E000BF00BFA6
:102B00004FF4847101EB45104021FEF77EF900BFC0
:102B10004FF4847101EB4510FEF758F90028F7D106
:102B20003846BDE8FC9F000020646174615F6C65FD
:102B30006E206F76657220313531340D0A00000049
:102B400030B585B004460020029003900490002523
:102B5000A06914F8200000F00F01F0A000F076FD4D
:102B6000A06914F82000C0F30311F7A000F06EFD77
:102B7000A06934F82000C0F30421FEA000F066FD37
:102B8000A06934F82000C0F304200D2870D2DFE8DB
:102B900000F06F0708093C7074FEFDFCFBFAF900B9
:102BA0005FE25EE2A06914F8200000F00F008DF8EB
:102BB0000800A06914F82000C0F303108DF8090084
:102BC000A06934F82000C0F304208DF80A00A06941
:102BD00054F82000C0F34F3000128DF80B00A069AC
:102BE00054F82000C0F347308DF80C00062002A9ED
:102BF00041F60B23E94ACDE90010591C012002F0EF
:102C0000B5FBE7A000F022FD2BE2A06914F820003C
:102C100000F00F008DF80800A06914F82000C0F340
:102C200003108DF80900A06934F82000C0F30420D7
:102C30008DF80A00A06954F82000C0F34F3000124C
:102C40008DF80B00A06954F82000C0F347308DF8D0
:102C50000C00062002A941F60B23D04ACDE9001052
:102C6000591C012002F082FBD4A000F0EFFCF8E137
:102C7000F5E1D7A000F0EAFCF3E1A06914F8200028
:102C800000F00F0003282FD1A06914F8200000F0F5
:102C90000F008DF80800A06914F82000C0F303109D
:102CA0008DF80900A06934F82000C0F304208DF8E5
:102CB0000A00A06954F82000C0F34F3000128DF8CC
:102CC0000B00A06954F82000C0F347308DF80C00C9
:102CD000062002A941F60B23B04ACDE90010591C89
:102CE000012002F043FB73E0A06914F8200000F01B
:102CF0000F0001282FD1A06914F8200000F00F0068
:102D00008DF80800A06914F82000C0F303108DF8B6
:102D10000900A06934F82000C0F304208DF80A00EF
:102D2000A06954F82000C0F34F3000128DF80B005A
:102D3000A06954F82000C0F347308DF80C0006203D
:102D400002A941F60B23954ACDE90010591C012038
:102D500002F00CFB3CE0A06914F8200000F00F002A
:102D6000012835D1A06914F8200000F00F008DF87B
:102D70000800A06914F82000C0F303108DF80900C2
:102D8000A06905E06CE169E1B2E05DE05BE020E0B4
:102D900034F82000C0F304208DF80A00A06954F82C
:102DA0002000C0F34F3000128DF80B00A06954F8DA
:102DB0002000C0F347308DF80C00062002A941F630
:102DC0000B23764ACDE90010591C012002F0CEFAFF
:102DD00047E1A06914F8200000F00F00032831D16A
:102DE000A06914F8200000F00F008DF80800A06919
:102DF00014F82000C0F303108DF80900A06934F81E
:102E00002000C0F304208DF80A00A06954F82000C7
:102E1000C0F34F3000128DF80B00A06954F8200069
:102E2000C0F347308DF80C00062002A941F60B23B1
:102E30005A4ACDE90010591C012002F097FA58A017
:102E400000F004FC0DE10CE1A06954F82000C0F38F
:102E50004F3167A000F0FAFBA06934F82000C0F3FE
:102E6000403040B1002240216B48FDF7AAFF01200D
:102E70006A49887107E00020684988710122402171
:102E80006548FDF79EFFA06934F82000400B00F074
:102E9000020040B1012061490872002201025E482F
:102EA000FDF78FFF07E000205C4908720122110244
:102EB0005948FDF786FFA06934F82000400B00F068
:102EC000040018B101205549887202E000205349DE
:102ED0008872A06954F82000400B00F0080018B177
:102EE00001204E49887002E000204C498870B8E00B
:102EF000A06914F8200000F00F008DF80800A06908
:102F000014F82000C0F303108DF80900A06934F80C
:102F10002000C0F304208DF80A0081E06D73672D56
:102F20003E43616E5F4D73675B6D73672D3E4D73FE
:102F3000675F4F75745D2E6D73672E6D73675F6687
:102F4000726F6D3D25640A006D73672D3E43616E9F
:102F50005F4D73675B6D73672D3E4D73675F4F7594
:102F6000745D2E6D73672E6D73675F746F3D25649E
:102F70000A0000006D73672D3E43616E5F4D7367FD
:102F80005B6D73672D3E4D73675F4F75745D2E6D7E
:102F900073672E636D643D25640A00007C00002089
:102FA0007265637620436F6D5F526F6F6D2072653F
:102FB000737420206261636B0A000000726563769F
:102FC00020436F6D5F43616C6C5F4475740A000051
:102FD00072656376204475745F43616C6C5F417504
:102FE00078207265737420206261636B0A000000B0
:102FF0006D73672D3E43616E5F4D73675B6D7367E5
:103000002D3E4D73675F4F75745D2E6D73672E6433
:103010006174613D25780A00000C014060030020C6
:10302000A06954F82000C0F34F3000128DF80B0057
:10303000A06954F82000C0F347308DF80C0006203A
:1030400002A941F60B23084ACDE90010591C0120C2
:1030500002F08CF905A000F0F9FA02E001E000BFEF
:1030600000BF00BF05B030BD7C00002072656376F4
:1030700020414C415F46494C540A000010B50221E2
:103080000748FDF79AFE4FF4FA7000F066FF022140
:103090000348FDF794FE4FF4C86000F05EFF10BDDA
:1030A000000C01401CB514200A214FF4807300224B
:1030B000CDE90010044905A000F027FF0446204692
:1030C00001F030F81CBD0000192500086D61696E23
:1030D0000000000010B5044C02E020688047241D69
:1030E00002488442F9D310BDD8570008E0570008C1
:1030F00010B5044C02E020688047241D0248844239
:10310000F9D310BDE0570008E457000810B5FDF7EB
:1031100035F8044604480088401C00B20249088083
:103120002046FDF72FF810BD2801002010B5FDF74F
:1031300025F804460C480088401E00B20A49088061
:103140000846B0F9000000280ADC0020088020466C
:10315000FDF718F80548006828B100F071FC02E09E
:103160002046FDF70FF810BD280100202C0100209B
:1031700070B5054605B970BD1D480068854203D38A
:103180001C480068854200D3F5E7A5F10C044FF018
:10319000FF31194800F044FD608818B12088B0F56F
:1031A000F55F08D015A000F051FA23886288214607
:1031B00019A000F04BFA002060804FF4F5502080F9
:1031C00021480068844201D21F48046008496068B1
:1031D0000968611A401A1D490968081A1B490860E4
:1031E0002046FFF739FA044800F0F1FC00BFC2E7BF
:1031F000AC000020B0000020CC1E0020746F2066C0
:10320000726565206120626164206461746120627E
:103210006C6F636B3A0A00006D656D3A203078255B
:103220003038782C207573656420666C61673A20AD
:1032300025642C206D6167696320636F64653A20A3
:103240003078253034780A00B4000020BC0000201B
:1032500000487047EC1F002000487047EC430020F6
:1032600070B5FEF75DF8104800684FF47A71B0FB56
:10327000F1F42046FEF7DAF94FF4A060FDF7E2FD25
:10328000FEF798FFFEF770FFFDF73EFFFDF7A0FF8A
:10329000FFF720FFFFF7E0FF0446FFF7D9FF0546E1
:1032A000214600F069FD70BD0000002010B5044605
:1032B000FFF72CFF19E020780A280AD100BF8021EF
:1032C0000D48FEF72CF90028F9D00D210A48FEF729
:1032D0002EF900BF80210848FEF721F90028F9D017
:1032E00014F8011B0448FEF722F920780028E2D1E7
:1032F000FFF71CFF10BD00000038014070B5054607
:103300002C1D2E48006838B128462C49096888478A
:10331000064606B970BD00BF29A0E16B00F096F922
:103320002BA0216A00F092F92DA0616A00F08EF9BD
:103330002FA0A16A00F08AF931A0E16A00F086F9B5
:1033400033A0216800F082F935A0616800F07EF9B1
:1033500037A0A16800F07AF939A0E16800F076F9A9
:103360003BA0216900F072F93DA0616900F06EF99F
:103370003FA0A16900F06AF941A0E16900F066F997
:1033800043A0216B00F062F945A0616B00F05EF98B
:1033900047A0A16B00F05AF9287800F0040038B17A
:1033A00000F098FE0646314645A000F04FF902E0D5
:1033B0004BA000F04BF900BFFEE70000A00000208A
:1033C0007073723A203078253038780A0000000097
:1033D0007230303A203078253038780A000000000A
:1033E0007230313A203078253038780A00000000F9
:1033F0007230323A203078253038780A00000000E8
:103400007230333A203078253038780A00000000D6
:103410007230343A203078253038780A00000000C5
:103420007230353A203078253038780A00000000B4
:103430007230363A203078253038780A00000000A3
:103440007230373A203078253038780A0000000092
:103450007230383A203078253038780A0000000081
:103460007230393A203078253038780A0000000070
:103470007231303A203078253038780A0000000068
:103480007231313A203078253038780A0000000057
:103490007231323A203078253038780A0000000046
:1034A000206C723A203078253038780A000000000D
:1034B0002070633A203078253038780A0000000008
:1034C00068617264206661756C74206F6E20746828
:1034D000726561643A2025730D0A0D0A0000000030
:1034E00068617264206661756C74206F6E2068611B
:1034F0006E646C65720D0A0D0A000000F0B504469A
:103500000D461646301D20F00700403801460022C7
:1035100003E00C4F41F82270521C102AF9D30D62BF
:103520004FF0000CC1F824C0C1F828C0C1F82CC06D
:10353000C1F830C04B638C634FF0807CC1F83CC055
:10354000F0BD0000EFBEADDE10B5FCF717FE04467F
:1035500004480078401C034908702046FCF712FE1E
:1035600010BD0000A800002010B5FCF707FE0446BF
:1035700004480078401E034908702046FCF702FE0C
:1035800010BD0000A800002070B504462068A0F11E
:103590001405284600F080FD002070BD70B505467A
:1035A0000EE0FCF7EBFD06462868A0F114044FF08E
:1035B000FF302063204600F06FFD3046FCF7E2FD4F
:1035C000284600F080F80028EBD0002070BD2DE9DF
:1035D000F04105460C469046204600F0B9FDB8F192
:1035E000000F03D0B8F1010F23D105E004F114015D
:1035F000284600F061F81DE02E680FE0A6F11407E0
:1036000094F8350097F83510884206DA04F1140171
:1036100007F1140000F050F802E03668AE42EDD138
:1036200000BFAE4204D104F11401284600F044F872
:1036300000E000BF00BF0020BDE8F08110B50446E7
:1036400004F1140000F01AF8002010BD0FB438B5D2
:1036500005A80090FF210848009B049A00F036FF5F
:103660000446FF2C00D9FF240348FFF71FFE00206B
:10367000009038BC5DF814FBCC1D00204060006059
:1036800070474060006070474060006070470268AB
:10369000516002680A6001604860704702685160CA
:1036A00002680A6001604860704702685160026801
:1036B0000A600160486070474268116042684A6071
:1036C00041600860704701460868884201D10120C6
:1036D00070470020FCE701460868884201D10120BC
:1036E00070470020FCE7D0E900215160D0E90012CA
:1036F0001160406000607047D0E900215160D0E95E
:1037000000121160406000607047D0E900215160F4
:10371000D0E9001211604060006070472DE9F0416F
:10372000054615B90020BDE8F081E81C20F003052E
:103730004E480068854201D90020F4E70C2D00D2E4
:103740000C254FF0FF314A4800F06AFA49480068FA
:1037500049490968461A7EE047480068841960882C
:10376000002874D106F10C006168081AA8426ED3D3
:1037700006F10C006168091A05F11800814230D386
:1037800006F10C0000EB05083B48006800EB080759
:103790004FF4F55038800020788060687860BE6013
:1037A000C4F80480012060803048796800680C30DB
:1037B000814205D03049786809680844C0F808801B
:1037C0002E48016805F10C0008442C4908602C487B
:1037D00000680968884219D22848006828490860AA
:1037E00014E001206080244960680968611A401A69
:1037F000224909680844214908602148006809688D
:10380000884203D21D4800681D4908604FF4F550F6
:10381000208018480068844212D107E015480068EB
:103820004068154909680844124908601148006851
:10383000408828B10F480068124909688842EDD1D4
:103840000B4800F0C4F904F10C006CE7FFE70A48EC
:1038500000683044466805480068401BB0423FF6A7
:103860007BAF034800F0B3F900205CE7B80000200C
:10387000CC1E0020B4000020AC000020BC000020C2
:10388000C0000020B0000020F0B50D4614460146EF
:103890002A46914202D916198E4209D203E012F843
:1038A000016B01F8016B261EA4F10104F7D107E0BA
:1038B000234603E05E1E975D8F555B1E002BF9D1FA
:1038C000F0BD30B5034601E003F8011B141EA2F160
:1038D0000102F9D130BD70B505460E4629460320D8
:1038E00000F012F804460CB9204670BD2046FFF7E0
:1038F000A5FE0120A08300202062FF20A0770020E9
:10390000E07766722046F0E72DE9F04106460F4663
:10391000304600F045F80546E868FFF7FFFE04462C
:1039200014B90020BDE8F08100212046EA68FFF7C5
:10393000C8FF26720020607208223946204600F037
:1039400001FAFCF71BFC804604F10C01281DFFF76F
:103950009EFE4046FCF716FC2046E3E770B50446A1
:1039600000202072FCF70AFC054604F10C00FFF76A
:10397000BAFE2846FCF706FC2046FFF7F9FB70BDAF
:1039800070B5044600202072FCF7F8FB054604F1F0
:103990000C00FFF7A8FE2846FCF7F4FB70BD000002
:1039A000024600210AE0074800EB0110007890422F
:1039B00003D1044800EB01107047491C0629F2DBD3
:1039C0000020F9E7C40000202DE9F04704460D4629
:1039D000904600262846FFF7E3FF0746FFF796FBD1
:1039E0007E6802E0A6F10C003668381D8642F9D1E7
:1039F000FFF79CFB45F080002072082241462046DC
:103A000000F0A0F9FCF7BAFB814604F10C01381D67
:103A1000FFF73DFE4846FCF7B5FBBDE8F0870146E1
:103A2000087A00F0800008B1012070470020FCE710
:103A300010B5FFF789FD00F0F5FBFFF795FD10BD10
:103A40002DE9F041FCF79AFB07461848008838BB7F
:103A500017480068FDF702FE461E164850F836006B
:103A6000A0F1140414480068844218D013490E7061
:103A70001148056804601248007850B904F11C012F
:103A800005F11C00FCF781FB3846FCF77BFBBDE829
:103A9000F08104F11C0105F11C00FCF776FB00BF6E
:103AA0003846FCF76FFB00BFF1E70000280100205B
:103AB00024010020EC1E00202C01002030010020F9
:103AC000A800002070B50446FCF758FB054614F822
:103AD000340F20F00F0040F0010020706278343C79
:103AE0000A4B03EBC20004F1140142681160426802
:103AF0004A604160086000BF0549A06B096808433F
:103B0000034908602846FCF73DFB70BDEC1E002011
:103B10002401002070B50446FCF730FB054604F193
:103B20001400D0E900215160D0E90012116040601A
:103B3000006000BF94F83510094A02EBC10001682B
:103B4000814201D1012100E0002129B10548A16B8A
:103B500000688843034908602846FCF713FB70BDE2
:103B6000EC1E0020240100202DE9F04105460E4600
:103B7000174629460220FFF7C7FE044614B920461F
:103B8000BDE8F0812046FFF759FDA6836772204605
:103B9000F6E710B5044604F11400FFF7FFFC2046D9
:103BA000FFF7DCFE002010BD2DE9F04104460D4674
:103BB00016461F462A4602212046FFF705FF2046EB
:103BC000FFF73CFDA68367720020BDE8F08170B569
:103BD00004460025FCF7D2FA064604F11400FFF76C
:103BE00072FD28B904F11400FFF7CEFC01250EE0A8
:103BF000A08B4FF6FF71884203DAA08B401CA08394
:103C000005E03046FCF7BEFA6FF0020070BD3046AA
:103C1000FCF7B8FA012D01D1FFF712FF0020F5E7FC
:103C200073B50546FCF7AAFA0646A88B002806DD00
:103C3000A88B401EA8833046FCF7A4FA28E0019820
:103C400028B93046FCF79EFA6FF001007CBD00F009
:103C500041FA0446002020636A7A214605F11400E7
:103C6000FFF7B5FC0198002809DD01AA002104F145
:103C7000440000F041FB04F1440000F099FB3046A1
:103C8000FCF780FAFFF7DCFE206B08B1206BDDE764
:103C90000020DBE708B509A0FFF7D8FC0AA0FFF772
:103CA000D5FC12A0052301220321009012A0FFF7EA
:103CB000CDFC19A0FFF7CAFC08BD00000A205C205B
:103CC0007C202F0A000000002D205254202D20209F
:103CD000202020546872656164204F7065726174A1
:103CE000696E672053797374656D0A004D617220A7
:103CF0003130203230323300202F207C205C2020D5
:103D000020202025642E25642E2564206275696C90
:103D1000642025730A0000002032303036202D2028
:103D20003230323020436F70797269676874206274
:103D3000792072742D746872656164207465616D98
:103D40000A00000070B50346A2B118460C4600BF39
:103D500014F8016B00F8016B3EB902E0002500F891
:103D6000015B551E2A1EF9D102E0551E2A1EEFD115
:103D700000BF00BF184670BD2DE9F04105460E4654
:103D8000E81C20F0030726F00308B8F1180F09D942
:103D9000A8F11800B84205D3A8EB070018381E494F
:103DA000086006E0324629461CA0FFF74FFCBDE83C
:103DB000F0812948076004684FF4F55020801648C8
:103DC00000680C3060600020A0606080224960685C
:103DD00009680844214908604FF4F55009680880D3
:103DE00001201E49096848800B4800680C301B49B7
:103DF00009684860084800680C30184909688860FC
:103E00000023012216A11848FFF7CEFE12480068D1
:103E10001649086000BFCAE7B80000206D656D2034
:103E2000696E69742C206572726F722062656769B1
:103E30006E206164647265737320307825782C205D
:103E4000616E6420656E64206164647265737320C2
:103E5000307825780A000000AC000020B000002077
:103E60006865617000000000CC1E0020B4000020D6
:103E700010B500200B490880002405E00A4901EB39
:103E8000C400FFF7FEFB641C202CF7DB1F20074952
:103E90000870002006490860064908600648FFF7D8
:103EA000F0FB10BD28010020EC1E00203001002096
:103EB0002C010020240100203401002070B50848A6
:103EC0000068FDF7CBFB451E064850F83500A0F111
:103ED00014040548046004F11C00FCF784F970BD6B
:103EE00024010020EC1E00202C01002010B500242D
:103EF00005E0044901EBC400FFF7C6FB641C002C7D
:103F0000F7D010BD3C01002070472DE9FF5F064649
:103F10000F4690461D46DDE90EAB31460120FFF706
:103F2000F3FC8146B9F1000F03D1002004B0BDE8D5
:103F3000F09F2846FFF7F2FB044624B94846FFF7F6
:103F40000DFD0020F2E743463A46314648468DE8EB
:103F5000300CFDF7B9FB4846E8E710B504462046AB
:103F600000F0BEF810BD000070B513480468FCF7FF
:103F700005F905462046FDF718FC2046FFF7CAFD67
:103F8000042084F8340004F1440000F0E6F92046EF
:103F9000FFF745FD012803D12046FFF7F1FC04E0BF
:103FA00004F114010548FFF779FBFFF749FD2846A6
:103FB000FCF7E8F870BD00002C010020340100205F
:103FC00001E000F001F8FCE770B528E0FCF7D6F856
:103FD000054600BF13480168814201D0012100E07D
:103FE000002119B92846FCF7CDF819E00D48006802
:103FF000A0F1140404F11400D0E900215160D0E9CB
:10400000001211604060006000BFA06AFFF7B0F8C6
:104010002046FFF7A3FC2846FCF7B4F800BFD5E71D
:1040200000BF70BD340100201FB520201F21C20039
:10403000074BCDE90032CDE902100023054A06A165
:10404000074800F00FF8064800F06CF81FBD0000AC
:10405000CC1C0020C13F00087469646C650000003E
:10406000541C00202DE9FF5F05460C4616461F46EE
:10407000DDE910ABDDE90E89224601212846FFF774
:10408000A3FC3B463246214628468DE8000FFDF74B
:104090001BFB04B0BDE8F09F70B5044694F83400F3
:1040A00000F00F00022802D04FF0FF3070BDFCF787
:1040B00065F8054604F11400FFF71EFB04F1440007
:1040C00000F0ECF92846FCF75DF82046FFF7FAFC13
:1040D0000020EBE701480068704700002C01002039
:1040E00031B5FCF74BF805460D480468204600F052
:1040F0002FF86A46002104F1440000F0FDF804F1B5
:10410000440000F055F92846FCF73CF8FFF798FC0E
:10411000206B801C08B900202063002038BD0000FF
:104120002C01002010B504463434A078607061780A
:10413000012088406060022004F834092046FFF71F
:10414000ABFFFFF7C7FF08B1FFF77AFC002010BDF7
:1041500070B5044694F8340000F00F00012802D036
:104160004FF0FF3070BDFCF709F805462046FFF719
:10417000D1FC94F8340020F00F0040F0020084F8E5
:10418000340004F1440000F089F92846FBF7FAFFF7
:104190000020E7E770B5044625466FF0010028636C
:1041A00005F11400FFF7A8FA2846FFF78BFCFFF78C
:1041B00047FC70BD70B5FBF7E1FF05461448046885
:1041C00094F8340000F00F0001281CD1D4E9051048
:1041D000814218D004F11400FFF78EFA94F83520CC
:1041E0000C4B03EBC20004F11401426811604268F9
:1041F0004A604160086000BF2846FBF7C3FFFFF735
:104200001FFC002070BD2846FBF7BCFF0020F9E72B
:104210002C010020EC1E00200148006870470000BF
:10422000A400002010B50A480068401C0849086036
:10423000FFF750FF0446206C401E2064206C18B924
:10424000E06B2064FFF7B6FF00F004F810BD00003B
:10425000A40000207CB56846FFF716FAFFF7DCFFE4
:104260000546FBF78BFF06463AE022480068A0F1BE
:104270001404A06A281A6FF0004188422ED220460A
:10428000FDF785FA607A00F0020018B9607A20F034
:104290000100607204F114016846FFF706FAD4E9E0
:1042A00007108847FFF7B8FF05466846FFF713FA7F
:1042B00000B115E004F11400FFF727FA607A00F06E
:1042C000020060B1607A00F0010040B1607A20F035
:1042D00001006072204600F06BF800E005E000BFCE
:1042E0000448FFF7F8F90028BFD000BF3046FBF7BD
:1042F00049FF7CBD3C0100202DE9F04104460E46FB
:104300001546FBF73BFF0746052E1ED2DFE806F0F9
:104310000603090E1300606A286017E028686062CF
:1043200014E0607A20F0020060720FE0607A40F0E2
:10433000020060720AE0607A00F0010010B1012012
:10434000286001E00020286000E000BF00BF384680
:10435000FBF718FF0020BDE8F08170B50446FBF7BD
:104360000DFF05462046FDF712FA607A20F00100A5
:1043700060722846FBF706FF2046FFF701FB00208E
:1043800070BD2DE9F84307460C4615461E46DDE98B
:10439000088922460A213846FFF716FB4346324673
:1043A00029463846CDF80090FDF7D0F9BDE8F883EE
:1043B0002DE9F8430546FBF7E1FE80462846FDF768
:1043C000E6F9687A20F001006872FFF725FF696A54
:1043D0000844A8622F4F009700242AE019E05DF8F6
:1043E00024201168142202EBC402881A826AAB6A84
:1043F000D21A00D108E0826AAB6AD21A6FF0004389
:104400009A4200D20CE000BF5DF8240000684DF82D
:1044100024005DF8240007EBC40149688842DED11E
:1044200000BF2CB15DF824000830611C4DF821005C
:10443000641C002CD2D018480068401C1649086043
:104440000846066805F114010098FFF72EF90224CA
:1044500012E006F0030060B9C4F1010305F1140293
:1044600002EBC301C4F101025DF82200FFF71DF960
:1044700000E003E0B608641C012CEAD900BF687AAA
:1044800040F0010068724046FBF77CFE0020BDE86A
:10449000F88300003C0100204401002070B5044670
:1044A000607A00F0010010B94FF0FF3070BDFBF7EB
:1044B00065FE05462046FDF76AF9607A20F00100A6
:1044C00060722846FBF75EFE0020EFE72DE9FF4F04
:1044D00089B081464C460A9809EB00064E4504D245
:1044E0004FF0FF36A6EB09000A9077E10B980078B1
:1044F000252806D0B44202D20B9800782070641CA4
:1045000069E1002526E00B98401C0B900B98007881
:104510002D2802D145F010051CE00B9800782B28BF
:1045200002D145F0040515E00B980078202802D14F
:1045300045F008050EE00B980078232802D145F0DD
:10454000200507E00B980078302802D145F00105DE
:1045500000E000E0D7E700BF4FF0FF370B9800788E
:1045600030380A2804D20BA800F022FE07460EE0DD
:104570000B9800782A280AD10B98401C0B900C98B5
:1045800080C80C90002F02DA7F4245F010054FF0F2
:10459000FF3A0B9800782E281CD10B98401C0B90EA
:1045A0000B98007830380A2804D20BA800F000FEDF
:1045B00082460AE00B9800782A2806D10B98401C06
:1045C0000B900C9850F804AB0C90BAF1000F01DA84
:1045D0004FF0000A002004900B980078682803D060
:1045E0000B9800786C2805D10B98007804900B98F4
:1045F000401C0B900A2005900B9800786F2873D010
:104600000CDC632813D004DC25286ED058286DD12B
:1046100095E064286BD06928F9D197E0702873D0B1
:10462000732825D075286ED07828F0D18AE005F05F
:10463000100040B904E0B44201D220202070641C74
:10464000781E071EF7DC0C9810F8041B0C90C8B2FB
:104650000790B44201D207982070641C04E0B44271
:1046600001D220202070641C781E071EF7DCB2E007
:104670000C98006806900C98001D0C90069808B9DC
:1046800060A006904FF0000801E008F10108B8456D
:1046900004D0069810F808000028F6D1BAF1000FEF
:1046A00002DDD04500DDD04605F0100048B904E039
:1046B000B44201D220202070641C38467F1E404541
:1046C000F6DC002008900BE0B44202D20698007895
:1046D0002070641C0698401C06900898401C0890A6
:1046E00008984045F0DB09E026E01FE032E02CE0CE
:1046F0000AE0B44201D220202070641C38467F1E9C
:104700004045F6DC67E024E0781C10B9082745F046
:104710000105CDE9007A02950C9804C810233146B2
:104720000C902046FDF7D4FF044654E0B44201D279
:1047300025202070641C4EE0082005901DE045F007
:10474000400500BF1020059017E000BF45F00205AE
:1047500000BF12E0B44201D225202070641C0B98E7
:10476000007830B1B44202D20B9800782070641CFB
:1047700002E00B98401E0B902DE000BF04986C28BF
:1047800007D10C9850F804BB0C9005F00200B8B1AA
:1047900016E0049868280BD10C9830F8041B1FFA17
:1047A00081FB0C9005F0020050B10FFA8BFB07E083
:1047B0000C9850F804BB0C9005F0020000B100BF4B
:1047C000CDE9007A02955A4631462046059BFDF711
:1047D0007FFF044600BF0B98401C0B900B9800789D
:1047E00000287FF483AE0A9838B1B44202D2002088
:1047F000207002E0002006F8010CA4EB09000DB0C7
:10480000BDE8F08F284E554C4C2900000020704721
:1048100000207047002070470020704710B5FBF75C
:10482000ADFCFEF71DFDFFF735FAFFF75FFBFFF765
:104830001FFBFEF737FCFFF767FBFFF7F5FBFFF702
:104840003DFB002010BD00002DE9F04704468846DE
:10485000164600250027A9462046FDF7EDFBB0428D
:1048600004DA2046FDF7E8FB074600E0374600BFC4
:104870002046FDF74FFC81464FF4427101EB441096
:10488000FCF7A4FA0546172D03D01C2D01D00027F4
:1048900001E0B945ECDB00BF3A464146204600F056
:1048A0004BF84FF4847101EB44102021FCF7ADFA72
:1048B00000BF4FF4847101EB4410FCF787FA002825
:1048C000F7D113E04FF4427101EB4410FCF77EFA8C
:1048D0000546172D0AD01C2D08D011A0FEF7B6FEF4
:1048E0002046FDF705F90020BDE8F0874FF402717E
:1048F00001EB4410FCF76AFA00F010001028E1D137
:104900004FF4027101EB44101021FCF77EFA4FF4D2
:10491000027101EB44101021FCF777FA3846E3E707
:104920002053454E445F4F4B2050726F626C656D53
:1049300021210D0A000000002DE9F04104460F4638
:1049400016460025A8462EB9214618A0FEF77EFE81
:10495000BDE8F08142F2084101EB4410FCF736FA61
:10496000054642F2085101EB4410FCF72FFA00EB28
:10497000052085B2280200EB441000F110083246F1
:104980003946404600F060FEA81985B2290A42F275
:10499000084202EB4410FCF738FAE9B242F208523E
:1049A00002EB4410FCF731FA00BFD1E72043483A4C
:1049B00020256420556E65787065637465643120C8
:1049C0006C656E67746820300D0A00002DE9F047B1
:1049D0000446894616461D46089F4FF000082046AB
:1049E000FDF72AFBB04204DA2046FDF725FB80469E
:1049F00000E0B046287828B9687818B9A87808B9CE
:104A0000E87800B117B94FF0000863E0297840F664
:104A1000084202EB4410FCF7F8F9697840F60852B6
:104A200002EB4410FCF7F1F9A97840F6086202EBBA
:104A30004410FCF7EAF9E97840F6087202EB4410FA
:104A4000FCF7E3F9390A41F2080202EB4410FCF7E3
:104A5000DCF9F9B241F2081202EB4410FCF7D5F987
:104A6000424649462046FFF767FF4FF4847101EB49
:104A700044102021FCF7C9F900BF4FF4847101EB09
:104A80004410FCF7A3F90028F7D112E04FF40271AB
:104A900001EB4410FCF79AF900F0080048B14FF41C
:104AA000027101EB44101821FCF7AFF90020BDE8BA
:104AB000F0874FF4027101EB4410FCF787F900F026
:104AC00010001028E2D14FF4027101EB44101021C4
:104AD000FCF79BF94046EAE730B587B004460D463F
:104AE000002001900290039020788DF810006078EB
:104AF0008DF81100A0788DF812002079E17840EA55
:104B00000120C0B28DF8130060798DF814009DF873
:104B10001210FEA0FEF79AFD9DF812000D2876D225
:104B2000DFE800F0750708090A0B76E0FEFDFCFBE4
:104B3000FA0008E207E206E205E29DF811008DF8AE
:104B400004009DF810008DF805009DF812008DF806
:104B500006009DF8130000128DF807009DF8130061
:104B60008DF808009DF814008DF80900062201A9AF
:104B70002846FFF769FE9DF81010E9484069E84AA9
:104B800052F8200061F303001146496942F8210000
:104B90009DF811101046406952F8200061F307108B
:104BA0001146496942F821009DF8121010464069EB
:104BB00052F8200061F30C201146496942F82100A7
:104BC0009DF813101046406952F8200061F35C30E4
:104BD0001146496942F821009DF8141010464069B9
:104BE00052F8200061F35F701146496942F82100D4
:104BF00010464069401C052190FBF1F201FB1200B8
:104C0000C7494861C7480068FEF7E1FF9BE199E1A9
:104C10009DF811008DF804009DF810008DF8050036
:104C20009DF812008DF806009DF8130000128DF813
:104C300007009DF813008DF808009DF814008DF80A
:104C40000900062201A92846FFF7FEFD9DF8101075
:104C5000B3484069B24A52F8200061F3030011469C
:104C6000496942F821009DF811101046406952F838
:104C7000200061F307101146496942F821009DF8B0
:104C800012101046406952F8200061F30C201146C2
:104C9000496942F821009DF813101046406952F806
:104CA000200061F35C301146496942F821009DF80B
:104CB00014101046406952F8200061F35F701146ED
:104CC000496942F8210010464069401C052190FBCB
:104CD000F1F201FB12009249486192480068FEF728
:104CE00076FF30E19DF811008DF804009DF810006A
:104CF0008DF805009DF812008DF806009DF8130050
:104D000000128DF807009DF813008DF808009DF83B
:104D100014008DF8090004E08EE08CE08AE088E061
:104D200050E0062201A92846FFF78EFD9DF81010DD
:104D30007B4840697A4A52F8200061F3030011462B
:104D4000496942F821009DF811101046406952F857
:104D5000200061F307101146496942F821009DF8CF
:104D600012101046406952F8200061F30C201146E1
:104D7000496942F821009DF813101046406952F825
:104D8000200061F35C301146496942F821009DF82A
:104D900014101046406952F8200061F35F7011460C
:104DA000496942F8210010464069401C052190FBEA
:104DB000F1F201FB12005A4948615A480068FEF7B7
:104DC00006FFC0E058488078002141EAC0005649FB
:104DD000897A40EA81005449097A40EA41005249FF
:104DE00089790843C0B28DF813009DF811008DF841
:104DF00004009DF810008DF805009DF812008DF854
:104E000006009DF8130000128DF807009DF81300AE
:104E10008DF808009DF814008DF80900062201A9FC
:104E20002846FFF711FD9DF8081040A0FEF70EFC84
:104E300089E088E087E086E09DF811008DF80400A5
:104E40009DF810008DF805009DF812008DF8060001
:104E50009DF8130000128DF807009DF813008DF8DF
:104E600008009DF814008DF80900062201A92846C3
:104E7000FFF7EAFC9DF8101029484069284A52F8CB
:104E8000200061F303001146496942F821009DF8B2
:104E900011101046406952F8200061F307101146C6
:104EA000496942F821009DF812101046406952F8F5
:104EB000200061F30C201146496942F821009DF859
:104EC00013101046406952F8200061F35C3011461F
:104ED000496942F821009DF814101046406952F8C3
:104EE000200061F35F701146496942F821001046C5
:104EF0004069401C052190FBF1F201FB12000849BA
:104F0000486108480068FEF762FE1CE06E65745F49
:104F1000636F6D6D2E636D643D25640A00000000B3
:104F2000500D00204400002060030020736572765D
:104F300065725F6261636B5F6275665B345D3D25C0
:104F4000780A000000BF00BF07B030BD10B50446AE
:104F500004222146900100F077FB10BD10B50446F5
:104F600021464FF4D850FBF750FF10BD10B5044652
:104F7000210A4FF4C850FBF748FFE1B24FF4D0507C
:104F8000FBF743FF10BD10B50446062221464FF43F
:104F9000106000F059FB10BD10B5044604222146F4
:104FA0004FF4706000F050FB10BD10B504460422B1
:104FB00021464FF4A06000F047FB10BD70B50446D9
:104FC0000D464FF4027101EB44102946FBF71DFF1B
:104FD00070BD000008B506222D492E48FEF754FC8E
:104FE00004222D492B48801DFEF74EFC04222B493C
:104FF00028480A30FEF748FC0422294925480E308B
:10500000FEF742FC0422274922481230FEF73CFCFE
:1050100025480078012802D124A0FEF717FB0120C3
:105020001C49887600211B48C1760A30FFF7BDFF76
:1050300018480E30FFF78AFF1648801DFFF7ACFFB7
:105040001548FDF710F81448C0780090124883788E
:105050004278017818A0FEF7F9FA1048FDF715F824
:105060000E48C07800900D488378427801781BA0E4
:10507000FEF7ECFA0A48FCF7D7FF0948C078009021
:1050800007488378427801781DA0FEF7DFFA08BD53
:1050900064000020E40D00206A0000206E00002063
:1050A0007200002076000020820000205735353045
:1050B000303A0D0A000000002057353530302049C5
:1050C0005020616464722069732020203A20256496
:1050D0002E25642E25642E25640D0A0020573535B3
:1050E0003030207375626E6574206973203A202514
:1050F000642E25642E25642E25640D0A0000000010
:1051000020573535303020676174776179206973B5
:1051100020202020203A2025642E25642E25642E70
:1051200025640D0A000000003EB511480468200CFB
:105130001049C870200A08714C710F480A68026053
:1051400089888180FFF71FFF0A48FCF783FF094821
:10515000407908490979074AD278CDE900210290BF
:10516000044883784278017804A0FEF76FFA3EBDC8
:10517000E8F7FF1F64000020E40D002020573535BC
:105180003030204D414320697320203A20253032B1
:10519000782E253032782E253032782E2530327810
:1051A0002E253032782E253032780D0A000000008E
:1051B0000146002009E00B685A1C0A601A7800EBCF
:1051C000800302EB4302A2F130000A681278303A01
:1051D0000A2AF0D3704700002DE9F04104460D463D
:1051E0001646984605F00F0001280FD005F00F0075
:1051F00002280BD005F00F00032807D005F00F00A0
:10520000042803D005F00F00052841D12046FCF703
:105210006FFC45EA0801082202EB4410FBF7F5FD9C
:1052200076B1310A4FF4816202EB4410FBF7EDFDD9
:10523000F1B24FF4A16202EB4410FBF7E6FD15E07A
:1052400015480088401C144908800A461288110A33
:105250004FF4816202EB4410FBF7D7FD0E4A117840
:105260004FF4A16202EB4410FBF7CFFD4FF48471C1
:1052700001EB44100121FBF7C8FD00BF4FF484711E
:1052800001EB4410FBF7A2FD0028F7D1012700E055
:1052900000273846BDE8F0817A0000202DE9F04172
:1052A00005460E460027B846002433E0295D41F646
:1052B000087202EB4410FBF7A8FD315D41F608626D
:1052C00002EB4410FBF7A1FD0020144921F8140063
:1052D000134921F81400B7F5804F07DC285D4FF61D
:1052E000FF7101EA80200D4921F81400B8F5804FC4
:1052F00007DC305D4FF6FF7101EA8020084921F894
:105300001400064830F814000744054830F814002B
:105310008044641C082CC9DBBDE8F081C40D00206A
:10532000D40D002010B5044600BF02210A48FBF747
:1053300040FF0028F9D021460748FBF746FF00BF91
:1053400001210548FBF735FF0028F9D00248FBF79B
:1053500038FFC0B210BD00000030014010B5024857
:10536000FCF77BF810BD0000002C01402DE9F04F48
:1053700087B006460F4690469946DDE910AB0024FB
:1053800000250020019000905D4600BF3046FCF7EC
:10539000B8FE78B942F6087101EB46100221FBF71E
:1053A00034FD3A46791C8FB2202301213046FFF7A5
:1053B00013FF18E03046FCF7A4FE132805D14A4637
:1053C00041463046FCF7AEFB0DE03046FCF799FE57
:1053D0001C2808D13046FCF72FFC3046FCF788FB30
:1053E0006420FEF7BAFD0A20FEF7B7FD601C84B208
:1053F0000A2C0DDB00243046FCF71EFC3046FCF77F
:1054000077FB6420FEF7A9FD002007B0BDE8F08F10
:105410003046FCF776FE1728B8D100242A465146BC
:105420003046FFF711FA00BF3046FCF737FE00F0B8
:10543000010018B101213046FFF7C0FD3046FCF7EE
:1054400036FE05460A20FEF788FD601C84B20A2C51
:105450000BDB00243046FCF7EFFB3046FCF748FB43
:105460006420FEF77AFD0020CFE7002DDCDD00246C
:105470002A4602A93046FDF7F7F9002002A948554F
:1054800002A8FBF7DFFB00903046FCF7D5FB304667
:10549000FCF72EFB6420FEF760FD0098B5E7F0B541
:1054A000D1B004460E46002500272046FCF729FE11
:1054B00030B1132812D0172814D01C2836D12EE072
:1054C00042F6087101EB44100221FBF79EFC2023F9
:1054D000324601212046FFF77FFE27E02046FCF7F9
:1054E000F7FE23E02046FCF7D9FD00F0010018B1DB
:1054F00001212046FFF762FD2046FCF7D8FD054656
:10550000002D0BDD2A4601A92046FDF7ADF900204C
:1055100001A94855214601A8FFF7DEFA06E020461A
:10552000FCF78AFB2046FCF7E3FA00BF00BF51B04E
:10553000F0BD000008B56846FBF725FC44F2040006
:10554000FBF71CFD88208DF803004FF40070ADF8C8
:10555000000003208DF8020069461448FBF7C6FBE3
:1055600069461248FBF7C2FB4FF48060ADF80000BB
:1055700004208DF8030069460C48FBF7B7FB4FF495
:105580008040FBF7FBFC0A480A4908600C2088723F
:1055900000200881C880888088810748FBF770FF59
:1055A0000548FBF7B5FF002008BD000000080140DA
:1055B00020A10700EC4300200038014010B504464C
:1055C00024B910210548FBF7F8FB05E0012C03D1B5
:1055D00010210248FBF7F3FB10BD0000000801405A
:1055E0002DE9F04104460F461546002615B910A0D6
:1055F000FEF72CF8FCF75AFEC4F30740FBF7FFFB5D
:10560000C4F30720FBF7FBFB04F0F800FBF7F7FB04
:10561000002605E00020FBF7F2FBB855701C86B2AF
:10562000AE42F7DBFCF747FE2846BDE8F0810000FC
:1056300020556E657870656374656432206C656EA4
:1056400067746820300D0A002DE9F04104460F46CA
:105650001546002615B910A0FDF7F8FFFCF726FE49
:10566000C4F30740FBF7CBFBC4F30720FBF7C7FBF2
:1056700004F0F801091DC8B2FBF7C1FB002604E0E5
:10568000B85DFBF7BCFB701C86B2AE42F8DBFCF7E2
:1056900012FE2846BDE8F08120556E65787065637E
:1056A00074656432206C656E67746820300D0A0082
:1056B00000000100020001000300010002000100DF
:1056C00004000100020001000300010002000100CB
:1056D00005000100020001000300010002000100BA
:1056E00004000100020001000300010002000100AB
:1056F0000600010002000100030001000200010099
:10570000040001000200010003000100020001008A
:105710000500010002000100030001000200010079
:10572000040001000200010003000100020001006A
:105730000700010002000100030001000200010057
:10574000040001000200010003000100020001004A
:105750000500010002000100030001000200010039
:10576000040001000200010003000100020001002A
:105770000600010002000100030001000200010018
:10578000040001000200010003000100020001000A
:1057900005000100020001000300010002000100F9
:1057A00004000100020001000300010002000100EA
:1057B0003031323334353637383961626364656687
:1057C000003031323334353637383941424344457D
:1057D0004600000019480008114800083555000827
:1057E0000D4800081548000808580008000000206F
:1057F0004801000094020008745800084801002085
:10580000B8460000B81600081144A24A04000B4232
:10581000EFFA040106EFFA050120DA020111100D7A
:1058200008DC111111C0A80119FFFFFF19081B01A5
:1058300072011B611E0A0541FA611E01294222C83C
:105840002A20042A7880311AD80C290429CF32035F
:105850001AE80C2904322432051AF80C29043230D3
:1058600032061308012A2004323C320A1A180C2985
:045870000402272CDB
:0400000508000145A9
:00000001FF
