:020000040800F2
:1000000018450020590100081B10000821020008B3
:100010001710000819030008F91700080000000075
:100020000000000000000000000000000D120008A9
:100030003D0F000800000000AB0100080F1200088F
:1000400073010008730100087301000873010008C0
:1000500073010008730100087301000873010008B0
:1000600073010008730100087301000873010008A0
:100070007301000873010008730100087301000890
:1000800073010008610C00087301000809170008DB
:10009000811700087301000873010008730100084C
:1000A00073010008C91300087301000873010008F8
:1000B0007301000873010008730100087301000850
:1000C0007301000873010008730100087301000840
:1000D0007301000873010008C914000831150008F5
:1000E0007301000873010008730100087301000820
:1000F0007301000873010008730100087301000810
:1001000073010008730100087301000873010008FF
:1001100073010008730100087301000873010008EF
:1001200073010008730100087301000873010008DF
:10013000000000007301000873010008730100084B
:1001400073010008DFF80CD000F0A4F80048004765
:100150000F0300081845002006488047064800475E
:10016000FEE7FEE7FEE7FEE7FEE7FEE7FEE7FEE767
:10017000FEE7FEE76913000845010008EFF3108071
:1001800072B6704780F310887047324A1368012BAB
:1001900004D04FF0010313602F4A10602F4A116002
:1001A0002F484FF0805101607047EFF3108272B614
:1001B0002848016891B14FF00001016026480168AC
:1001C00029B1EFF3098121E9F00F006801602349AB
:1001D00009680968B1E8F00F81F3098882F3108893
:1001E0004EF0040E70471D4908601B494FF0000097
:1001F000086018494FF0010008601A481A49D0F801
:10020000002041EA0201016015484FF08051016071
:1002100016480068006880F3088861B662B67047C7
:100220001EF0040F0CBFEFF30880EFF3098020E904
:10023000F00F40F804ED1EF0040F0CBF80F30888A7
:1002400080F3098800B503F0ADF95DF804EB4EF0DA
:10025000040E7047840000207C00002080000020F5
:1002600004ED00E020ED00E00000FFFF08ED00E0FD
:10027000D2B201E000F8012B491EFBD270470022E8
:10028000F6E710B513460A4604461946FFF7F0FF95
:10029000204610BD064C074D06E0E06840F0010323
:1002A00094E8070098471034AC42F6D3FFF74EFFAE
:1002B0004C4E00086C4E000870B58C1810F8015BAD
:1002C00015F0070301D110F8013B2A1106D110F8EF
:1002D000012B03E010F8016B01F8016B5B1EF9D1F3
:1002E0002B0705D40023521E0DD401F8013BFAE779
:1002F00010F8013BCB1A921C03E013F8015B01F8E4
:10030000015B521EF9D5A142D8D3002070BD10B5B3
:1003100004F0D8FB002010BD00BFFEE7B1F5007F60
:100320005ED00FDC20293DD006DC01291CD0042939
:100330002CD0082975D12FE0402939D0B1F5807F24
:100340006FD147E0B1F5004F60D006DCB1F5806FAA
:100350004CD0B1F5006F64D14EE0B1F5803F2DD0A7
:10036000B1F5003F5DD12FE0826822F00102521CFE
:100370008260826822F4807202F5807282608268F4
:1003800022F4803202F5803282604BE0C26822F0B3
:1003900008020832C26045E0C26822F01002103242
:1003A000C2603FE0026922F008020832026139E0CF
:1003B000026922F010021032026133E0426822F03A
:1003C0000802083242602DE0426822F0100210322A
:1003D000426027E0426822F00402121D426021E0E0
:1003E000426822F00402121D42601BE0426822F0C3
:1003F0000402121D426015E0826922F070028261DF
:10040000426822F00402121D42600BE0826922F071
:1004100070028261426822F00402121D426001E013
:10042000FFE700BF00BF704730B502460020002341
:10043000146824F002041460146824F00104641C9D
:10044000146000E05B1C546804F001041CB94FF612
:10045000FF74A342F6D1546804F001040CB90020E3
:1004600074E00C78012C05D1146824F04004403469
:10047000146003E0146824F0400414604C78012CEC
:1004800005D1146824F020042034146003E01468BB
:1004900024F0200414608C78012C05D1146824F019
:1004A00010041034146003E0146824F01004146085
:1004B000CC78012C05D1146824F0080408341460A9
:1004C00003E0146824F0080414600C79012C05D1B1
:1004D000146824F00404241D146003E0146824F05C
:1004E00004041460D46924F04044D461D4694D7983
:1004F00044EA8574D4618D79D46965F31964D46153
:10050000CD79D46965F31344D4610D7AD46965F368
:100510001654D4614C89641ED56964F30905D5610C
:10052000146824F001041460002300E05B1C54688C
:1005300004F001041CB14FF6FF74A342F6D15468D5
:1005400004F001040CB1002000E0012030BD10B522
:10055000D0F8002222F00102521CC0F80022D0F88C
:100560001C220C780123A3409A43C0F81C228A7BEA
:10057000D2B9D0F80C220C780123A3409A43C0F8DA
:100580000C228A880B8942EA03430C7800F510722A
:1005900042F834304A88CB8842EA03430C7800F5AD
:1005A000107202EBC40253608A7B012A1AD1D0F880
:1005B0000C220C780123A3401A43C0F80C228A882D
:1005C0004B8842EA03430C7800F5107242F834304D
:1005D0000A89CB8842EA03430C7800F5107202EBDB
:1005E000C40253604A7B42B9D0F804220C7801233C
:1005F000A3409A43C0F8042207E0D0F804220C7804
:100600000123A3401A43C0F804220A7B3AB9D0F868
:1006100014220C780123A3409A43C0F814220A7BC9
:10062000012A07D1D0F814220C780123A3401A43E1
:10063000C0F814224A89012A07D1D0F81C220C786C
:100640000123A3401A43C0F81C22D0F8002222F054
:100650000102C0F8002210BD0021017041708170BC
:10066000C1700171417181710321C1710221017257
:1006700001214181704742698A4342617047426962
:100680000A43426170470246002053690B40002B29
:100690006CD0B1F5807F52D010DC082937D006DC51
:1006A000012920D002292AD004295CD12BE010296D
:1006B00031D0202933D0402955D134E0B1F5004F55
:1006C0004DD009DCB1F5007F3DD0B1F5806F3ED053
:1006D000B1F5006F47D13EE0B1F5803F27D0B1F5CD
:1006E000003F40D127E0936803F001009368C3F313
:1006F000002318439368C3F30043184335E0D368DD
:1007000003F0030031E0D368C3F3C0002DE0D368E9
:10071000C3F3001029E0136903F0030025E0136917
:10072000C3F3C00021E01369C3F300101DE0536858
:10073000C3F3C00019E05368C3F3001015E09369D8
:1007400003F0010011E09369C3F340000DE09369E9
:10075000C3F3800009E09369C3F3021005E0536816
:10076000C3F3800001E0002000BF00E000207047DC
:1007700010B504460B48844208D14FF0007000F0D9
:10078000BFFC4FF0007000F0A3FC0AE00648844272
:1007900007D14FF0806000F0B3FC4FF0806000F0B4
:1007A00097FC10BD006400400068004010B500F5E3
:1007B000D87303EB01131B6803F004039360936881
:1007C00053B900F5D87303EB01131B6840F2FF74B3
:1007D00004EA5353136009E000F5D87303EB0113E7
:1007E0001B686FF0604404EAD303536000F5D873CC
:1007F00003EB01131B68C3F34003D36000F5D87308
:1008000003EB01135B6803F00F03137400F5D87357
:1008100003EB01135B681B0A537600F5D87303EBF7
:1008200001139B68537400F5D87303EB01139B68A5
:100830001C0A947400F5D87303EB01139B681C0C1D
:10084000D47400F5D87303EB01139B681C0E147568
:1008500000F5D87303EB0113DB68537500F5D8730B
:1008600003EB0113DB681C0A947500F5D87303EBE6
:100870000113DB681C0CD47500F5D87303EB01136E
:10088000DB681C0E147629B9C36823F020032033DB
:10089000C36004E0036923F020032033036110BD2B
:1008A00010B502460023906800F08060B0F1806FC0
:1008B00000D111E0906800F00060B0F1006F01D14C
:1008C000012309E0906800F08050B0F1805F01D111
:1008D000022301E0032010BD02F5C07000EB0310FD
:1008E000006800F0010402F5C07000EB0310046022
:1008F000087A78B9487A0C8840EA445002F5C07406
:1009000004EB03142468204302F5C07404EB0314C1
:10091000206010E0087A4C6840EAC4004C7A20431A
:1009200002F5C07404EB03142468204302F5C0747C
:1009300004EB03142060887A00F00F00887202F53F
:10094000C07000EB0310406820F00F0402F5C07087
:1009500000EB0310446002F5C07000EB0310406828
:100960008C7A204302F5C07404EB03146060887B2A
:100970000406487B44EA0044087B44EA0020CC7A21
:10098000204302F5C07404EB0314A060887C0406C5
:10099000487C44EA0044087C44EA0020CC7B2043A5
:1009A00002F5C07404EB0314E06002F5C07000EBC4
:1009B0000310006840F0010402F5C07000EB031062
:1009C0000460184687E7000000B589B0042000F0F5
:1009D0009FFB4FF0007000F08BFB4FF48050ADF8A0
:1009E000200088208DF8230003208DF8220008A91C
:1009F0002C4800F0A4FA4FF40060ADF82000482025
:100A00008DF8230003208DF8220008A9254800F066
:100A100096FA2548FFF7ACFE05A8FFF71DFE01205A
:100A20008DF814008DF8150000208DF816008DF853
:100A300017008DF818008DF819008DF81A000A209B
:100A40008DF81B0002208DF81C002820ADF81E0038
:100A500005A91548FFF7E8FC00208DF804008DF883
:100A6000110001208DF812000020ADF80600ADF84D
:100A70000800ADF80A00ADF80C008DF81000012058
:100A8000ADF80E0001A90848FFF761FD0122002121
:100A9000132000F0CDFA01220021142000F0C8FA42
:100AA00009B000BD0008014000640040002211466A
:100AB0001BA003F0ADF91C4908602FE04FF0FF3197
:100AC0001948006803F000FA1849086008460068F1
:100AD00020B11548006803F0B0F91FE016E0144893
:100AE00090F81901C0EBC000114A02EB80011148D7
:100AF00001F0D6FE0E4890F81901401C0A2190FB27
:100B0000F1F201FB12000A4981F81901084890F836
:100B10001801074991F819118842E0D1CEE7000089
:100B200063616E5F73656D003C000020480000202B
:100B3000FC010020AC0C002086B0002400BF4FF464
:100B400084000190029004208DF80C0000208DF8A4
:100B50000D0008208DF80E0000208DF80D0067E0D4
:100B60004FF0FF313348006803F0AEF932490860B6
:100B70000846006820B12F48006803F05EF957E08E
:100B80002E4840692D498969884220D02CA002F066
:100B9000B1FE2A488069294951F8200002900220BC
:100BA0008DF80D0004208DF80C0008208DF80E0043
:100BB00001A9294801F09CFA20488069401C0521C0
:100BC00090FBF1F201FB12001C49886130E0002427
:100BD00020E02248D0F86402C0EBC002C2EBC01093
:100BE0001E4A104400EBC40108220DF10F0002F070
:100BF0009FFF44F04000019000208DF80D00082078
:100C00008DF80E0000208DF80C0001A9124801F0AB
:100C10006FFA641C0A2CDCDB1048D0F86402401C1C
:100C2000052190FBF1F201FB12000C49C1F86402AE
:100C300096E70000440000204C00002090160020A1
:100C400073656E642072656D6F74655F63616E209D
:100C50006D73670A00000000006400400417002064
:100C600010B54FF0007000F0ABF8E0B3214890F8F9
:100C7000DD05204991F8DC15884224D01E4800F09B
:100C80008BF81C4890F8DC05C0EB001000EB8000EE
:100C9000184A02EB40017822184802F049FF7821F7
:100CA000154800F06AF8144800F07BF8114890F8F5
:100CB000DC05401C0A2190FBF1F201FB12000D49FA
:100CC00081F8DC050EE00B4890F8DD05094991F844
:100CD000DC15884206D1084800F05EF8002005497E
:100CE00081F8DE0500E003E04FF0007000F008F846
:100CF00010BD0000CC060020800002404803002008
:100D000000F0805111B10349086001E002494860D8
:100D10007047000004040240000002400B7A0268A1
:100D200063F3041202600B7D026863F345120260F4
:100D30000B7C026863F3861202604B7C026863F3EB
:100D4000C71202608B7C026863F309220260CB7CCD
:100D5000026863F38B2202604B7D026863F30D32FD
:100D600002608B7D026863F38E320260CA68426063
:100D70000A6882604A68C26070474160704700211B
:100D8000016041600172C160017441748174C17479
:100D90000175417581757047016821F0010101609D
:100DA0007047016821F00101491C01607047026829
:100DB0000A43026070470146486880B270470000ED
:100DC000014601F0805038B107480068084008B17A
:100DD000012070470020FCE704480068084008B183
:100DE0000120F6E70020F4E7000402400000024082
:100DF000016821F001010160002101604160C160D2
:100E000081604C49884208D14A490839496861F0F3
:100E10000F01484A083A51608AE046491431884235
:100E200008D144490839496861F0F001414A083A5B
:100E300051607DE03F492831884208D13D49083959
:100E4000496861F470613B4A083A516070E0394981
:100E50003C31884208D137490839496861F470410A
:100E6000344A083A516063E032495031884208D12F
:100E700030490839496861F470212E4A083A5160B6
:100E800056E02C496431884208D12A49083949681A
:100E900061F47001274A083A516049E025497831E8
:100EA000884208D123490839496861F07061214AB4
:100EB000083A51603CE02049884206D1011F096888
:100EC00061F00F01021F116032E01B4914318842AA
:100ED00008D11949091F096861F0F001164A121F6B
:100EE000116025E014492831884208D11249091FB0
:100EF000096861F47061104A121F116018E00E4910
:100F00003C31884208D10C49091F096861F47041DD
:100F1000094A121F11600BE007495031884207D17E
:100F20000549091F096861F47021034A121F116005
:100F30007047000008000240080402407047F0B506
:100F4000CF7807F00F06CF7807F080070FB18F78C2
:100F50003E430F78E7B104680023012215E00F88B3
:100F600017407FB19D000F27AF40BC4306FA05F73D
:100F70003C43CF78282F01D1426103E0CF78482F3E
:100F800000D102615F1CFBB25200082BE7DB04605A
:100F90000F8807F47F47F7B1446808235A0117E028
:100FA0000F8817408FB1A3F10807BD000F27AF408E
:100FB000BC4306FA05F73C43CF78282F01D14261A4
:100FC00003E0CF78482F00D102615F1CFBB25200D2
:100FD000102BE5DB4460F0BD4FF6FF71018002216C
:100FE00081700421C1707047024693680B400BB1B9
:100FF000012300E00023184670470246D3680B40E7
:101000000BB1012300E00023184670470AB10161CB
:1010100000E04161704700BFFEE7704702490143AD
:10102000024A1160704700000000FA050CED00E074
:101030002DE9F04305460F4690462348006800F42A
:10104000E069B9F5A06F13D006DCB9F5407F15D083
:10105000B9F5806F15D10EE0B9F5C06F05D0B9F5BF
:10106000E06F0ED10023042412E0012303240FE0DB
:10107000022302240CE00323012409E004230024BA
:1010800006E04FF4E060FFF7C9FF0023042400BF2F
:1010900000BFC3F10403C4F1040407FA03F60F20F0
:1010A000204100EA0800064336010848465505F08D
:1010B0001F01012088406911890001F1E021C1F878
:1010C0000001BDE8F08300000CED00E000E400E06A
:1010D000024909698143014A1161704700100240C9
:1010E000024949690143014A5161704700100240B9
:1010F0000249C9690143014AD161704700100240A9
:10110000024909690143014A116170470010024018
:10111000024989690143014A916170470010024008
:101120007FB509A30FCB8DE80F0000F03DF8064610
:1011300009484068C0F303101DF8004026FA04F582
:10114000284604B070BD0000000000000000000050
:10115000010203040607080900100240FCB504461A
:101160000D460EA103C9CDE90001FFF7D9FF0746DF
:1011700044B10C484068C0F302201DF8006027FA13
:1011800006F0206045B107484068C0F3C2201DF852
:10119000006027FA06F02860FCBD00000000000097
:1011A0000102030400100240154B5B6803F00300CA
:1011B00020B1012804D002281DD103E011481CE011
:1011C00010481AE00E4B5B68C3F383439A1C0C4B28
:1011D0005B68C3F3004151B10A4B02FB03F0084BBB
:1011E0005B68C3F340438B4204D1400802E0064BE6
:1011F00002FB03F001E0034800BF00BF704700009E
:101200000010024000127A0000093D00704710B53E
:1012100002F062FD10BD000008B53448006820F4FB
:10122000803000F58030314908600020009008E0EF
:101230002E480068C0F3404000B106E00098401C12
:1012400000900098B0F5A04FF2D300BF2748006887
:10125000C0F34040002848D02548006820F0100026
:101260001030234908600846006820F00700C01CC1
:1012700008601E48406820F0F0001C49486008469D
:10128000406820F4605048600846406820F4E06000
:1012900000F5806048600846406820F4803000F522
:1012A000803048600846406820F4701000F5201037
:1012B00048600846006820F0807000F18070086087
:1012C00000BF0A480068C0F340600028F9D0074812
:1012D000406820F00300801C0449486000BF0348B8
:1012E0004068C0F381000228F9D108BD0010024017
:1012F0000020024010B5FFF78FFF10BD164B5B6852
:1013000003F0030020B1012804D002281DD103E01E
:1013100012481CE011481AE00F4B5B68C3F383438B
:101320009A1C0D4B5B68C3F3004151B10B4B02FBA0
:1013300003F0094B5B68C3F340438B4204D1400880
:1013400002E0074B02FB03F001E0044800BF00BFCE
:10135000044B1860704700000010024000127A0031
:1013600000093D000000002010B51348006820F07F
:101370000100401C10490860084640680F490840B9
:101380000D494860084600680D4908400A49086050
:101390000846006820F4802008600846406820F471
:1013A000FE0048604FF41F008860FFF7A3FF4FF076
:1013B00000600449086010BD001002400000FFF802
:1013C000FFFFF6FE08ED00E010B50121094800F02E
:1013D00070F801280DD108480078012805D103F0E4
:1013E000D5FB0648006802F046FD0121014800F0E7
:1013F00007F810BD002C01402100002054000020FF
:10140000CA4302617047000010B51B4B98420ED0D2
:101410001A4B98420BD0B0F1804F08D0184B98422D
:1014200005D0184B984202D0174B984207D1036859
:101430009AB240F28F331A400B781A430260134B72
:10144000984207D0124B984204D04C78036864F35A
:10145000092303604B88C3628B888362064B9842E2
:1014600002D0064B984201D18B790363436923F084
:1014700001035B1C436110BD002C0140003401409E
:101480000004004000080040000C00400010004034
:1014900000140040016821F00101016070470168FB
:1014A00021F00101491C01607047C2680A43C26013
:1014B000704702461069084020B1D068084008B162
:1014C000012070470020FCE710B5002413491448A0
:1014D00000F0EEF880B11149114800F065F81048AD
:1014E000001D00684FF48010FFF70AFC03F012FBA8
:1014F00001200C49087010E00B49094800F0D8F8A9
:1015000058B901200949C1F868020749044800F0A8
:101510004BF80549024800F097F810BD100001048F
:101520000044004021000020200001050417002095
:1015300010B500241549164800F0BAF828B314482D
:10154000001D00681348FFF727FC1020FFF7D8FBA9
:101550001048FFF730FCC0F1960474B10E490C70CE
:1015600001200E490870962200210D4802F0FDFA74
:1015700022460C490A4802F0DBFA96210548FFF79B
:10158000FCFB01210348FFF712FC10BD1000010411
:1015900000480040300002402400002023000020CA
:1015A00036060020A00500200A0E012303FA02F2ED
:1015B00003689343036070472DE9F84305460E46E0
:1015C000EC684EF6F3100440B07A31890843B188D4
:1015D00008430443EC602C694CF6FF700440F0882B
:1015E00004432C616C694FF6FF400440B08904430A
:1015F0006C611448854204D169460020FFF7AEFDB6
:1016000003E000216846FFF7A9FD009800EBC00148
:1016100001EB001031688900B0FBF1F86420B8FBE1
:10162000F0F004012009642101FB1087322000EB57
:101630000710B0FBF1F000F00F000443AC60BDE810
:10164000F8830000003801408BB2DA4301F48033A4
:1016500013B1C3681340C36001F4003313B10369CD
:101660001340036101F4802313B1436913404361C4
:101670007047C16821F4005101F50051C160704705
:1016800042690A43426170478AB201F4803313B160
:10169000C3681343C36001F4003313B103691343F8
:1016A000036101F4802313B143691343436170471D
:1016B00010B5024601F4803018B1D068084083B2FA
:1016C00009E001F4003018B11069084083B202E06B
:1016D0005069084083B20C0E012000FA04F410682F
:1016E000044014B10BB1012010BD0020FCE70246FC
:1016F0001068084008B1012070470020FCE74268EC
:1017000061F308024260704710B501211A48FEF7E4
:10171000BAFF01282FD1194890F8C800174991F84D
:10172000C910884217D0154890F8C90000EB800016
:10173000124A02EB80011048FFF7B2F80F4890F808
:10174000C900401C0A2190FBF1F201FB12000B4979
:1017500081F8C9000BE0094890F8C800074991F8E2
:10176000C910884203D101210348FEF784FF0121FB
:101770000148FEF7D3FD10BD006400403001002099
:1017800010B502211948FEF77EFF01282DD1022154
:101790001648FEF7C3FD164890F81801401C0A21B0
:1017A00090FBF1F201FB1200114991F819118842E6
:1017B0001BD00F4890F81801C0EBC0000C4901EB9A
:1017C000800200210948FEF7F1FF094890F818014E
:1017D000401C0A2190FBF1F201FB1200044981F840
:1017E00018010448006802F046FB10BD0064004088
:1017F000FC0100203C00002000BFFEE710B58CB0CB
:1018000004460420FFF784FC4FF40030FFF770FC1F
:101810000120FFF765FC88208DF81F000420ADF83B
:101820001C0003208DF81E0007A94148FFF787FB25
:1018300004208DF81F000820ADF81C0007A93C48C3
:10184000FFF77DFB08940C208DF82A000020ADF8EE
:101850002800ADF82600ADF82400ADF82C0008A94A
:101860003448FFF7A9FE3348FFF703FF3248FFF77C
:10187000BFFA01A8FFF783FA2E48001D01902F48F8
:10188000029000208DF80C009620049000208DF826
:10189000140001208DF8150000208DF816008DF839
:1018A00017008DF8180002208DF8190000208DF81F
:1018B0001A0001A92048FFF731FA1F481430FFF73A
:1018C00097FA01A8FFF75BFA1A48001D01901C481F
:1018D000029001208DF80C009620049000208DF8D5
:1018E000140001208DF8150000208DF816008DF8E9
:1018F00017008DF8180002208DF8190000208DF8CF
:101900001A0001A90C481430FFF708FAC021094851
:10191000FFF7B6FE022108481430FFF748FA00220C
:1019200001211120FFF784FB00200CB010BD000046
:1019300000080140004400406C000240DE0300202B
:1019400048030020A6B0002400BF00BF98216846CD
:10195000FEF795FCAAE14FF0FF31D548006802F090
:10196000B3FAD44908600846006820B1D04800683E
:1019700002F063FA9AE1D048FFF71DFAC0F1960031
:10198000CE490870CC48FFF707FA4FF48010FFF7F4
:10199000B7F996220021CA4802F0E7F8C748027852
:1019A000C849C74802F0C4F89621C348FFF7E5F9D3
:1019B0000121C148FFF7FBF90020C3490870BF4867
:1019C00000787828C6DB002415E0C04AD2F86022EF
:1019D000C2EBC203C3EBC212BC4B1A4404EB840338
:1019E00002EB4300C4EB0412521DB54BD1180A227E
:1019F00002F09EF8641C082CE7DBB448D0F86002C3
:101A0000401C052190FBF1F201FB1200AF49C1F827
:101A1000600200BF0020C1F86802AD48D0F8940110
:101A2000AB49D1F8901188424AD0962200216846ED
:101A300002F09BF8002431E0EF20C4EB04110DF814
:101A40000100FA21C4EB0410401C0DF8001008211D
:101A5000C4EB0410801C0DF800100B21C4EB041023
:101A6000C01C0DF800100121C4EB0410001D0DF87E
:101A70000010974AD2F8942102EB8202944B03EBB8
:101A8000021204EB840302EB4301C4EB0412521D67
:101A90006B46D0180A2202F04BF8641C082CCBDBF2
:101AA0007821684603F0FAF88948D0F89401401C80
:101AB000052190FBF1F201FB12008549C1F8940168
:101AC0008348D0F83013D0F82C0381424AD09622B4
:101AD0000021684602F049F8002431E0EF20C4EB11
:101AE00004110DF80100FA21C4EB0410401C0DF89C
:101AF00000100821C4EB0410801C0DF800100B210D
:101B0000C4EB0410C01C0DF800100221C4EB04103B
:101B1000001D0DF800106E4AD2F8302302EB82034C
:101B20006C4A02EB031204EB840302EB4301C4EBA7
:101B30000412521D6B46D0180A2201F0F9FF641CF2
:101B4000082CCBDB7821684603F0A8F86048D0F871
:101B50003003401C052190FBF1F201FB12015C48AF
:101B6000C0F830135A48D0F8CC14D0F8C8048142D9
:101B70004AD096220021684601F0F7FF002431E0A8
:101B8000EF20C4EB04110DF80100FA21C4EB04109E
:101B9000401C0DF800100821C4EB0410801C0DF847
:101BA00000100B21C4EB0410C01C0DF80010032121
:101BB000C4EB0410001D0DF80010454AD2F8CC24E7
:101BC00002EB8203444A02EB031204EB840302EBB0
:101BD0004301C4EB0412521D6B46D0180A2201F0D7
:101BE000A7FF641C082CCBDB7821684603F056F86D
:101BF0003748D0F8CC04401C052190FBF1F201FBE2
:101C000012013348C0F8CC143148D0F86816D0F827
:101C1000640681424AD096220021684601F0A5FF61
:101C2000002431E0EF20C4EB04110DF80100FA218B
:101C3000C4EB0410401C0DF800100821C4EB041084
:101C4000801C0DF800100B21C4EB0410C01C0DF813
:101C500000100421C4EB0410001D0DF800101C4AF4
:101C6000D2F8682602EB82031C4A02EB031204EB53
:101C7000840302EB4301C4EB0412521D6B46D018DF
:101C80000A2201F055FF641C082CCBDB7821684642
:101C900003F004F80E48D0F86806401C052190FBBC
:101CA000F1F201FB12010A48C0F8681653E6000081
:101CB000540000206C0000206C0002402200002034
:101CC00074040020DE0300202100002004170020FF
:101CD000AC0C0020480E0020E40F002080110020F2
:101CE0000146481EB0F1807F01D301207047481E95
:101CF0004FF0E0225061FF20044A107000204FF0A6
:101D0000E0229061072010610020EFE723ED00E062
:101D1000014609B900207047C8B220B1C8B20E4AC6
:101D2000105C401CF7E701F47F4028B10A48C1F37A
:101D30000722805C0930EEE701F47F0028B10648F5
:101D4000C1F30742805C1130E5E7034800EB116006
:101D500000781930DFE70000144D000802E008C8E1
:101D6000121F08C1002AFAD170477047002001E015
:101D700001C1121F002AFBD1704700002DE9FC5F52
:101D800004468B4615461E46DDE90C9ADDE90E78C1
:101D900004F114004060006000BF1C346560A66060
:101DA000C4F80C90C4F810A02321D4E9030201F078
:101DB000DCFED4E9033C63441A1F0F4BD4E9010154
:101DC00001F0F0FC2060A77667760020E061C4F89F
:101DD0002080C4F82480606120766065A0651C3C8A
:101DE00000902346054A2146019004F1440002F088
:101DF0001CFC0020BDE8FC9F114200083D44000887
:101E00002DE9F04704460E4617469846DDF8209027
:101E100084F80990607A20F001006072E661276220
:101E20000020A062C4F82480002506E004F114011B
:101E300001EBC50001F07CFD6D1C012DF6DBBDE85A
:101E4000F08770B50546002406E005F1140101EBAA
:101E5000C40001F0AEFD641C012CF6DB70BD70B552
:101E60000446FEF78BF90546206F10B12046216F1E
:101E700088472846FEF786F970BD00001CB5002192
:101E800012A001F07CFE154908604FF47A7002211F
:101E90004B020022CDE90010114912A002F089F98D
:101EA000134908600846006838B112A001F022FD0D
:101EB0000F48006802F08AFA05E018A001F01AFD48
:101EC0004FF0FF301CBD00BFFCE7000063616E31C6
:101ED0005F73656E645F6D7574657800380000200F
:101EE000AD0A000863616E5F7265637600000000F2
:101EF0003000002072745F7468726561645F6361B2
:101F00006E726563765F63726561746520697320C4
:101F1000737563636573730A0000000072745F7405
:101F200068726561645F63616E726563765F637238
:101F300065617465206973206661696C650A0000DB
:101F40001CB50022032116A001F062FF18490860A9
:101F50000022114617A001F05BFF1B4908604FF4F7
:101F60007A7003214FF480630022CDE900101749F5
:101F700017A002F01EF9194908600846006838B138
:101F800017A001F0B7FC1548006802F01FFA05E041
:101F90001DA001F0AFFC4FF0FF301CBD00BFFCE7FF
:101FA0006D795F63616E73656E645F73656D00006C
:101FB000400000206D795F63616E6E656E647365CD
:101FC0006E645F73656D000044000020390B0008EB
:101FD00063616E5F73656E64000000003400002072
:101FE00072745F7468726561645F63616E73656E5D
:101FF000645F6372656174652069732073756363E0
:102000006573730A0000000072745F746872656122
:10201000645F63616E73656E645F6372656174654E
:10202000206973206661696C650A00001CB5002296
:10203000114612A001F0ECFE134908604FF47A70CB
:1020400002214B020022CDE90010104910A002F03D
:10205000B0F8124908600846006838B110A001F0D5
:1020600049FC0E48006802F0B1F905E016A001F045
:1020700041FC4FF0FF301CBD00BFFCE7757361727F
:10208000745F73656D00000054000020451900085E
:1020900075736172745F726563760000580000208A
:1020A00072745F7468726561645F75736172747273
:1020B0006563765F6372656174652069732073750B
:1020C00063636573730A000072745F74687265619C
:1020D000645F7573617274726563765F6372656164
:1020E0007465206973206661696C650A00000000F0
:1020F00070B506460C46002521463248FEF7D0FB57
:10210000032801D0012070BD2F4890F8C800401C62
:102110000A2190FBF1F201FB12002B4991F8C91042
:10212000884201D10020EEE7A07A274991F8C81033
:1021300001EB8101244A02EB81018872114691F87A
:10214000C81001EB810102EB810160684860607A90
:10215000114691F8C81001EB810102EB8101487230
:10216000114691F8C81001EB8101206842F8210066
:10217000207A114691F8C81001EB810102EB810130
:102180000872114691F8C81001EB810102EB810140
:1021900001F10B00082204F10B0101F0C9FC01213F
:1021A0000848FEF76CFA084890F8C800401C0A215D
:1021B00090FBF1F201FB1200034981F8C8000120F5
:1021C000A1E70000006400403001002008B50C20A9
:1021D000FEF79EFF48208DF803004FF40070ADF825
:1021E000000003208DF8020069464548FEF7A7FE6F
:1021F00048208DF803004FF48070ADF800000320F4
:102200008DF8020069463E48FEF799FE48208DF899
:1022100003000120ADF8000003208DF8020069469C
:102220003748FEF78CFE80208DF803000120ADF8C2
:10223000000003208DF8020069463248FEF77FFE59
:10224000002201212F48FEF7E1FE80208DF80300D7
:10225000ADF8000003208DF8020069462848FEF71B
:102260006EFE012280212648FEF7D0FE80208DF8E8
:1022700003000220ADF8000003208DF8020069463B
:102280002048FEF75CFE012202211E48FEF7BEFE3A
:1022900080208DF803000220ADF8000003208DF8A7
:1022A000020069461648FEF74AFE01220221144840
:1022B000FEF7ACFE80208DF803000002ADF80000B0
:1022C00003208DF8020069460D48FEF738FE012212
:1022D000D1030B48FEF79AFE80208DF803002020E2
:1022E000ADF8000003208DF8020069460448FEF7AF
:1022F00026FE012220210248FEF788FE08BD0000CC
:10230000000C0140000801400020064981F8DE056C
:102310000549C1F86802012004490870002048708E
:1023200070470000CC060020041700202800002081
:102330001CB5FFF7E9FFFFF7A1FDFFF777FEFFF7F9
:10234000FFFDC82003214FF480630022CDE9001077
:10235000F449F5A001F02DFFF64908600846006831
:1023600038B1F5A001F0C6FAF248006802F02EF884
:1023700005E0F9A001F0BEFA4FF0FF301CBD46E2C7
:102380004FF40071FB48FEF72FFE68B9FA48006869
:10239000032805DAF8480068401CF74908604BE05C
:1023A0000320F549086047E0F3480068032840D15E
:1023B000F2484069F14951F8200020F003004969D2
:1023C000EE4A42F8210010464069114651F82000BB
:1023D00020F4FF30496942F8210010464069114657
:1023E00051F8200020F0FF7000F58020496942F884
:1023F000210010464069114651F8200020F4FE707B
:10240000001D496942F8210010464069401C052121
:1024100090FBF1F201FB1200D8494861D8480068EE
:1024200001F029FDD7A001F065FA0020D24908602B
:1024300002E00020D04908604FF48071CD48FEF7DB
:10244000D3FD68B9D3480068032805DAD14800688D
:10245000401CD04908606BE00320CE49086067E06B
:10246000CC480068032860D1C4484069C34951F88A
:10247000200020F003004969C04A42F821001046BC
:102480004069114651F8200020F4FF30496942F8B4
:10249000210010464069114651F8200020F0FF70DD
:1024A00000F58020496942F821004FF40041B1480D
:1024B000FEF7A3FD60B9B1484069B04951F820006A
:1024C00020F4FE700C304969AC4A42F8210017E054
:1024D0004FF40041A748FEF790FD012810D10022DB
:1024E0002021A448FEF792FDA4484069A34951F871
:1024F000200020F4FE7010304969A04A42F8210003
:102500009E484069401C052190FBF1F201FB12003E
:102510009A4948619A48006801F0ADFC9EA001F01C
:10252000E9F900209B49086002E000209949086011
:1025300001219048FEF758FD00284CD19A480078B8
:10254000012842D19948007803283ED18B48406940
:102550008A4951F8200020F003004969874A42F86F
:10256000210010464069114651F8200020F4FF3048
:10257000496942F8210010464069114651F820008F
:1025800020F0FF7000F58020496942F821001046D4
:102590004069114651F8200020F4FE700830496966
:1025A00042F8210010464069401C052190FBF1F2E1
:1025B00001FB1200714948617148006801F05BFC41
:1025C0007BA001F097F902F0E9FA00207649087043
:1025D0007A49086094E001216648FEF705FD01286C
:1025E00008D176480068032805DA74480068401C62
:1025F0007249086084E06C48007800287AD16B4802
:10260000007802283CD16EA001F074F95B48406963
:102610005A4951F8200020F003004969574A42F80E
:10262000210010464069114651F8200020F4FF3087
:10263000496942F8210010464069114651F82000CE
:1026400020F0FF7000F58020496942F82100104613
:102650004069114651F8200020F4FE701830496995
:1026600042F8210010464069401C052190FBF1F220
:1026700001FB1200414948614148006801F0FBFB41
:102680003E4840693D4951F8200020F00300496967
:102690003A4A42F8210010464069114651F820009C
:1026A00020F4FF30496942F8210010464069114684
:1026B00051F8200020F0FF7000F50030496942F821
:1026C000210010464069114651F8200020F4FE70A8
:1026D0001C30496942F8210010464069401C052120
:1026E00090FBF1F201FB1200244948612448006884
:1026F00001F0C1FB03203149086001202A4908701C
:102700002A48007802287FD130480068401C2F49B1
:10271000086080211748FEF770FC08B9012058E0D6
:1027200056E071E0312800086D73675F73656E6471
:10273000000000000400002072745F74687265611C
:10274000645F637265617465206973207375636388
:102750006573730A0000000072745F7468726561CB
:10276000645F637265617465206973206661696C7A
:10277000650A0000000C01401400002090160020A3
:10278000440000206B65793120697320656E640A0E
:1027900000000000180000206B657932206973206A
:1027A000656E640A00000000200000202800002060
:1027B000733120697320656E640A00001C000020DC
:1027C00074616B652075700A0000000078000020BD
:1027D00000200446224680210D48FEF717FC0D48D4
:1027E0000068B0F5FA7F0FD300200A490860002284
:1027F00002210748FEF70AFC012202210648FEF7E3
:1028000005FC012005490870642001F0FAFCB7E5D9
:10281000000C014078000020000801402800002042
:1028200010B5044600F0B2FDFFF782FD10BD0000B8
:1028300000BF00BF02211648FDF721FF0122002141
:102840001420FEF7F5FB21E01248D0F8640211498C
:10285000D1F86012884203D00F48006801F00BFBEA
:102860000E4880690D49496988420CD00B4800F038
:102870007DF90A488069401C052190FBF1F201FBBB
:102880001200064988610A2001F0BBFCDCE7000069
:10289000006400400417002044000020741600204B
:1028A0002DE9F04105460C46002700262078C0F3AC
:1028B0000316207800F00F07E06848BB67217143DA
:1028C00005EB81036721714305EB8101D1F890117C
:1028D00001EB810103EB011101EBC700227C04F144
:1028E000110101F025F9092F27D16720704305EB6D
:1028F0008000D0F89001401C052190FBF1F201FB13
:1029000012016720704305EB8000C0F8901114E0BD
:10291000E06890B10AA000F0EDFF0F4960684969D6
:102920000D4A42F8210010464069401C052190FBE9
:10293000F1F201FB120008494861BDE8F081000096
:10294000726563762072656D6F7465547852657137
:10295000206D73670A0000007416002030B51A4C11
:10296000436824681919884215D04B889BB9174BC6
:102970001B6899420FD0164B1B688B4201D1144B38
:1029800018604B684360104B1B68C31A0E4D4C68AF
:102990002D682C44A3600C4C836824681A19824269
:1029A00011D053887BB90A4B1B68834201D1084B75
:1029B0001A6043685360044B1B68D31A024D446885
:1029C0002D682C44A36030BD9400002098000020A6
:1029D0009C0000202DE9F04F86B00D469C46DDE9B5
:1029E000106401960F9B04F04008B8F1000F02D06C
:1029F000DFF8708101E0DFF87081CDF8008004F02D
:102A00001008B8F1000F01D024F0010404F001080F
:102A1000B8F1000F02D04FF0300801E04FF020086D
:102A2000C246002704F00208B8F1000F11D0002AB6
:102A300002DA2D2752420CE004F00408B8F1000F2E
:102A400001D02B2705E004F00808B8F1000F00D0F2
:102A50002027002142B94FF0300B8846491C0DF168
:102A6000080909F808B01DE01AE0E146B9F10A0FBB
:102A700008D14FF00A0BB2FBFBFE0BFB1E28B2FB8A
:102A8000FBF202E002F00F08120900BFDDF800902F
:102A900019F808B08846491C0DF1080909F808B072
:102AA000002AE2D1B14200DD0E469B1B04F0110862
:102AB000B8F1000F10D117B1002B00DD5B1E06E04E
:102AC000A84203D24FF0200880F80080401CB3F1E8
:102AD0000008A3F10103F3DC27B1A84200D207707C
:102AE0005B1E401C04F01008B8F1000F0AD104E08E
:102AF000A84201D280F800A0401CB3F10008A3F165
:102B00000103F5DC06E0A84203D24FF0300880F85C
:102B10000080401CB046761E8845F4DC08E0A842E0
:102B200005D20DF1080818F8018080F80080401CDB
:102B3000B1F10008A1F1010104DDDDF80480B8F174
:102B4000000FECD106E0A84203D24FF0200880F835
:102B50000080401CB3F10008A3F10103F3DC06B0D0
:102B6000BDE8F08F254E0008144E000810B504464D
:102B7000A06914F8200000F0030000287ED001288E
:102B80007DD1A06934F82000C0F3860041281ED111
:102B9000A06954F82000C0F34740002816D1032054
:102BA000FD49087000228021FC48FEF72FFA002220
:102BB0000221FA48FEF72AFA01220221F848FEF71C
:102BC00025FA01F0B3FFF7A000F094FED7E0A0696A
:102BD00034F82000C0F38600422819D10120EE49C4
:102BE00008700020487001228021EC48FEF70EFAA0
:102BF00000220221E948FEF709FA01220221E848F1
:102C0000FEF704FA01F0CAFFEDA000F073FEB6E093
:102C1000A06934F82000C0F3860043286DD1A06974
:102C200054F82000C0F3472002280ED1A06954F8C0
:102C30002000C0F3474040B90122D103D748FEF736
:102C4000E5F9E7A000F056FE99E0A06954F82000ED
:102C5000C0F347200128B9D1A06954F82000C0F37F
:102C600047400028B2D1E5484069E44951F82000C6
:102C700020F00300401C4969E04A01E080E042E3A3
:102C800042F8210010464069114651F8200020F416
:102C9000FE7000F58670496942F82100A06954F879
:102CA0002000410C1046406952F8200061F350208A
:102CB0001146496942F82100A06954F82000410AF0
:102CC0001046406952F8200061F3584011464969A6
:102CD00042F8210010464069401C052190FBF1F2AA
:102CE00001FB1200C54948610122D103AB48FEF740
:102CF0008DF9BBA000F0FEFD41E0A06934F8200092
:102D0000C0F38600442816D1A06954F82000C0F30F
:102D10004720022833D1A06954F82000C0F347406F
:102D200000282CD1012220219C48FEF76FF9B4A085
:102D300000F0E0FD23E0A06934F82000C0F3860035
:102D400046281CD1A06954F82000C0F34740B0B910
:102D5000032091490870002280219048FEF756F91F
:102D6000002202218D48FEF751F9012202218C48F0
:102D7000FEF74CF901F0DAFE8AA000F0BBFDC3E2D9
:102D8000A06934F82000C0F3860001287AD1A06938
:102D900054F82000C0F3472040F00F00002870D006
:102DA000A06954F82000C0F34740002869D19BA0D7
:102DB00000F0A0FD00224FF400417848FEF726F90C
:102DC0008E4840698D4951F8200020F00300401CD6
:102DD00049698A4A42F8210010464069114651F873
:102DE000200020F4FE7000F58270496942F821004D
:102DF000A06954F82000410C1046406952F82000A8
:102E000061F350201146496942F82100A06954F845
:102E10002000410A1046406952F8200061F35840F2
:102E20001146496942F8210010464069401C0521BD
:102E300090FBF1F201FB1200704948617E48006886
:102E400001F019F87D480078E8B953480078012866
:102E500019D1022050490870A06954F82000C0F32D
:102E600047204870002280214C48FEF7CFF801220D
:102E700002214A48FEF7CAF8002202214848FEF71C
:102E8000C5F83FE2F7E06D480078012820D14248BC
:102E9000007801281CD102203F49087068A000F08A
:102EA00029FDA06954F82000C0F347203A49487032
:102EB000002280213948FEF7A9F801220221374873
:102EC000FEF7A4F8002202213548FEF79FF819E228
:102ED0003148007802281BD12F49087058A000F013
:102EE00009FDA06954F82000C0F347202A49487022
:102EF000002280212948FEF789F801220221274873
:102F0000FEF784F8002202212548FEF77FF8F9E158
:102F10002148007803283ED138484069374951F8A4
:102F2000200020F003004969344A42F8210010468D
:102F30004069114651F8200020F4FE70001D4969D7
:102F400042F82100A06954F82000410C1046406965
:102F500052F8200061F350201146496942F82100DF
:102F6000A06954F82000410A1046406952F8200038
:102F700061F358401146496942F821001046406902
:102F8000401C052190FBF1F201FB12001B49486136
:102F9000294800685CE05EE028000020000C014049
:102FA000000801407265637620447574795F526F42
:102FB0006F6D2063616C6C206261636B0A000000BE
:102FC0007265637620436F6D5F526F6F6D20656E23
:102FD000642074616C6C206261636B0A0000000005
:102FE0007265637620436F6D5F526F6F6D207265FF
:102FF000737420206261636B0A0000009016002049
:103000007265637620436F6D5F526F6F6D206368EA
:1030100065636B20206261636B0A000072656376F2
:103020002063616C6C2066726F6D20436F6D5F5220
:103030006F6F6D0A00000000440000202000002097
:1030400074616B65207570206E6F770A0000000058
:1030500000F011FF56E101228021AC48FDF7D6FFB8
:1030600000220221A948FDF7D1FF01220221A84830
:10307000FDF7CCFF46E1A06934F82000C0F38600DC
:10308000022853D1A06954F82000C0F3472001283A
:10309000E0D1A06954F82000C0F347400028D9D1FE
:1030A0009C4840699B4951F8200020F00300401CD7
:1030B0004969984A42F8210010464069114651F882
:1030C000200020F4FE7000F58470496942F8210068
:1030D000A06954F82000410C1046406952F82000C5
:1030E00061F350201146496942F82100A06954F863
:1030F0002000410A1046406952F8200061F3584010
:103100001146496942F8210010464069401C0521DA
:1031100090FBF1F201FB12007E4948617E48006895
:1031200000F0A9FE7DA000F0E5FBEBE0A06934F81B
:103130002000C0F3860003284AD10122D10373483E
:10314000FDF764FF73484069724951F8200020F090
:103150000300401C49696F4A42F82100104640694B
:10316000114651F8200020F4FE7000F58670496980
:1031700042F82100A06954F82000410C1046406933
:1031800052F8200061F350201146496942F82100AD
:10319000A06954F82000410A1046406952F8200006
:1031A00061F358401146496942F8210010464069D0
:1031B000401C052190FBF1F201FB120055494861CA
:1031C0005548006800F057FE54A000F093FB99E0CA
:1031D000A06934F82000C0F38600042803D14FA072
:1031E00000F088FB8EE0A06934F82000C0F3860070
:1031F000052842D15148007803283DD1454840690F
:10320000444951F8200020F00300401C4969414A1C
:1032100042F8210010464069114651F8200020F480
:10322000FE7000F58A70496942F821001046406935
:10323000114651F8200020F4FF30496942F821007E
:10324000A06954F82000410A1046406952F8200055
:1032500061F358401146496942F82100104640691F
:10326000401C052190FBF1F201FB12002949486145
:103270002948006800F0FFFD44E0A06934F8200010
:10328000C0F3860007283DD12C480078032839D1A7
:10329000204840691F4951F8200020F00300496987
:1032A0001C4A42F8210010464069114651F820009E
:1032B00020F4FE70001D496942F821001046406963
:1032C000114651F8200020F4FF30496942F82100EE
:1032D00010464069114651F8200020F0FF7000F5BB
:1032E0008020496942F8210010464069401C0521B0
:1032F00090FBF1F201FB12000649486106480068A4
:1033000000F0B9FD00E000BF00BF10BD000C01409F
:10331000000801409016002044000020726563768A
:1033200020656E642074616C6C2066726F6D204342
:103330006F6D5F526F6F6D0A000000002800002063
:103340001CB514200A214FF480730022CDE900102F
:10335000044905A000F02DFF0446204601F036F890
:103360001CBD0000212800086D61696E000000008E
:1033700010B5044C02E020688047241D02488442B6
:10338000F9D310BD3C4E0008444E000810B5044C63
:1033900002E020688047241D02488442F9D310BD12
:1033A000444E0008484E000810B5FCF7E7FE0446FE
:1033B00004480088401C00B2024908802046FCF7FF
:1033C000E1FE10BD1001002010B5FCF7D7FE044649
:1033D0000C480088401E00B20A4908800846B0F92F
:1033E000000000280ADC002008802046FCF7CAFE06
:1033F0000548006828B100F077FC02E02046FCF7A1
:10340000C1FE10BD100100201401002070B505465A
:1034100005B970BD1D480068854203D31C4800688B
:10342000854200D3F5E7A5F10C044FF0FF311948B0
:1034300000F04AFD608818B12088B0F5F55F08D02B
:1034400015A000F057FA23886288214619A000F0E1
:1034500051FA002060804FF4F55020802148006828
:10346000844201D21F480460084960680968611AF3
:10347000401A1D490968081A1B4908602046FFF7D1
:103480006DFA044800F0F7FC00BFC2E7940000208A
:1034900098000020E81B0020746F2066726565208C
:1034A0006120626164206461746120626C6F636B8F
:1034B0003A0A00006D656D3A203078253038782C56
:1034C000207573656420666C61673A2025642C2042
:1034D0006D6167696320636F64653A2030782530D9
:1034E00034780A009C000020A400002000487047A7
:1034F000081D0020004870470841002070B5FDF706
:10350000FDFE124800684FF47A71B0FBF1F42046DA
:10351000FEF7E6FB4FF4A060FDF780FD0C48FEF7D8
:103520006DF9FDF751FAFEF751FE40F2E7315F20E9
:1035300001F04EFBFFF71CFFFFF7DCFF0446FFF72F
:10354000D5FF0546214600F06BFD70BD0000002050
:1035500020A1070010B50446FFF726FF19E02078E8
:103560000A280AD100BF80210D48FEF7C0F80028C4
:10357000F9D00D210A48FEF7C2F800BF80210848A3
:10358000FEF7B5F80028F9D014F8011B0448FEF73F
:10359000B6F820780028E2D1FFF716FF10BD000032
:1035A0000038014070B505462C1D2E48006838B122
:1035B00028462C4909688847064606B970BD00BFF1
:1035C00029A0E16B00F096F92BA0216A00F092F996
:1035D0002DA0616A00F08EF92FA0A16A00F08AF98F
:1035E00031A0E16A00F086F933A0216800F082F989
:1035F00035A0616800F07EF937A0A16800F07AF983
:1036000039A0E16800F076F93BA0216900F072F979
:103610003DA0616900F06EF93FA0A16900F06AF970
:1036200041A0E16900F066F943A0216B00F062F966
:1036300045A0616B00F05EF947A0A16B00F05AF95C
:10364000287800F0040038B100F098FE06463146B4
:1036500045A000F04FF902E04BA000F04BF900BF8D
:10366000FEE70000880000207073723A2030782551
:103670003038780A000000007230303A2030782567
:103680003038780A000000007230313A2030782556
:103690003038780A000000007230323A2030782545
:1036A0003038780A000000007230333A2030782534
:1036B0003038780A000000007230343A2030782523
:1036C0003038780A000000007230353A2030782512
:1036D0003038780A000000007230363A2030782501
:1036E0003038780A000000007230373A20307825F0
:1036F0003038780A000000007230383A20307825DF
:103700003038780A000000007230393A20307825CD
:103710003038780A000000007231303A20307825C5
:103720003038780A000000007231313A20307825B4
:103730003038780A000000007231323A20307825A3
:103740003038780A00000000206C723A203078256A
:103750003038780A000000002070633A2030782565
:103760003038780A00000000686172642066617574
:103770006C74206F6E207468726561643A202573E2
:103780000D0A0D0A00000000686172642066617510
:103790006C74206F6E2068616E646C65720D0A0D2A
:1037A0000A000000F0B504460D461646301D20F014
:1037B000070040380146002203E00C4F41F8227018
:1037C000521C102AF9D30D624FF0000CC1F824C02E
:1037D000C1F828C0C1F82CC0C1F830C04B638C635D
:1037E0004FF0807CC1F83CC0F0BD0000EFBEADDE04
:1037F00010B5FCF7C3FC044604480078401C03499C
:1038000008702046FCF7BEFC10BD000090000020B0
:1038100010B5FCF7B3FC044604480078401E034989
:1038200008702046FCF7AEFC10BD000090000020A0
:1038300070B504462068A0F11405284600F080FD0C
:10384000002070BD70B505460EE0FCF797FC0646FB
:103850002868A0F114044FF0FF302063204600F0E8
:103860006FFD3046FCF78EFC284600F080F80028FB
:10387000EBD0002070BD2DE9F04105460C46904686
:10388000204600F0B9FDB8F1000F03D0B8F1010FE8
:1038900023D105E004F11401284600F061F81DE091
:1038A0002E680FE0A6F1140794F8350097F835104C
:1038B000884206DA04F1140107F1140000F050F810
:1038C00002E03668AE42EDD100BFAE4204D104F151
:1038D0001401284600F044F800E000BF00BF0020BB
:1038E000BDE8F08110B5044604F1140000F01AF8A8
:1038F000002010BD0FB438B505A80090FF2108487E
:10390000009B049A00F036FF0446FF2C00D9FF24E8
:103910000348FFF71FFE0020009038BC5DF814FB41
:10392000E81A002040600060704740600060704707
:103930004060006070470268516002680A60016080
:10394000486070470268516002680A600160486020
:1039500070470268516002680A6001604860704701
:103960004268116042684A604160086070470146E1
:103970000868884201D1012070470020FCE7014619
:103980000868884201D1012070470020FCE7D0E997
:1039900000215160D0E90012116040600060704762
:1039A000D0E900215160D0E9001211604060006050
:1039B0007047D0E900215160D0E9001211604060E9
:1039C000006070472DE9F041054615B90020BDE8BB
:1039D000F081E81C20F003054E480068854201D9BB
:1039E0000020F4E70C2D00D20C254FF0FF314A489F
:1039F00000F06AFA4948006849490968461A7EE0B9
:103A00004748006884196088002874D106F10C00CA
:103A10006168081AA8426ED306F10C006168091AA1
:103A200005F11800814230D306F10C0000EB0508C7
:103A30003B48006800EB08074FF4F5503880002041
:103A4000788060687860BE60C4F80480012060807F
:103A50003048796800680C30814205D03049786878
:103A600009680844C0F808802E48016805F10C0078
:103A700008442C4908602C4800680968884219D21B
:103A8000284800682849086014E001206080244923
:103A900060680968611A401A224909680844214986
:103AA0000860214800680968884203D21D48006800
:103AB0001D4908604FF4F550208018480068844282
:103AC00012D107E0154800684068154909680844A4
:103AD0001249086011480068408828B10F48006802
:103AE000124909688842EDD10B4800F0C4F904F18D
:103AF0000C006CE7FFE70A48006830444668054858
:103B00000068401BB0423FF67BAF034800F0B3F9BA
:103B100000205CE7A0000020E81B00209C000020A3
:103B200094000020A4000020A8000020980000209D
:103B3000F0B50D46144601462A46914202D916199F
:103B40008E4209D203E012F8016B01F8016B261EC8
:103B5000A4F10104F7D107E0234603E05E1E975D60
:103B60008F555B1E002BF9D1F0BD30B5034601E047
:103B700003F8011B141EA2F10102F9D130BD70B58A
:103B800005460E462946032000F012F804460CB9FB
:103B9000204670BD2046FFF7A5FE0120A08300202F
:103BA0002062FF20A0770020E07766722046F0E7D1
:103BB0002DE9F04106460F46304600F045F805462F
:103BC000E868FFF7FFFE044614B90020BDE8F08165
:103BD00000212046EA68FFF7C8FF267200206072C5
:103BE00008223946204600F001FAFCF7C7FA804661
:103BF00004F10C01281DFFF79EFE4046FCF7C2FAB7
:103C00002046E3E770B5044600202072FCF7B6FAC0
:103C1000054604F10C00FFF7BAFE2846FCF7B2FA9D
:103C20002046FFF7F3FB70BD70B5044600202072FC
:103C3000FCF7A4FA054604F10C00FFF7A8FE28469D
:103C4000FCF7A0FA70BD0000024600210AE0074818
:103C500000EB01100078904203D1044800EB011002
:103C60007047491C0629F2DB0020F9E7AC00002070
:103C70002DE9F04704460D46904600262846FFF7FA
:103C8000E3FF0746FFF790FB7E6802E0A6F10C0019
:103C90003668381D8642F9D1FFF796FB45F0800063
:103CA000207208224146204600F0A0F9FCF766FA8F
:103CB000814604F10C01381DFFF73DFE4846FCF734
:103CC00061FABDE8F0870146087A00F0800008B18B
:103CD000012070470020FCE710B5FFF789FD00F0D8
:103CE000F5FBFFF795FD10BD2DE9F041FCF746FA15
:103CF00007461848008838BB17480068FEF708F8E0
:103D0000461E164850F83600A0F114041448006806
:103D1000844218D013490E70114805680460124897
:103D2000007850B904F11C0105F11C00FCF72DFAD4
:103D30003846FCF727FABDE8F08104F11C0105F1D3
:103D40001C00FCF722FA00BF3846FCF71BFA00BF44
:103D5000F1E70000100100200C010020081C0020E9
:103D600014010020180100209000002070B50446C6
:103D7000FCF704FA054614F8340F20F00F0040F069
:103D8000010020706278343C0A4B03EBC20004F15E
:103D900014014268116042684A604160086000BFD7
:103DA0000549A06B09680843034908602846FCF7E9
:103DB000E9F970BD081C00200C01002070B5044614
:103DC000FCF7DCF9054604F11400D0E9002151604C
:103DD000D0E9001211604060006000BF94F8351017
:103DE000094A02EBC1000168814201D1012100E0D2
:103DF000002129B10548A16B006888430349086088
:103E00002846FCF7BFF970BD081C00200C010020FB
:103E10002DE9F04105460E46174629460220FFF7D8
:103E2000C7FE044614B92046BDE8F0812046FFF7DE
:103E300059FDA68367722046F6E710B5044604F1E3
:103E40001400FFF7FFFC2046FFF7DCFE002010BD4A
:103E50002DE9F04104460D4616461F462A4602212A
:103E60002046FFF705FF2046FFF73CFDA68367725B
:103E70000020BDE8F08170B504460025FCF77EF90E
:103E8000064604F11400FFF772FD28B904F114008E
:103E9000FFF7CEFC01250EE0A08B4FF6FF718842A4
:103EA00003DAA08B401CA08305E03046FCF76AF9DA
:103EB0006FF0020070BD3046FCF764F9012D01D1AE
:103EC000FFF712FF0020F5E773B50546FCF756F93A
:103ED0000646A88B002806DDA88B401EA883304626
:103EE000FCF750F928E0019828B93046FCF74AF968
:103EF0006FF001007CBD00F041FA04460020206311
:103F00006A7A214605F11400FFF7B5FC01980028F4
:103F100009DD01AA002104F1440000F041FB04F195
:103F2000440000F099FB3046FCF72CF9FFF7DCFE6B
:103F3000206B08B1206BDDE70020DBE708B509A0A6
:103F4000FFF7D8FC0AA0FFF7D5FC12A00523012239
:103F50000321009012A0FFF7CDFC19A0FFF7CAFCC7
:103F600008BD00000A205C207C202F0A0000000011
:103F70002D205254202D202020202054687265616D
:103F800064204F7065726174696E67205379737431
:103F9000656D0A00446563203236203230323200CB
:103FA000202F207C205C202020202025642E2564CA
:103FB0002E2564206275696C642025730A00000058
:103FC0002032303036202D203230323020436F7096
:103FD0007972696768742062792072742D746872CE
:103FE000656164207465616D0A00000070B5034668
:103FF000A2B118460C4600BF14F8016B00F8016B23
:104000003EB902E0002500F8015B551E2A1EF9D1D9
:1040100002E0551E2A1EEFD100BF00BF184670BD3A
:104020002DE9F04105460E46E81C20F0030726F076
:104030000308B8F1180F09D9A8F11800B84205D340
:10404000A8EB070018381E49086006E032462946EA
:104050001CA0FFF74FFCBDE8F08129480760046809
:104060004FF4F5502080164800680C306060002046
:10407000A06060802249606809680844214908609E
:104080004FF4F5500968088001201E4909684880EE
:104090000B4800680C301B490968486008480068F4
:1040A0000C301849096888600023012216A11848BD
:1040B000FFF7CEFE124800681649086000BFCAE745
:1040C000A00000206D656D20696E69742C206572FA
:1040D000726F7220626567696E20616464726573D5
:1040E0007320307825782C20616E6420656E642002
:1040F0006164647265737320307825780A0000006B
:1041000094000020980000206865617000000000A5
:10411000E81B00209C00002010B500200B490880FF
:10412000002405E00A4901EBC400FFF7FEFB641C14
:10413000202CF7DB1F200749087000200649086083
:10414000064908600648FFF7F0FB10BD100100208B
:10415000081C002018010020140100200C01002080
:104160001C01002070B508480068FDF7D1FD451E10
:10417000064850F83500A0F114040548046004F125
:104180001C00FCF730F870BD0C010020081C00205A
:104190001401002010B5002405E0044901EBC4001F
:1041A000FFF7C6FB641C002CF7D010BD24010020D3
:1041B00070472DE9FF5F06460F4690461D46DDE934
:1041C0000EAB31460120FFF7F3FC8146B9F1000F39
:1041D00003D1002004B0BDE8F09F2846FFF7F2FBB2
:1041E000044624B94846FFF70DFD0020F2E7434698
:1041F0003A46314648468DE8300CFDF7BFFD48464B
:10420000E8E710B50446204600F0BEF810BD0000F7
:1042100070B513480468FBF7B1FF05462046FDF76B
:104220001EFE2046FFF7CAFD042084F8340004F186
:10423000440000F0E6F92046FFF745FD012803D1D0
:104240002046FFF7F1FC04E004F114010548FFF7F4
:1042500079FBFFF749FD2846FBF794FF70BD00008E
:10426000140100201C01002001E000F001F8FCE72F
:1042700070B528E0FBF782FF054600BF13480168D0
:10428000814201D0012100E0002119B92846FBF745
:1042900079FF19E00D480068A0F1140404F114003E
:1042A000D0E900215160D0E9001211604060006047
:1042B00000BFA06AFFF7AAF82046FFF7A3FC284634
:1042C000FBF760FF00BFD5E700BF70BD1C010020F9
:1042D0001FB520201F21C200074BCDE90032CDE9D8
:1042E00002100023054A06A1074800F00FF806480F
:1042F00000F06CF81FBD0000E819002069420008BA
:104300007469646C65000000701900202DE9FF5F7E
:1043100005460C4616461F46DDE910ABDDE90E8961
:10432000224601212846FFF7A3FC3B4632462146A0
:1043300028468DE8000FFDF721FD04B0BDE8F09F91
:1043400070B5044694F8340000F00F00022802D043
:104350004FF0FF3070BDFBF711FF054604F114006C
:10436000FFF71EFB04F1440000F0ECF92846FBF7D0
:1043700009FF2046FFF7FAFC0020EBE70148006840
:10438000704700001401002031B5FBF7F7FE054629
:104390000D480468204600F02FF86A46002104F119
:1043A000440000F0FDF804F1440000F055F92846FF
:1043B000FBF7E8FEFFF798FC206B801C08B9002093
:1043C0002063002038BD00001401002010B5044611
:1043D0003434A078607061780120884060600220E9
:1043E00004F834092046FFF7ABFFFFF7C7FF08B119
:1043F000FFF77AFC002010BD70B5044694F8340035
:1044000000F00F00012802D04FF0FF3070BDFBF725
:10441000B5FE05462046FFF7D1FC94F8340020F0A5
:104420000F0040F0020084F8340004F1440000F072
:1044300089F92846FBF7A6FE0020E7E770B5044699
:1044400025466FF00100286305F11400FFF7A8FA74
:104450002846FFF78BFCFFF747FC70BD70B5FBF7F4
:104460008DFE05461448046894F8340000F00F00EF
:1044700001281CD1D4E90510814218D004F11400A0
:10448000FFF78EFA94F835200C4B03EBC20004F1D1
:1044900014014268116042684A604160086000BFD0
:1044A0002846FBF76FFEFFF71FFC002070BD284673
:1044B000FBF768FE0020F9E714010020081C00202B
:1044C00001480068704700008C00002010B50A48C1
:1044D0000068401C08490860FFF750FF0446206C44
:1044E000401E2064206C18B9E06B2064FFF7B6FF13
:1044F00000F004F810BD00008C0000207CB5684678
:10450000FFF716FAFFF7DCFF0546FBF737FE064616
:104510003AE022480068A0F11404A06A281A6FF05B
:10452000004188422ED22046FDF78BFC607A00F0D5
:10453000020018B9607A20F00100607204F11401E1
:104540006846FFF706FAD4E907108847FFF7B8FF77
:1045500005466846FFF713FA00B115E004F11400B0
:10456000FFF727FA607A00F0020060B1607A00F08D
:10457000010040B1607A20F001006072204600F036
:104580006BF800E005E000BF0448FFF7F8F90028E9
:10459000BFD000BF3046FBF7F5FD7CBD24010020F5
:1045A0002DE9F04104460E461546FBF7E7FD0746A8
:1045B000052E1ED2DFE806F00603090E1300606A1E
:1045C000286017E02868606214E0607A20F002003A
:1045D00060720FE0607A40F0020060720AE0607A78
:1045E00000F0010010B10120286001E000202860E7
:1045F00000E000BF00BF3846FBF7C4FD0020BDE867
:10460000F08170B50446FBF7B9FD05462046FDF77D
:1046100018FC607A20F0010060722846FBF7B2FDBA
:104620002046FFF701FB002070BD2DE9F843074647
:104630000C4615461E46DDE9088922460A21384601
:10464000FFF716FB4346324629463846CDF8009020
:10465000FDF7D6FBBDE8F8832DE9F8430546FBF7E7
:104660008DFD80462846FDF7ECFB687A20F00100BE
:104670006872FFF725FF696A0844A8622F4F009708
:1046800000242AE019E05DF824201168142202EBCE
:10469000C402881A826AAB6AD21A00D108E0826A20
:1046A000AB6AD21A6FF000439A4200D20CE000BF0E
:1046B0005DF8240000684DF824005DF8240007EB45
:1046C000C40149688842DED100BF2CB15DF82400E6
:1046D0000830611C4DF82100641C002CD2D0184811
:1046E0000068401C164908600846066805F1140178
:1046F0000098FFF72EF9022412E006F0030060B9DB
:10470000C4F1010305F1140202EBC301C4F101027B
:104710005DF82200FFF71DF900E003E0B608641C15
:10472000012CEAD900BF687A40F001006872404667
:10473000FBF728FD0020BDE8F883000024010020DD
:104740002C01002070B50446607A00F0010010B919
:104750004FF0FF3070BDFBF711FD05462046FDF719
:1047600070FB607A20F0010060722846FBF70AFDBA
:104770000020EFE72DE9FF4F89B081464C460A98AB
:1047800009EB00064E4504D24FF0FF36A6EB0900B8
:104790000A9077E10B980078252806D0B44202D21F
:1047A0000B9800782070641C69E1002526E00B98C6
:1047B000401C0B900B9800782D2802D145F0100575
:1047C0001CE00B9800782B2802D145F0040515E079
:1047D0000B980078202802D145F008050EE00B98D0
:1047E0000078232802D145F0200507E00B980078D7
:1047F000302802D145F0010500E000E0D7E700BF16
:104800004FF0FF370B98007830380A2804D20BA8F5
:1048100000F06DF907460EE00B9800782A280AD1BF
:104820000B98401C0B900C9880C80C90002F02DA5B
:104830007F4245F010054FF0FF3A0B9800782E2884
:104840001CD10B98401C0B900B98007830380A282C
:1048500004D20BA800F04BF982460AE00B980078CE
:104860002A2806D10B98401C0B900C9850F804ABEA
:104870000C90BAF1000F01DA4FF0000A002004900A
:104880000B980078682803D00B9800786C2805D125
:104890000B98007804900B98401C0B900A20059010
:1048A0000B9800786F2873D00CDC632813D004DCDD
:1048B00025286ED058286DD195E064286BD06928E2
:1048C000F9D197E0702873D0732825D075286ED061
:1048D0007828F0D18AE005F0100040B904E0B44235
:1048E00001D220202070641C781E071EF7DC0C9873
:1048F00010F8041B0C90C8B20790B44201D207987C
:104900002070641C04E0B44201D220202070641C9A
:10491000781E071EF7DCB2E00C98006806900C9831
:10492000001D0C90069808B960A006904FF0000892
:1049300001E008F10108B84504D0069810F8080015
:104940000028F6D1BAF1000F02DDD04500DDD046D7
:1049500005F0100048B904E0B44201D220202070D4
:10496000641C38467F1E4045F6DC002008900BE0B2
:10497000B44202D2069800782070641C0698401C4D
:1049800006900898401C089008984045F0DB09E024
:1049900026E01FE032E02CE00AE0B44201D2202001
:1049A0002070641C38467F1E4045F6DC67E024E03A
:1049B000781C10B9082745F00105CDE9007A029569
:1049C0000C9804C8102331460C902046FEF702F8DC
:1049D000044654E0B44201D225202070641C4EE00D
:1049E000082005901DE045F0400500BF102005900F
:1049F00017E000BF45F0020500BF12E0B44201D24B
:104A000025202070641C0B98007830B1B44202D28B
:104A10000B9800782070641C02E00B98401E0B90ED
:104A20002DE000BF04986C2807D10C9850F804BB07
:104A30000C9005F00200B8B116E0049868280BD17C
:104A40000C9830F8041B1FFA81FB0C9005F0020053
:104A500050B10FFA8BFB07E00C9850F804BB0C9098
:104A600005F0020000B100BFCDE9007A02955A4678
:104A700031462046059BFDF7ADFF044600BF0B986D
:104A8000401C0B900B98007800287FF483AE0A98A6
:104A900038B1B44202D20020207002E0002006F8B3
:104AA000010CA4EB09000DB0BDE8F08F284E554C69
:104AB0004C290000002070470020704700207047FC
:104AC0000020704710B5FBF759FBFEF717FDFFF705
:104AD00035FAFFF75FFBFFF71FFBFEF731FCFFF72F
:104AE00067FBFFF7F5FBFFF73DFB002010BD01461C
:104AF000002009E00B685A1C0A601A7800EB80035A
:104B000002EB4302A2F130000A681278303A0A2A16
:104B1000F0D3704710B500200349086002482438DC
:104B2000FCF7BDFC10BD0000242C014010B510495D
:104B30001048FCF7A9FD002211462620FCF778FA60
:104B400096210D48FCF719F90B48FCF72AF90320C8
:104B50000A490968888300200949086548650949A8
:104B60000860012211460848FCF750FA10BD000009
:104B700030000105004400406C000240400000206D
:104B8000AC160020780000200008014010B5024853
:104B9000FCF780FC10BD0000002C014010B5084956
:104BA0000848FCF751FD0848FCF7F6F84FF4801070
:104BB000FCF7A6F8002201210448FCF727FA10BDF3
:104BC00030000105004400406C0002400008014034
:104BD0007CB505460C464FF40060FCF799FA0020BE
:104BE0008DF801008DF80000ADF80450ADF80240DA
:104BF0008DF8060069460648FCF706FC01210448CA
:104C0000FCF753FC012200211920FCF711FA7CBDAE
:104C1000002C014008B56846FCF7DEF944F20400B8
:104C2000FCF776FA88208DF803004FF40070ADF899
:104C3000000003208DF8020069461448FCF77FF954
:104C400069461248FCF77BF94FF48060ADF800002C
:104C500004208DF8030069460C48FCF770F94FF406
:104C60008040FCF755FA0A480A4908600C2088720F
:104C700000200881C880888088810748FCF79CFC58
:104C80000548FCF7F6FC002008BD000000080140C4
:104C900020A10700084100200038014070B50446FB
:104CA0000D46194890F8DE0598B91848FCF774F8D5
:104CB0002A4621461648FEF73BFF29461348FCF7D3
:104CC0005CF81248FCF76DF801200F4981F8DE0509
:104CD00019E00D4991F8DD15C1EB011101EB8101DE
:104CE000094A02EB41002A462146FEF721FF064809
:104CF00090F8DD05401C0A2190FBF1F201FB120047
:104D0000014981F8DD0570BDCC060020800002401D
:104D10004803002000000100020001000300010020
:104D20000200010004000100020001000300010074
:104D30000200010005000100020001000300010063
:104D40000200010004000100020001000300010054
:104D50000200010006000100020001000300010042
:104D60000200010004000100020001000300010034
:104D70000200010005000100020001000300010023
:104D80000200010004000100020001000300010014
:104D90000200010007000100020001000300010001
:104DA00002000100040001000200010003000100F4
:104DB00002000100050001000200010003000100E3
:104DC00002000100040001000200010003000100D4
:104DD00002000100060001000200010003000100C2
:104DE00002000100040001000200010003000100B4
:104DF00002000100050001000200010003000100A3
:104E00000200010004000100020001000300010093
:104E100002000100303132333435363738396162BF
:104E200063646566003031323334353637383941A2
:104E30004243444546000000C14A0008B94A000800
:104E4000154C0008B54A0008BD4A00086C4E000821
:104E50000000002030010000B8020008B44E000835
:104E600030010020E84300006C1D00081144D8B850
:104E700005000B9AEFFA040106EFFA050120320152
:104E800022B02A2004327832021AC00C290429B731
:104E900032031AD00C2904322429D91AE00C29042F
:104EA000323032061AF00C2904323C4A0A552A20C4
:044EB0000402272CA5
:0400000508000145A9
:00000001FF
